:1000000000800020D52B0000D12B0000D12B000058
:1000100000000000000000000000000000000000E0
:10002000000000000000000000000000351100008A
:100030000000000000000000A1110000E511000018
:10004000D12B0000D12B0000D12B0000D12B0000C0
:10005000D12B0000D12B0000D12B000000000000AC
:10006000D12B0000D12B0000D12B0000D12B0000A0
:10007000D12B00000000000000000000D12B000088
:10008000D12B0000D12B0000C9540000D554000032
:10009000E15400000000000000000000000000002B
:1000A000000000000000000000000000D12B000054
:1000B0000000000010B5064C2378002B07D1054B3B
:1000C000002B02D0044800E000BF0123237010BDC4
:1000D0007401002000000000F8E3000008B5084BA0
:1000E000002B03D00748084900E000BF0748036819
:1000F000002B00D108BD064B002BFBD09847F9E739
:1001000000000000F8E3000078010020F8E30000A0
:10011000000000007047C04610B5041C064B036089
:10012000191C1831DC2281504C3304328350DC30EE
:10013000024B9847201C10BD78D70000113F0000EB
:1001400008B4024B9C46DC3808BC6047190100002B
:1001500008B4024B9C46E03808BC60471901000017
:1001600010B5041C014B9847201C10BDA758000077
:1001700008B50348DC300349034B984708BDC04627
:100180009001002028D10000613F000010B5041C40
:10019000084B0360191C1831DC2281504C330432A7
:1001A0008350DC30044B9847201C044B9847201C9C
:1001B00010BDC04678D70000113F0000A7580000CE
:1001C00008B4024B9C46DC3808BC60478D01000037
:1001D00008B4024B9C46E03808BC60478D01000023
:1001E00038B5064C201C162117220023044DA847C1
:1001F000201C0449044A054B984738BD9001002053
:10020000053D000019010000B000002099580000D1
:10021000F8B55F4656464D464446F0B401200021ED
:100220000322414B9847041E04D0002100220023E2
:100230003E4DA84780256D00281C3D4FB84781469C
:10024000042105223B4EB047281CB847051C10214D
:100250001122B0470820B847291C374EB047082064
:10026000B8474946B047A2204000B84780464946B3
:10027000221C0323314EB346B047A2204000B847AA
:10028000061C291C221C0323D8472D4B9847824665
:100290002C4B98470B212C4B9847A2204000B84785
:1002A000071C5146221C0323D8474B461B681B6979
:1002B0004846391C984753461B681B695046311CF9
:1002C00098472B681B69281C391C98471F4D002C28
:1002D00000D1FEE7201C0021012252420023A84742
:1002E0000128F4D143461B68DB6940469847002843
:1002F00004D043461B689B69404698473368DB69D6
:10030000301C9847002803D033689B69301C9847FD
:100310003B68DB69381C98470028D8D03B689B694C
:10032000381C9847D3E7C04629050000790500002E
:10033000AF58000061260000ED27000039280000BA
:10034000E1240000692400005117000009070000A3
:1003500010B584B00123009300230193029303930B
:100360000348044996225200034CA04704B010BD34
:100370001102000038D100007109000010B5041C02
:10038000036C002B08D10368002B26D14068154B65
:1003900098470023636020E0002A0ED180681A1C71
:1003A000114B9847A368226C94466344A36062682B
:1003B000934212D32368A3600FE0C0681A1C0A4B53
:1003C0009847236C5B42E268D218E26021688A4257
:1003D00003D2626894466344E360A36B0133A36372
:1003E00010BDC046AD100000EF64000038B50468D1
:1003F000002C0CD0026CC3689B18C3604568AB42EC
:1004000000D3C4600B1CC168181C014B984738BD51
:10041000EF640000F8B5041C214B9847A36C002B37
:1004200016DD636A002B04D112E0636A002B04D14D
:100430000EE0251C24351B4F1B4E281CB8470028F6
:1004400000D0B047A36C013BA364A36C002BECDC91
:1004500001235B42A364154B9847114B9847636C8B
:10046000002B16DD2369002B04D112E02369002B39
:1004700004D10EE0251C10350A4F0B4E281CB8473E
:10048000002800D0B047636C013B6364636C002BB1
:10049000ECDC01235B426364044B9847F8BDC04623
:1004A000751100000D0F0000191000008D110000E3
:1004B00038B5002801D172B6FEE70D1C041C154B9F
:1004C00098472268216CE36B4B43D0186060002092
:1004D000A063A2605B1AD318E36001235B426364EC
:1004E000A364002D0BD12369002B0FD0201C1030EA
:1004F000094B9847012809D1084B984706E0201C72
:100500001030074DA847201C2430A847054B9847BA
:10051000012038BD751100000D0F00005D110000B5
:10052000790800008D11000070B5002813D00E1C52
:10053000051C4C200D4B9847041E0CD0301C684302
:1005400001300A4B98472060002806D1201C084B38
:10055000984700E0FEE772B6FCE7E5632664201CDE
:100560000121044B9847201C70BDC0467512000045
:10057000DD120000B1040000F0B5574680B486B02B
:100580000392002801D172B6FEE70027002905D1A9
:10059000026C002A01D072B6FEE700270293019197
:1005A000041C334DA847A36BE26B934213D2201C6B
:1005B0000199029A2F4B9847636A002B07D0201CA1
:1005C00024302D4B9847012801D12C4B98472C4BB8
:1005D0009847012048E0039B002B03D1284B984704
:1005E000002041E0002F03D104A8264B9847013793
:1005F000234B9847244B98471D4B9847636C013316
:1006000001D100236364A36C013301D10023A364EF
:100610001B4B984704A803A91C4B984700281DD1E1
:10062000134B9847A36B9A46E66B154B9847B24518
:100630000ED1201C10300399154B9847201C154BE8
:100640009847154B98470028ACD10C4B9847A9E721
:10065000201C104B9847104B9847A3E7201C0D4BCC
:1006600098470D4B9847002006B004BC9246F0BD59
:10067000751100007D0300000D0F00005D110000EA
:100680008D110000890F0000B50B0000A90F0000BC
:10069000CD0E000015040000E10C000070B500282C
:1006A00001D172B6FEE7002904D1046C002C01D000
:1006B00072B6FEE772B6846B0025C66BB4421CD2DC
:1006C000161C041C1A1C0E4B9847A36C01330ED148
:1006D000636A0135002B10D0201C2430094B984749
:1006E00000280AD0002E07D00123336005E0A36C58
:1006F0000133A364012500E0012562B6281C70BD0A
:100700007D0300000D0F0000F0B54F4680B484B0AB
:100710000192002801D172B6FEE70027002905D119
:10072000026C002A01D072B6FEE700271D1C009162
:10073000041C444EB047A36B002B2BD0E768201C51
:100740000099414B9847002D14D1A36B013BA36343
:100750002368002B02D13D4B984760602369002B32
:1007600014D0201C10303A4B984701280ED1394B39
:1007700098470BE0E760636A002B07D0201C243009
:10078000334B9847002801D0324B9847324B98475B
:10079000012052E0019B002B03D12F4B98470020F2
:1007A0004BE0002F03D102A82C4B984701372A4B6E
:1007B00098472B4B9847234B9847636C013301D1E3
:1007C00000236364A36C013301D10023A364224B93
:1007D000984702A801A9234B9847002827D1194B15
:1007E0009847A36B99461C4B98474B46002B18D152
:1007F0002368002B06D1134B984760681A4B984723
:10080000154B9847201C24300199184B9847201C01
:10081000174B9847174B984700288BD10D4B98479B
:1008200088E7201C124B9847124B984782E7201C00
:100830000F4B98470F4B9847002004B004BC9146DB
:10084000F0BDC04675110000ED030000251000004A
:100850000D0F00005D1100008D110000890F0000D8
:10086000B50B0000A90F000031100000CD0E0000F4
:1008700015040000E10C0000031C08334360012252
:1008800052428260C3600361002303607047C04628
:10089000002303617047C04643685A684A60426853
:1008A0008A605A6891605960416008610368013349
:1008B0000360704710B50C68631C01D103690AE03E
:1008C000031C0833C2681268944204D35B685A68F8
:1008D00012689442FAD25A684A6091608B605960FB
:1008E000086103680133036010BDC0464368826835
:1008F0009A60836842685A6003695A68824201D1EB
:1009000082685A60002202611A68013A1A60186807
:100910007047C046FEE7C04610B5041E0E4B1B686C
:1009200058600E4B1B689C4207D20D4B18680A4B4F
:10093000196804310B4B98470CE00B4B1868064BB9
:1009400019680431074B9847084B1B689C4201D239
:10095000064B1C6010BDC046240300203C03002051
:1009600040030020B508000088020020B4000020E9
:10097000F0B54F464646C0B485B00C9C002801D166
:1009800072B6FEE7052C01D972B6FEE70393161C7A
:100990000F1C02904020594B9847051E00D1A5E03E
:1009A0000E9B002B00D09DE0B000544B984728636D
:1009B000002803D1281C524B984797E0B200A5218C
:1009C000504B9847504BF3189B002A6B9446634456
:1009D000072293439846281C3430391C01324B4B74
:1009E000984700223B23EA54271E052F00D90527EC
:1009F000EF62EF632B1D0193181C454EB047281C76
:100A00001830B0472D610623DB1BAB616D62404699
:100A10000299039A3F4B98472860430701D072B66A
:100A2000FEE70D9B002B00D01D603B4B98473B4AD7
:100A30001368013313603A4B1B68002B1ED1384BEF
:100A40001D601368012B24D1364E77339946B1448B
:100A5000354F301CB84714364E45FAD1334B9946C2
:100A6000181C314EB047324F381CB0473148B047A0
:100A7000314B4A461A60314B1F600AE0304B1B680D
:100A8000002B06D1264B1B68DB6A9C4201D3244B0A
:100A90001D60EB6A2B4A1268934201D9294A136000
:100AA00029490A6801320A60284A1268934201D92A
:100AB000264A13609800C3189B001A48C018019971
:100AC000234B9847234B98471D4B1B680120002B55
:100AD0000ED0134B1B68DB6A9C4209D91E4B98470A
:100AE000012005E00E9B0363181C67E701204042CC
:100AF00005B00CBC90469946F0BDC046751200008A
:100B0000DD12000001650000FFFFFF3F577E00007F
:100B1000910800001D110000751100006403002001
:100B200024030020A8020020790800004C030020C4
:100B300094020020280300208802002040030020A7
:100B40008C0200206803002048030020440300209A
:100B5000990800008D1100005D11000010B584B0EF
:100B6000002300930193029303930C480C499622AF
:100B700052000C4CA047012809D172B601220A4B41
:100B80001A600022094B1A60094B984703E00028BD
:100B900001D172B6FEE704B010BDC04615090000D1
:100BA00048D10000710900008C0200203C030020A5
:100BB00039120000024A1368013313607047C046BF
:100BC00020030020F8B53B4B1B68002B6DD13A4B3E
:100BD0001A6801321A601B68002B20D1374B1B6842
:100BE0001B68002B01D072B6FEE7344B1968344AFB
:100BF00010681860116033490A6801320A601B6886
:100C00001B68002B04D1012252422F4B1A6006E0D0
:100C10002A4B1B68DB68DB685A682B4B1A60264B33
:100C20001A68294B1B689A4243D3244B1B681B68E4
:100C3000002B0BD0214B1B68DB68DD686B681E4AFC
:100C40001268934210D8214F214E10E001225242E7
:100C50001D4B1A602DE0194B1B68DB68DD686B6863
:100C6000154A1268934202D9174A136021E02C1DDD
:100C7000201CB847AB6A002B03D0281C1830134B3C
:100C80009847EB6A3268934201D9114A1360980081
:100C9000C3189B000F48C018211C0F4B9847074BE7
:100CA0001B681B68002BD6D1D0E70C4A13680133B0
:100CB0001360F8BD200300203C03002088020020C0
:100CC0004003002090020020B4000020ED08000046
:100CD00044030020A802002099080000840200209C
:100CE000F8B52F4B1B68002B01D172B6FEE72D4BD8
:100CF00098472B4B1A68013A1A601B680024002B96
:100D000049D1294B1B68002B22D144E0274BDB68DB
:100D1000DF68381C1830264B98473D1D281C244B93
:100D20009847FB6A234A1268934201D9214A13600B
:100D30009800C3189B002048C018291C1F4B9847D7
:100D40001F4B1B68FA6ADB6A9A4202D3012400E057
:100D5000164E3368002BD9D11A4B1B68002B0DD0CF
:100D6000184B1B68002B10D0174D164CA847236852
:100D7000013B23602368002BF8D106E0012C04D04E
:100D8000124B1B680024012B05D100220F4B1A6067
:100D90000F4B984701240F4B9847201CF8BDC046C5
:100DA00020030020751100006403002028030020A8
:100DB000ED08000044030020A8020020990800006C
:100DC0002403002084020020C50B000060030020E3
:100DD0005D1100008D11000010B5041E10D00A4BEB
:100DE00098470A4B1B68E418094B18680430094BF4
:100DF0009847201C084B9847084B9847002801D17A
:100E0000074B984710BDC046B50B00003C030020BF
:100E100024030020ED08000019090000E10C000087
:100E20005D11000010B5244B1B68002B10D1234B23
:100E30001B689A00D3189B00214A9B58002B1AD19B
:100E40001E4B1B68002B0AD01C4A1D4C101C08E0CE
:100E500001221C4B1A602DE00368002B01D172B6F1
:100E6000FEE71368013B136013689900CB189B00E1
:100E70001B59002BF0D0114B1B68114C9A00D11854
:100E800089006118486840684860D21892000832AA
:100E9000A218904205D141689A00D2189200A21877
:100EA00051609A00D3189B00054AD3185B68DA6832
:100EB000054B1A6010BDC0462003002044030020EB
:100EC000A8020020600300202403002038B5002879
:100ED00001D172B6FEE70C1C074D29681831074B8B
:100EE000984728680430064B9847064B1868201826
:100EF000054B984738BDC04624030020B5080000C4
:100F0000ED0800003C0300201909000038B5C36853
:100F1000DD68002D01D172B6FEE72C1C1834201CB0
:100F2000124B9847124B1B68002B13D12C1D201C11
:100F30000E4B9847EB6A0F4A1268934201D90D4A4B
:100F400013609800C3189B000B48C018211C0B4B62
:100F5000984703E00A48211C084B9847094B1B6837
:100F6000EA6ADB6A00209A42404138BDED08000081
:100F70002003002044030020A8020020990800005C
:100F80002803002024030020002801D172B6FEE7C8
:100F9000034B1B680360034B1B6843607047C046EC
:100FA000900200203C03002070B5002801D172B6E9
:100FB000FEE7002901D172B6FEE70D1C041C114B9F
:100FC0009847114B1B6822689A4205D00F4B1B684B
:100FD000012662689A4210D90C4B196860682B6828
:100FE000091A0126994208D2084A1268121A9B1A55
:100FF0002B60201C064B98470026064B9847301C58
:1010000070BDC04675110000900200203C03002016
:10101000890F00008D1100000122014B1A607047FA
:1010200060030020014B18687047C046240300206D
:1010300038B500282FD0C36A174A1268D26A934283
:1010400029D2154A1268D16A0622521A82619A0080
:10105000D3189B00114AD31842699A4217D1051C34
:10106000041D201C0E4B98470B4B1B68DB6AEB6280
:101070000C4A1268934201D90A4A13609800C018BA
:1010800083000648C018211C074B984703E0024B19
:101090001B68DB6AC36238BD24030020A80200205D
:1010A000ED080000440300209908000038B500282E
:1010B0001BD0C36AC26B934217D0041C051D281CA9
:1010C0000A4B9847E36BE3620622D21AA261084AF0
:1010D0001268934201D9064A13609800C018830031
:1010E0000448C018291C044B984738BDED0800007F
:1010F00044030020A802002099080000064A136853
:101100001868203080F30988022080F314883FBCDF
:10111000AE4662B600BDC0462403002010B5031FD2
:10112000802464041C60043B1960183B1A6040383A
:1011300010BDC046084B196808681030F0C8A046BA
:10114000A946B246BB4680F309882038F0C87146EC
:101150000D2001430847C046240300208022520589
:10116000034B1A60BFF34F8FBFF36F8F7047C046BA
:1011700004ED00E072B6044A136801331360BFF354
:101180004F8FBFF36F8F7047B8000020034A13687A
:10119000013B1360002B00D162B67047B8000020FD
:1011A000EFF309800E4B1A6820381060F0C04446F7
:1011B0004D4656465F46F0C008B572B6FFF732FEA0
:1011C00062B60CBC116808681030F0C8A046A94689
:1011D000B246BB4680F309882038F0C81847C0469D
:1011E0002403002008B580225205034B1A6072B612
:1011F000024B984762B608BD04ED00E0C50B000045
:1012000008B50022074B1A600020074B9847FA21C7
:101210008900064B98470138054B18600722054B9B
:101220001A6008BD18E000E0412D0000E158000000
:1012300014E000E010E000E008B50A4B1A68FF2156
:1012400009040A431A601A68FF2109060A431A6052
:10125000054B98470022054B1A60054B9847002024
:1012600008BDC04620ED00E001120000B8000020DB
:10127000FD10000038B5041C430702D007239C432F
:101280000834104B9847104B1B68002B05D10722E0
:101290000E4B083393430C4A13600D4B1B68E41844
:1012A0000C4A944207D8A34207D2074A1568ED18A2
:1012B000074B1C6002E0002500E00025064B984724
:1012C000281C38BDB50B0000083E0020700300202C
:1012D0006C0300208F3A0000E10C0000002801D0D0
:1012E00072B6FEE77047C04670B572B6BFF35F8F47
:1012F000134C00232370134B9847134B984701233B
:101300002370BFF35F8F62B6104D281C1049114C3B
:10131000A047281C10490122A047281C0F49A047BC
:10132000281C0F49A047281C0E49A0470E4B984780
:10133000064E0E4D074C301C291CA047FBE7C0464B
:10134000D000002071010000510300006C02002059
:1013500050D10000613F0000A0D10000B4D10000D6
:10136000C4D10000E4D100005D0B000034D20000C5
:1013700082B06B4600910192C12292009446604473
:1013800006CB06C002B0704782B06B460091019256
:10139000C32292009446604406CB06C002B0704758
:1013A00008B5BF239B00C358002B01D0081C9847E9
:1013B00008BDC04608B5C0239B00C358002B01D010
:1013C000081C984708BDC046F0B585B003930AAC29
:1013D0000027E7570BAC2678C124A4000559002D3F
:1013E00005D104340459E30706D4101C0DE0C224CF
:1013F000A4000459E30702D56310C3585D59039B49
:101400006410001900970196A84705B0F0BDC046CA
:1014100010B5C3239B00C258002A04D10433C3581B
:10142000DC0705D40AE0C4239B00C358DC0702D5BF
:101430005C100459A2585B10C018904710BDC046FC
:10144000F0B557464E464546E0B482B00AAC00259A
:1014500065570BAC2478002C02D0E830FF3067E0F1
:10146000364C0355364C045D002C57D1072915D84E
:10147000002950D0334BC35C5C1C7F252C40EA35DF
:10148000FF35455DA54246D0171C0139C9B2521837
:101490002C497F25AC469A26B60033E08E1E092ED5
:1014A00039DD284BC45C631C7F210B40EA31FF31DE
:1014B000415C092599420AD12DE047463B40013362
:1014C00067463B405746C75D9F4208D123E01D4910
:1014D000FF27B846803FBC46EA37FF37BA46575D1C
:1014E0000419E134FF34E771DCB244540135EDB244
:1014F000B542E2DB0FE0013465462C400137855DE3
:10150000A54208D03D78C318E133FF33DD71E3B263
:1015100043549742EFD1E830FF3009E000240094B3
:10152000BC24A4000459081C111C1A1C2B1CA04725
:1015300002B01CBC90469946A246F0BDE9020000EC
:10154000EB0200006702000010B5041CBB239B00E7
:10155000C35C002B04D0BD239B00C358081C9847D4
:101560000022014BE25410BDEE020000F0B54F46E0
:101570004646C0B487B0051C0EA8002686570FA8A3
:10158000007840B2814610A8007840B2804611A889
:101590000027C757281C14300124644200942F4CA4
:1015A000A0470024A823EC54281CA83044600472EF
:1015B00044728472C460046144618461311C284EA9
:1015C000B047C423EC54281CC430446004724472F5
:1015D0008472C4600461446184614946B047E02379
:1015E000EC54281CE0304460047244728472C4607D
:1015F0000461446184614146B047281CFC30391CB9
:10160000184B9847BD239B00EC50043BEC502C70CA
:101610000833EC54144BEC54144BEC54144BEC5472
:10162000013BEC54134BEC54134BEC54134BEC5464
:10163000023BEC54124BEC540133EC54281C11497E
:101640000022114B9847281C10490022104B984744
:10165000281C07B00CBC90469946F0BD8D3B00009D
:10166000CD3F0000ED3A0000F9020000FA02000050
:10167000ED020000EB020000E9020000EA020000B7
:1016800067020000411400007113000049150000BA
:101690008913000070B5061C0D1C141C011C693157
:1016A000FF317F221E4B9847002C0BD0221C1D4B74
:1016B000F3181D49701811781970013201338342F3
:1016C000F9D11AE04122174BF2544732174BF2542A
:1016D0000023174AB354CD210132B1542239154A9F
:1016E000B1546F3AFF3A14497254144972540121AB
:1016F0007232FF32B154124AB354EAB2301C0021A4
:10170000104B9847104BF35C002B04D0301C042185
:101710000E4B984703E0301C02210C4B984770BDDC
:10172000FD1B000069020000720200006A02000056
:101730006B0200006D0200006E0200006F020000EC
:10174000710200003D1F0000F9020000ED1C0000C6
:1017500008B50022014B984708BDC0469516000009
:10176000BF239B00C1507047C0239B00C1507047EE
:101770009A239B00C25C014BC25470476702000071
:101780009A239B00C35C094A825C9A420BD0C21820
:10179000E132FF32D27901337F210B40EA31FF3150
:1017A000435490B200E0024800B270476702000064
:1017B000FFFF0000074BC35C80339A229200805CDD
:1017C0001B1AD817420E9B187F200340981A40B26C
:1017D0007047C046670200000122064BC254EF3B2F
:1017E000FF3B054A8354054A83540922EA33FF33F9
:1017F000C2547047ED0200006E0200006F0200004C
:1018000010B582B06B46D980074C6B46991D035DBD
:10181000002B06D00B889BB25A1E92B20A80002B76
:10182000F5D102B010BDC046EE02000038B5041C70
:101830000022264BC254BA229200835C02338354A6
:101840002349244B98470122234BE2540A33E35C9B
:10185000002B04D0201C0321204B984703E0201CC0
:1018600001211E4B98471E4BE35CFF2B05D11D4AFF
:10187000A35C20218B43A3540AE01B4BE35C002BA9
:1018800003D14122174BE25402E06122154BE2548E
:10189000BA239B00E15C201C124BE2180023134D7D
:1018A000A847201C0A490B4B9847114BE35C002BBF
:1018B00004D0201C0421094B984703E0201C02217E
:1018C000064B98470022044BE25438BDED0200005D
:1018D000FFFF000001180000EE020000ED1C0000F8
:1018E0006E02000069020000FA02000041200000C0
:1018F000F902000038B5041C2E4BC35C002B22D02B
:10190000BA239B00C35C7C2B52D8C2189A2080005B
:101910008446624451700133DBB2BA229200A35470
:101920007C2B45D9201C244B98470122214BE254A3
:10193000EF3BFF3B214AA354214AA3540922EA3337
:10194000FF33E25434E01F4BC15400231E4A83543A
:10195000013283541D491E4B984701221D4BE2540E
:101960000A33E35C002B04D0201C03211A4B984758
:1019700003E0201C0121184B9847201C0A21174B1B
:10198000E2180023164DA847201C1049104B984719
:10199000144BE35C002B04D0201C04210E4B984711
:1019A00003E0201C02210C4B98470022094BE25413
:1019B00038BDC046ED0200002D1800006E02000088
:1019C0006F0200007202000073020000FFFF0000BF
:1019D00001180000EE020000ED1C0000690200008A
:1019E00041200000F9020000F8B5002A0CD0061CC6
:1019F0000C1C551EEDB201354D19044F2178301CD9
:101A0000B8470134AC42F9D1F8BDC046F518000022
:101A100010B5041CFC30024B9847201C10BDC0467A
:101A2000693A000010B54B68DA0701D40A6803E090
:101A30005A1084580A68A2585B10C018904710BD0D
:101A400070B5041C0E1CA823C356013304D11548DD
:101A500015492822154B9847231CA8331A695B683F
:101A60001360251C1435281C08210022104B9847B0
:101A7000281C311C0F4B98479C235B00E4500E4AF6
:101A80000433E25000220433E250231C3933FF3385
:101A90000A4A5A61201C1D30FF3001210122084BE7
:101AA000984770BD68D2000080D20000893F0000D6
:101AB0008D3C0000A93C000019210000251A0000FF
:101AC000F52F0000F8B5041C171CC02319430D1C8A
:101AD000183BC356013304D1104811492822114B39
:101AE0009847231CA833DA685B681360261C1436F9
:101AF000301C291C0C4DA847301C391CA847A823B2
:101B0000E356013304D1054805492822054B98477F
:101B1000A834236962681A60F8BDC04668D2000024
:101B200080D20000893F0000C13C0000F8B5041CD1
:101B30003F25294041350D43A823C356013304D125
:101B4000114812492822124B9847231CA833DA68FF
:101B50005B681360271C1437381C291C0D4EB047D6
:101B6000381C291CB047C5B2A823E356013304D161
:101B7000054806492822064B9847A834236962681D
:101B80001A60281CF8BDC04668D2000080D2000050
:101B9000893F0000C13C0000F0B587B0041C07215C
:101BA000124B98470390227C0F2702AB9C46674458
:101BB000201CE1683B1C0E4DA847051C201C06217B
:101BC000802207230B4EB0477F2129403B786A468D
:101BD0000C2696570096424242410192201CE26830
:101BE000054DA847E06007B0F0BDC0462D1B0000C2
:101BF00015220000A5200000C913000030B583B0F5
:101C0000041CC16002742F492F4B9847C423E3562C
:101C1000013304D12D482E4928222E4B9847231CEE
:101C2000C433DA685B681360E023E356013304D100
:101C3000264827492822274B9847231CE033DA6897
:101C40005B6813600620244B9847C423E356013396
:101C500004D11E481E4928221E4B9847231CC4331A
:101C60001A695B681360201C0E2100221B4B9847E9
:101C7000201C0F211A4B984708230093201C022197
:101C80001F220023174DA847FF204000124B984702
:101C9000154D201C01211F220023A8470828F8D138
:101CA00001230093201C0421202204330D4DA8475A
:101CB000201C0E210C22094B98470023E37123724C
:101CC00003B030BD40420F00411A000068D200004E
:101CD00080D20000893F000089400000C51A000042
:101CE0002D1B000059210000A5200000F0B54F4633
:101CF00080B486B002900F236B4419701B78DBB25E
:101D0000052B3BD89B00654AD3589F4608231622D3
:101D10006A44137015226A441370B4E00623162235
:101D20006A44137015226A441370ACE0092316222A
:101D30006A44137015226A441370A4E01623162215
:101D40006A44137015226A4413709CE0192316220A
:101D50006A44137015226A44137094E00822162313
:101D60006B441A70053A15236B441A70029BDB7999
:101D7000052B00D18EE0012399463DE00298042115
:101D8000474B9847082316226A44137015226A4469
:101D9000137078E0E023029AD356013304D141480E
:101DA00041492822414B9847029BE033DA685B683F
:101DB0001360FA2040003E4B984764243D4F17259E
:101DC0006D443B4E029801211F220023B847287022
:101DD0002B78082B05D03220B047013CE4B2002C10
:101DE000F0D117236B441B7800229146082B03D0B7
:101DF000029801212A4B984715236B441B780093C6
:101E0000029802211F2200232B4CA0478C24294F2B
:101E100017256D44264E029801211F220023B84742
:101E2000287016236B441B782A78DBB2934205D0C6
:101E30002020B047013CE4B2002CECD116236B44C7
:101E40001B7817226A441278DBB2934203D00298BF
:101E50000121134B98474B46002B0ED0E023029AEA
:101E6000D356013304D10F480F4928220F4B98470E
:101E7000029BE0331A695B6813600F236B441B7885
:101E8000029AD37106E0029BDB79052B82D00023F6
:101E90009946B1E706B004BC9146F0BDCCD2000033
:101EA000A113000068D2000080D20000893F00002A
:101EB00089400000A52000005921000070B5041CD5
:101EC0000D1C0B072BD5C379991EFD22114202D19F
:101ED000154B984723E0012B07D10021134B98475E
:101EE000217A201C124B984719E0032B17D10221AD
:101EF000E02202330F4EB047032806D007D305383F
:101F0000434243410321C91A02E0012100E00021BC
:101F1000201C064B9847217A201C054B9847201C13
:101F2000291C054B984770BD991B00001114000037
:101F3000ED1C0000A5200000B5130000F0B54746D9
:101F400080B482B0051C082964D88900354B5B58E1
:101F50009F46D4B2231C0B3B0F2B07D800940821BB
:101F60001F220023304EB0472C7156E002212F4B28
:101F7000984752E0D2B2131C1133DBB2142B09D8AC
:101F800042712B4AD35C009305210F220023264C7B
:101F9000A04742E00221254B98473EE0D2B2032AF7
:101FA00007D8827100920821602205231E4CA047A9
:101FB00033E002211D4B98472FE0D1B201721D4B37
:101FC00098472AE094B2E2B222211B4EB047220A7F
:101FD000281C2321B04720E094B2E2B22021164E03
:101FE000B047220A281C2121B04716E0171C0832EE
:101FF000141C2426104B98463A78281C311CC047E4
:102000000136F6B20137A742F6D106E0D1B20B4B4A
:10201000984702E00221054B984702B004BC904665
:10202000F0BDC046E4D2000059210000A113000019
:1020300008D30000ED1C0000C51A0000BD20000000
:1020400070B5041C0E1C151C937801339370E023AB
:10205000C356013304D10F480F4928220F4B98472C
:10206000231CE0331A695B681360E023E3560133F5
:1020700004D1084808492822084B9847231CE0331C
:10208000DA685B681360201C311C2A1C044B9847DB
:1020900070BDC04668D2000080D20000893F0000B9
:1020A0008D21000038B5151C1C1C034B9847284097
:1020B0002041C0B238BDC0462D1B0000F8B5061C3B
:1020C0000C1E342C0FD0342903D8002533290BD013
:1020D00007E0542903D00125942905D001E0032508
:1020E00002E0FF2411E00225301C02210322084FE8
:1020F000B847301C0C21074B98470323021C9A4316
:102100001543EAB2301C0C21B847201CF8BDC0466C
:10211000C51A00002D1B000038B5041C0F210C4B04
:102120009847051C430704D5201C0621084B9847F7
:1021300020702B0707D52378002B04D1201C062103
:10214000034B98472070201C291C024B984738BD30
:102150002D1B0000BD1E0000F0B583B0051C161C31
:102160001C1C08AB1F780191064B9847B043C0B2C6
:102170003A1CA24032400243281C0199024B984766
:1021800003B0F0BD2D1B0000C51A0000F0B583B0F0
:10219000061C0F1C151CA823C356013304D1194873
:1021A00019492822194B9847331CA833DA685B6811
:1021B000136014239C46B444634601936046602137
:1021C000134CA0470198391CA0472C1C013FFFB2BB
:1021D0000137ED190E4F21780198B8470134AC4210
:1021E000F9D1A823F356013304D106480649282221
:1021F000064B9847331CA8331A695B68136003B019
:10220000F0BDC04668D2000080D20000893F0000C7
:10221000C13C0000F0B557464E46C0B483B0071C21
:102220000191151C9946A823C356013304D12448B3
:1022300024492822244B98473B1CA833DA685B6862
:10224000136014239C46BC44634666460093181CE6
:1022500020211E4CA047301C0021A047C6B2AE4230
:1022600018D8019A141C731EDBB20133D518174B12
:102270009A4600980021D04720700134AC42F8D132
:102280004B46002B08D000980021104B98474B4636
:10229000187001E080231E43A823FB56013304D1AC
:1022A000074808492822084B9847A8373B697A68AD
:1022B0001A60301C03B00CBC91469A46F0BDC04673
:1022C00068D2000080D20000893F0000C13C0000BD
:1022D00041607047021CD52080001358591C1150D2
:1022E000D3183C38844663449879D4239B00D35850
:1022F000994203D3D5218900535005E0312903D9F0
:102300000021D5239B00D1507047C04608B54368D3
:10231000002B04D0011C1A68D268181C904708BD15
:1023200010B54368002B05D00A1C011C18684469CD
:10233000181CA04710BDC04610B54368002B05D03F
:102340000A1C011C18680469181CA04710BDC0466F
:1023500010B5041C034B083303600830024B984748
:10236000201C10BD20D30000111A000010B5041C61
:10237000034B9847201C034B9847201C10BDC046B8
:1023800051230000A758000038B50D1C0122084B4E
:10239000C2540830041C074B9847201C291C064BCC
:1023A0009847201C054B98470220054B984738BD9D
:1023B0001D030000D9170000F51800002D180000BB
:1023C000D90D0000F0B5474680B482B0061C082342
:1023D0009C46844463460193144F154B984611E084
:1023E000D425AD007459631C73510198C04734194A
:1023F000C6239B009C466444A0717359312B01D9BC
:10240000002272510198041CB8470028E8D1201C12
:10241000084B98477068002803D003689B68311CFC
:10242000984702B004BC9046F0BDC046B517000006
:10243000811700007117000070B500290DD0161C1F
:102440000D1C0830041C054B9847201C291C321C0D
:10245000034B9847201C034B984770BDD9170000C9
:10246000E91900002D18000008307047F0B585B05C
:10247000041C00254560134B08330360061C083616
:102480003F230093103B01931B3B02930C330393B8
:10249000301C3E21532232330B4FB847C7239B00D9
:1024A000E5540A4BE5543333E5500433E550301C12
:1024B0000749084B9847301C0749084B9847201C90
:1024C00005B0F0BD20D300006D1500001D03000015
:1024D0002925000069170000112500006117000080
:1024E00010B5084B1B68002B08D1D6208000064B86
:1024F0009847041C054B9847024B1C60014B186819
:1025000010BDC0460C3E0020AF5800006D240000F6
:1025100010B5041C034B984703681B6A211C98479D
:1025200010BDC046E124000038B5041C114B98478B
:10253000051C630706D50122C7239B00C25423074D
:1025400007D415E0230713D5C7239B00C35C002BDA
:1025500008D02B689B69281C98470022C7239B0042
:10256000EA5405E00368DB6998470022024BEA540D
:1025700038BDC046E12400001D03000008B54368D3
:10258000002B04D0011C1A689268181C904708BDE3
:1025900010B54B68DA0701D40A6803E05A10845872
:1025A0000A68A2585B10C018904710BD10B5041CF3
:1025B000084B08330360084B8360191C1831E42270
:1025C00081504C3304328350E430044B9847201C34
:1025D00010BDC04650D3000078D70000113F000066
:1025E00010B5041C034B9847201C034B9847201C34
:1025F00010BDC046AD250000A758000008B5E43066
:10260000014B984708BDC046353F000008B5E4308F
:10261000014B9847C0B208BD4D3F000008B541606E
:10262000002810D0B023C0500A4A0433C250002200
:102630000433C250084A0C33C250683000210122D2
:10264000064B984704E0682000210022034B98477E
:1026500008BDC0467D250000912500003D380000E2
:1026600070B5041C00254560054B08330360083035
:102670000023044EB047FC23E550201C70BDC0462B
:1026800050D30000053D00007047C0467047C0466B
:102690007047C0467047C04638B54468002C08D023
:1026A000081C23689D680B68DB689847011C201C88
:1026B000A84738BD10B5031C00291CD0081C1C1CE1
:1026C0000B68DB6898479A21490063585A1C62508E
:1026D000E31818723E23FF33E35C834204D134399C
:1026E000FF399E235B00E1542C23FF339A4202D929
:1026F00000220933E25010BDF8B54368002B24D006
:102700009E235B00C35C002B1FD0041C9C256D0026
:102710002C26FF36002763595A1C6251E318197A98
:10272000B24200D967519A235B00E35862599A423A
:1027300002D19E235B00E754606803689B6898475A
:102740009E235B00E35C002BE5D1F8BD9E235B007C
:10275000C05C704738B5031C002928D0081C1C1C1D
:102760000B68DB6898479A225200A358591CA15065
:10277000E31818723E23FF33E35C83420DD1343AF1
:10278000FF3A9E235B00E2540433E058002804D053
:10279000002100220023064DA8479A235B00E2583F
:1027A0002C23FF339A4202D900220933E25038BD6C
:1027B0009D0600007047C04610B5041C014B9847A9
:1027C000201C10BDA75800007047C04610B5041C5F
:1027D000014B9847201C10BDA758000010B5041CE1
:1027E000014B9847201C10BDA7580000024B08332E
:1027F000036041607047C04698D3000010B5041CC8
:1028000041600B4B0833036000239A214900435079
:1028100004314350043143543E23FF33C254083043
:10282000002196225200034B9847201C10BDC04641
:10283000B8D300000165000038B5041C151C1A1C33
:10284000044B9847044B08332360A0235B00E550FA
:10285000201C38BDFD27000070D3000008B572B6FB
:10286000962001F01DFC962001F01AFCF8E7C04606
:102870000B4A30B594689268231C002A0CD10023BF
:1028800080221D5992059A1804331560B02BF7D198
:102890008023034A9B05936010308000C15030BDF7
:1028A00000ED00E008B5044B1A78002A03D101328C
:1028B0001A7000F0E1FA08BD103E0020036870B500
:1028C0001B6900210122041C9847061C431C0ED0E2
:1028D000236800211B690222201C9847051C2368DD
:1028E000201C1B69311C00229847281C70BDFDE785
:1028F00008B503480421052200F0EAFD08BDC046E2
:10290000BC3F0020094B10B508330360084B002181
:102910005A1CFF3202E00433934206D01C68844202
:10292000F9D1196004339342F8D110BDF8D30000F7
:10293000143E0020F0B5474680B40E1C82B03449E6
:10294000051C05F063FA041E08D1324B1B68002BEE
:102950000FD0201C02B004BC9046F0BD281C2E49AC
:1029600005F054FA002807D12A4B01241B68002BDC
:10297000EFD1FFF7BDFFECE7281C284905F046FA28
:10298000002824D0264F00243B1C03E001340433EC
:10299000402C22D01A68002AF8D12B783A2B30D05C
:1029A0006846291C01F000F8684601F057F8002835
:1029B00013D0684601F034F8002811D0684601F0C1
:1029C0003BF8002809D0A300F8500334C1E7114BAD
:1029D00002241B68002BBCD1CBE701246442B8E77A
:1029E000684601F00FF8051EF7D0036868469B683B
:1029F000984601F005F80B4A011C3240281CC047DC
:102A0000DFE7281C08496A4605F08AF90098D8E7EC
:102A1000E0D30000603F0020F0D30000E8D30000C6
:102A2000143E0020FFFFFEFF24D4000008B5031C65
:102A30000020022B0ADD0749033B9B005A585850DF
:102A4000002A04D01368101C5B68984708BD012059
:102A50004042FBE7143E0020F8B50C1C171C02286E
:102A600012DC104B1B68002B01D1FFF741FF002F38
:102A700008D00D4DE6192178281C013400F074FFB0
:102A8000B442F8D1381CF8BD0338084B8000C05858
:102A9000002803D003681B689847F4E701204042F0
:102AA000F1E7C046603F0020BC3F0020143E0020FC
:102AB00010B50C1C022809DC0C4B1B68002B0FD036
:102AC0000B4800F025FF2070012010BD0338094B92
:102AD0008000C058002806D003689B689847F4E738
:102AE000FFF706FFECE701204042EEE7603F0020E1
:102AF000BC3F0020143E002008B5031C0120022B1F
:102B000008DD033B054A9B009858002803D0036862
:102B1000DB68984708BD01204042FBE7143E0020D7
:102B200008B5031C0020022B08DD033B05489B0071
:102B30001858002803D003681B69984708BD012076
:102B40004042FBE7143E002008B5022804D8802349
:102B500000209B014B6008BD03F0A2F8092303602D
:102B600001204042F7E7C04608B5012003F09EF877
:102B70007047C04608B5FFF795FEFFF7F9FFFEF76F
:102B8000B3FB08BD074A13681818EFF308818842A1
:102B900002D21060181C70470C220120024B4042E8
:102BA0001A60F8E7BC0000206C40002008B500283F
:102BB00000D1FEE7FFF752FEFBE7C04608B5002153
:102BC00004F0AFFF08BDC04608B503F0DFF908BD4B
:102BD000FEE7C0461648174910B588420DD0164B7F
:102BE00099420AD2CA43D31800229B0801339B00A2
:102BF00084588C5004329A42FAD11049104B9942B1
:102C00000BD2CA430020D31800229B0801339B003B
:102C10008C18043220609A42FAD1FF21094B0A4AEB
:102C20008B43936003F0C6FBFFF7A4FFFEE7C046AB
:102C3000F8E30000B00000207401002074010020BF
:102C4000704000200000000000ED00E00823064A6C
:102C500091690B43936101230121044A1370137896
:102C60001942FCD17047C04600040040000C0040EF
:102C700070B50D784B782D02041C0543002B02D053
:102C80008023DB021D434B7A002B02D080231B03E1
:102C90001D434E68012E0FD9731E334029D1022ED9
:102CA00005D00222013352009642FBD81B02184382
:102CB0008023041C5B031D430B7A002B02D080236E
:102CC0009B031D430E4A53780D4E5BB2002BFADB7B
:102CD00000F0DCF9B4607378094A5BB2002BFADBD0
:102CE000802351685B020B401D43556000F0ECF9F6
:102CF00070BD802334029B0204431D43DCE7C046C1
:102D0000000C004010B5041C0B4A53785BB2002B3A
:102D1000FBDB00F0BBF9094B07491C704B78064AF6
:102D20005BB2002BFADB8021536849020B435360EE
:102D300000F0CAF910BDC046000C0040040C004071
:102D4000F8B5071C194A53785BB2002BFBDB00F087
:102D50009DF9174B154A1F705378144C5BB2002B2A
:102D6000FADB6068C004C00E01F036FB061C104B95
:102D70001F7065680F4BED02ED0F1F7063785BB23B
:102D8000002BFBDB094B9968090A8CB200F09CF917
:102D9000002D03D0611CCE40301CF8BD012CFBD9A6
:102DA000301C211C02F09CFD061CF5E7000C0040C5
:102DB000040C0040080C004010B5041C00F066F93B
:102DC0008021054B054A1C705388C9010B43538071
:102DD00000F07AF910BDC046020C0040000C004023
:102DE00010B5041C00F052F980200E4B0E4A1C70E6
:102DF00054880E4B518824050B40538051880C4B4E
:102E0000240F0B405380C001538807490342FBD174
:102E10004888064B2202034013434B8000F054F9CC
:102E200010BDC046020C0040000C0040FFF0FFFF48
:102E3000FFBFFFFF10B50C7824020443FFF7D0FF5B
:102E4000014BA4B25C8010BD000C004010B5041C06
:102E500000F01CF9054B1C70054B5C8800F034F940
:102E60002405240F201CFFF76BFF10BD020C00404F
:102E7000000C00407047C04608B501F041FBFFF769
:102E8000F9FFFFF7F7FF01F01FF9FFF7F3FF08BDA8
:102E9000F8B546464F46184BC0B400240126984664
:102EA000164D174F321CA240164B196911421AD009
:102EB0001A6143460022E05C9146C30904D1124ADC
:102EC00043099146DB01994440B201F0FDFB4B46BA
:102ED000196A3B680840411E88410221091A002BEB
:102EE00001D02868984701340435102CDAD10CBC85
:102EF00090469946F8BDC046C0000020183F00200B
:102F0000143F00200018004000440041F8B54F462F
:102F10004646041CC0B4151C0E1C9946002832D02D
:102F2000731C2DD01B4BA6601D6010239846A04437
:102F3000404601F0F9F800270123266167612376F6
:102F4000E776301C144901F063F8051C431C17D0C8
:102F5000C0B2414601F0F2F8104B042010495E5512
:102F6000FFF786FC10220F4B00201A604A460E4BDA
:102F7000E560AD00EA5027700CBC90469946F8BD5C
:102F800001204042F8E7094809493D2200F0FCFFD2
:102F9000C6E7C046143F00204CDB0000C000002004
:102FA000912E000000E100E0183F002034D4000022
:102FB00038D4000010B5041E0ED0E3680022D9B248
:102FC0001F2900D8074A002007499B0058500123B9
:102FD000E1688B40936010BD04480549622200F00F
:102FE000D3FFEAE700180040183F002034D4000067
:102FF00038D4000070B5041C0D1C161C002838D0F5
:10300000E0680022C3B21F2B00D81D4A002E0CD04E
:10301000012D24D0022D27D001238340D3602378B3
:10302000E068032B08D1E37610E02378012D13D05C
:10303000022D11D0032BF6D0012BF4D0022BF2D0AD
:103040000023E376013383409360E068211CC0B223
:10305000103101F073F870BDAB432370EAE7012330
:1030600021780B432370D7E7022321780B43237089
:10307000D2E7044804496A2200F086FFC0E7C04650
:103080000018004034D4000038D400000B4B1A68FC
:10309000002A05D1EFF31081002905D008490A70F4
:1030A0001A6801321A60704772B6BFF35F8F054A23
:1030B0001170034A01311170F2E7C046583F0020F9
:1030C0005C3F0020D0000020084B1A68013A1A60CB
:1030D0001B68002B09D1064B1B78002B05D0012261
:1030E000044B1A70BFF35F8F62B67047583F0020E1
:1030F0005C3F0020D000002038B5104A104D147EEF
:103100006868937DE4B2DBB2002816D01C4002232D
:10311000234206D013760B4B1B68002B01D00121F4
:1031200098470423234208D0044A1376054B1B68B2
:10313000002B02D068680021984738BD000C00427F
:10314000643F00207C3F002038B5104A104D147EAB
:103150002869937DE4B2DBB2002816D01C4002231C
:10316000234206D013760B4B1B68002B01D00121A4
:1031700098470423234208D0044A1376054B1B6862
:10318000002B02D028690021984738BD0018004262
:10319000643F00207C3F002038B5104A104D147E5B
:1031A0002868937DE4B2DBB2002816D01C400223CD
:1031B000234206D013760B4B1B68002B01D0012154
:1031C00098470423234208D0044A1376054B1B6812
:1031D000002B02D028680021984738BD0008004223
:1031E000643F00207C3F002038B5104A104D147E0B
:1031F0006869937DE4B2DBB2002816D01C4002233C
:10320000234206D013760B4B1B68002B01D0012103
:1032100098470423234208D0044A1376054B1B68C1
:10322000002B02D068690021984738BD001C00427D
:10323000643F00207C3F002038B5104A104D147EBA
:10324000A868937DE4B2DBB2002816D01C400223AC
:10325000234206D013760B4B1B68002B01D00121B3
:1032600098470423234208D0044A1376054B1B6871
:10327000002B02D0A8680021984738BD00100042FA
:10328000643F00207C3F002038B5104A104D147E6A
:10329000E868937DE4B2DBB2002816D01C4002231C
:1032A000234206D013760B4B1B68002B01D0012163
:1032B00098470423234208D0044A1376054B1B6821
:1032C000002B02D0E8680021984738BD0014004266
:1032D000643F00207C3F0020F0B54F464646C0B416
:1032E000041C85B000285CD0006801F05DF80E2554
:1032F000002314306D44C0B22B80A7696669FFF7C4
:10330000A5FD1023011C0093381C2A1C002300F08B
:1033100063FF2268D369002BFCD12B889381E2687C
:10332000236913431D22A256013228D0C025AD02C5
:103330001D431C23E356013319D0A268FF2A1BD07A
:10334000294B15431E43002C25D02268D369002B3E
:10335000FCD15560002C18D02268D369002BFCD119
:103360000020166005B00CBC90469946F0BD1F4B7E
:10337000A2681D40FF2AE3D11D4B1E43E3E71D4D0C
:103380001D4080235B021D43D3E71B481B493F229E
:1033900000F0FAFDE0E7184818493F2200F0F4FD7C
:1033A000D3E7154B154F181C391C9C22984600F08A
:1033B000EBFD206800F0F8FF0E25A36914306D4482
:1033C000C0B299462C806669FFF740FD1023011CAE
:1033D00000932A1C4846002300F0FEFE4046391C9C
:1033E0003F2200F0D1FD94E704000041FFFFFEFF03
:1033F00004000040FFFFFDFF34D40000B0D4000003
:1034000070B5051C86B000283CD01C201D2100236F
:1034100028566956029303930493059301F0A0FA8A
:103420000024061C1C202B191856311C01F028FB07
:10343000A30002AA0134D050042CF3D1039B002036
:103440000193013B022B02D8114A9B0098581E227F
:10345000AB5E013308D0029B002B03D1049B019388
:10346000022B08D006B070BD029B022BFAD180233C
:103470005B021843F6E7059B032BF3D180239B02E5
:103480001843EFE703480449712200F07DFDBCE7D3
:10349000A4D4000034D40000B0D4000010B5041E41
:1034A0000BD0FF23A3600023E360236196239B01DD
:1034B000A36188235B03636110BD03480349E122D4
:1034C00000F062FDEDE7C04634D40000B0D4000047
:1034D000F0B54E4645465746E0B4041C84B00E1C79
:1034E000151C002800D19DE0604F3B78002B00D1D7
:1034F00083E0201CFFF7D2FFFF232677A377E37733
:103500006577201CFFF77CFF291C071C301C01F08D
:1035100027FA431C17D00F2505400120291C4042E3
:1035200001F0D0FA061C021C2060002C6AD0D3697E
:10353000002BFCD1022113688B4313600122236806
:103540001868024205D004B01CBC90469946A246B9
:10355000F0BD1B6819408846F5D1A81C824044493B
:103560000B6A1A430A62424602AB1A701423994648
:10357000A94402A94846FFF75DFC4846FFF71CFC3A
:103580000021002000F0F0FE6761201CFFF7A4FE80
:10359000424602AB5A719A71DA712023271C9A466F
:1035A0001C37A2440023FB56994601330FD04846EE
:1035B000291C01F041FA02ABC0B21871FF2806D0F5
:1035C0006A464B46D371D07903A901F067F80137F9
:1035D0005745E7D1274B9E4230D0002C28D0236896
:1035E000DA69002AFCD1002C31D0DA69002AFCD13A
:1035F000196802320A431A60A5E7FFF73DFC012370
:103600003B7076E71C4B562299461C4B4846984621
:10361000191C00F0B9FC3F224846414600F0B4FCBA
:10362000226884E714481549ED2200F0ADFC5BE701
:10363000114812493F2200F0A7FCD0E70122104BAD
:10364000211C1A600F48473202F051FFC5E70A4EAD
:103650000A4D301C291C4A3200F096FC301C291CF3
:103660003F2200F091FC2368BFE7C046103E0020D7
:10367000000400400008004234D40000B0D4000030
:10368000603F0020BC3F002010B5041E21D02368FD
:10369000134A93421BD00ADD124A93420FD0124ABA
:1036A000934212D0114A93420BD0002006E0104AF8
:1036B000934208D00F4A9342F7D10F4810BD0F48EC
:1036C000FCE70F48FAE70F48F8E70F48F6E70F481E
:1036D000F4E7AC220E480F49920000F055FCD6E703
:1036E0000010004200180042001C0042001400427A
:1036F00000080042000C0042F9300000493100008F
:103700008932000099310000E931000039320000AF
:1037100034D40000B0D40000F0B54746041C80B497
:103720000E1C151C002820D0184B19602268184B5D
:103730009A4218D00DDC174901238A4203D016495A
:1037400001338A420DD1154A9B009D5004BC90461E
:10375000F0BD134904238A42F5D0124901338A424D
:10376000F1D00023EFE70323EDE70F4BB322984698
:103770000E4F181C391C920000F006FC034B40460B
:10378000391C0B4A1E6000F0FFFBCFE77C3F002096
:1037900000140042000C004200100042643F002070
:1037A00000180042001C004234D40000B0D40000D5
:1037B0006602000010B5041E24D02368154A934207
:1037C0001ED012DD144A934218D0144A0E209342A0
:1037D00009D0134A0238934205D012481249134ABD
:1037E00000F0D2FB092040B210BD114A09209342DB
:1037F000F9D0104A01309342F5D0EEE70D20F2E700
:103800000B20F0E7B5220C480749920000F0BCFB02
:10381000D3E7C0460010004200180042001C0042DE
:1038200000140042A0DE0000B0D40000E30200005B
:1038300000080042000C004234D40000F0B54746B6
:10384000041C80B40E1C171C00283FD0201CFFF75E
:103850001BFF8046201CFFF7ADFF051C002F11D079
:10386000002E23D0012E1DD0281C4146FFF700F862
:103870001F231D401E3BAB401D1C174B1D6004BC8D
:103880009046F0BD002E15D0012E02D102222368F1
:103890001A751F231D401E3BAB401D1C80230E4A82
:1038A000D550ECE7022223689A75DDE704222368ED
:1038B0009A75D9E7042223681A751F231D401E3B01
:1038C000AB401D1C8023044AD550D8E70348044967
:1038D000044A00F059FBB9E700E100E034D40000ED
:1038E000B0D40000EB02000010B5041E04D0236821
:1038F000187E4007C00F10BD02480349034A00F07C
:1039000043FBF4E734D40000B0D4000023030000EC
:1039100010B5041E08D0201CFFF7E6FF0028FAD0DF
:103920002368188D80B210BD02480349034A00F095
:103930002BFBF0E734D40000B0D4000011030000EA
:1039400010B5041E04D0012023681B7E184010BD52
:10395000CC2203480349920000F016FBF3E7C0466F
:1039600034D40000B0D4000038B5041C0D1C00286D
:103970000ED0ED05ED0D201CFFF7E2FF0028FAD078
:10398000022223681D8521680B7E1A42FCD038BDB7
:1039900002480349034A00F0F7FAEAE734D400008A
:1039A000B0D400001903000038B500230360436061
:1039B0000B78041C2F2B01D0201C38BD4B78002B1A
:1039C000FAD0481C20604B782F2B14D0002B15D038
:1039D000031C01E0002A0CD05D1A013323601A7821
:1039E0002F2AF7D1291C0133236001F0C3FC60604A
:1039F000E2E7291CF9E7031C0021F4E70021F4E7C2
:103A000000687047436810B5002B07D0041C181CD1
:103A100001F0D0FC012801D1606810BD0020FCE756
:103A2000406808B5002805D001F0C4FC4342584165
:103A3000C0B208BD0020FCE7436810B5002B0AD0D7
:103A4000041C181C01F0B6FC002804D16068002892
:103A500001D0043810BD0020FCE7C0464068431E7A
:103A60009841C0B27047C04610B5041C034B0833E0
:103A700003602030FFF79EFA201C10BD48D70000DD
:103A800010B5041C054B083303602030FFF792FA91
:103A9000201C01F008FF201C10BDC04648D70000C4
:103AA00008B501290CD0022909D1836E002B12D050
:103AB000426D002A03D0011C101C5831984708BDE4
:103AC000036D002B0CD0C26B002AF8D0011C101C17
:103AD00040319847F3E7436D002BF0D09847EEE76D
:103AE000C36B002BEBD09847E9E7C04638B5164BBF
:103AF0002022083303600023041C0D1C0371836023
:103B0000037343738373036143618361C3618354AC
:103B1000183243628362C362036343638354013296
:103B200083540132835401328354C3630365436574
:103B30008366064A231C2030FFF7E8F9201D291C64
:103B400000F034FA201C38BD48D70000A13A00002C
:103B50007047C04610B5002808D014685368002C80
:103B600005D0DA0705D45B10C018A04710BDDA07EE
:103B7000FCD55B10C01803681C59A047F6E7C04687
:103B800010B5041C01F08FFE201C10BDF0B5564688
:103B90005F464D46444691460022F0B4051C041C85
:103BA00087B0039310AB9A56264B8A46083308C554
:103BB0009346281C0021402202F0A2FC0023221C74
:103BC0000493059304A9483241C941C21E4A2265A3
:103BD0001E4A62651E4AA265221C48322366E465BD
:103BE00062661C4AA266BFF36F8FBFF34F8F8022BD
:103BF000E366A3500432A3540432904641468C2716
:103C0000803A625090265A46E351134B0092A351DA
:103C1000281C51464A46039B01F0B2F84346E2593C
:103C2000E158281C002301F0A3F9281CA15901F038
:103C300053FA201C07B03CBC90469946A246AB46BE
:103C4000F0BDC04658D700001FB504247C440FCCFB
:103C500098471FBD553B000040420F0070B50A4D0C
:103C60002B6883420FD08823061DC1580433C258E5
:103C7000041C0023301C01F07BF99023301CE15818
:103C800001F02AFA2C6070BD803F002008B588231F
:103C9000C1500433C2500022024B1A60FFF7DEFF0E
:103CA00008BDC046803F002008B590230022C150C7
:103CB000024B1A60FFF7D2FF08BDC046803F0020CC
:103CC00038B50D1C041CFFF7C9FF291C201D01F08D
:103CD0007FFA38BD08B500F0B5F808BD08B4024B4E
:103CE0009C46DC3808BC6047D53C000008B500F0B5
:103CF000AFF808BD08B4024B9C46DC3808BC6047EE
:103D0000ED3C000038B5041C1D1C00F043F8201CDD
:103D1000291CDC3000F0DAF8064B201C1A1C191C98
:103D200008322260DC222031A15054330432A350E7
:103D300038BDC04670D7000008B54B005918C900FF
:103D400043181A1CB8325268A8331B68002A06D0E0
:103D5000002B03D04118AC31181C904708BD002B34
:103D6000FCD09847FAE7C04610B5002808D0146880
:103D70005368002C05D0DA0705D45B10C018A047A3
:103D800010BDDA07FCD55B10C01803681C59A047AA
:103D9000F6E7C046F0B5474680B4244B82B00360D6
:103DA0000025031C171C6A46041C00950195083366
:103DB000884603CA03C31E4B23611E4B63611E4B1F
:103DC000A361231C08332562E46163621B4BA36279
:103DD000BFF36F8FBFF34F8F5C23261CE562256412
:103DE0006564A5656036E5540133E554301C002157
:103DF000482202F085FBA8239622E5501433E550B3
:103E00000433E5501433E55092010433E250301C82
:103E100041463A1CFFF75CFB301C0949221CFFF7A6
:103E20007BFC201C02B004BC9046F0BDD8D700003B
:103E30001FB504247C440FCC98471FBD693D00008A
:103E4000393D000008B56030FFF762FD08BDC0468F
:103E500010B50C1C6030FFF787FD201C10BDC0465C
:103E600000207047F8B58E18051C0F1C0C1EB442BC
:103E700002D10AE0A64208D001342B68621E5B6AB8
:103E80001178281C9847431CF4D1E01BF8BDC046AC
:103E9000F8B58E18051C0F1C0C1EB44205D10AE0A3
:103EA0000134631E1870A64205D02B68281C9B6A3B
:103EB0009847431CF4D1E01BF8BDC0460020704772
:103EC00000207047002070470020704710B5041C88
:103ED00084B001F071FA0B4B01A81A1C3C336360EB
:103EE00000230832636122600749221C03F0F6FEBA
:103EF000064901A802F046F96061FEF75FFE201C4A
:103F000004B010BDE0D7000024D4000024D8000085
:103F1000074B10B51A1C041C08323C330260436086
:103F2000406901F031FF201C01F05AFA201C10BD3D
:103F3000E0D7000038B50D1C041C406901F0E4FF17
:103F4000281C616902F050F938BDC04610B5041C48
:103F5000406901F0D9FF6069FEF736FE10BDC0462A
:103F60000EB430B5041C82B005AB20CB4069019380
:103F700001F0CAFF6069291C019A02F09FFC02B09F
:103F800030BC08BC03B0184738B5051C0C1C131C0A
:103F9000291C0248221C00F003F838BD28D8000074
:103FA0000FB4012008B501F081FEC04638B50D1CE4
:103FB000041C00F0A1FB6B1C07D0201C002100F0AA
:103FC00003FC201C012100F0D7FB38BD38B50D1CC7
:103FD000041C00F091FB6B1C0ED00023E356013350
:103FE0000BD0E3686268201C01211A6000F0ECFB32
:103FF000201C002100F0C0FB38BD034803492822E3
:10400000FFF7C2FFEDE7C04668D200005CD80000B1
:1040100002E0834206D00C310023CB565A1CF8D163
:10402000181C70474868FCE7021C08B5531C03D1F4
:104030000BE09A420AD00C310023CB56581CF8D121
:104040000448FFF7ADFF0120404208BD4868431C0B
:10405000FBD1F5E7FCD80000021C08B5531C03D1C6
:104060000BE09A420AD00C310023CB56581CF8D1F1
:104070000448FFF795FF0120404208BD8868431CB3
:10408000FBD1F5E71CD9000038B5051C00F0C2FDD6
:10409000041C00F0BFFD001BA842FAD338BDC04687
:1040A00008B5FA239B005843FFF7EEFF08BDC04652
:1040B0000223044A11780B43137053785BB2002B30
:1040C000FBDB704700180040402300B5124A83B064
:1040D000916905200B439361002301A90B70FEF742
:1040E000A9FE0520FEF768FE01230C4A11780B4358
:1040F000137053785BB2002BFBDB094B0022191CB9
:10410000403104C38B42FCD11022064B1A60FFF7EA
:10411000CFFF03B000BDC0460004004000180040BF
:104120000440002000E100E000230122036043601E
:104130008372023302724272C3727047F0B5002379
:104140000C1C83B001A94B70CB702379051C0B703C
:10415000237A20788B70002600F0A0FA1F2D00D85B
:10416000124E0722A37A2A409200E07A002B01D057
:10417000082318430F279740EB089B00F318996911
:104180009040B9430A1C02439A61637A002B06D11E
:104190000122AA4073699343736103B0F0BD012209
:1041A000AA40151C73691D437561F6E700180040AD
:1041B00010B5490840230024814202D2181C10BDCA
:1041C0001C1C631C091A9BB28842F9D94023FF2C9E
:1041D000F4D814800023F1E7F0B556464D46444626
:1041E0005F46F0B4041C251C87B010A80678402058
:1041F00075438D4206D907B03CBC90469946A2460D
:10420000AB46F0BD04920D1C221C002B3FD1301C8C
:10421000002101F0E7FC002383463F2101209C465A
:104220009A462E1C00270022002380460C1C24E006
:104230004146A9400D1C4146A140101C8946191C4D
:10424000801859410B1C021C5946009201932942C7
:1042500003D040461043021C019B9F420BD801D162
:10426000964208D861464846014350462843921B6F
:10427000BB418C468246013C10D32021494265183F
:10428000D6D520210D1B4146E9400D1CD3E7002463
:10429000012B07D0049B00201C80ACE763465C42E6
:1042A000240CF7E74B0F1C1CCB009846301C002356
:1042B000002101F097FC00239C4620339B46634677
:1042C000A1460090019103936B461B7B0020059350
:1042D000002300219C463F2227E001249C40231C10
:1042E0000127464697403E40041C0D1CB2464E46F0
:1042F00024184D4133405646201C291C334304D01A
:104300000121231C0B43181C291C019B8B420AD83A
:1043100002D1009B834206D8009B019CC01AA14198
:1043200063463B439C46013A09D320235B42D318A2
:10433000D3D55B4601249B1ADC40231CD0E76146A1
:10434000039A8B1A0749DB088B4206D9131C0133E9
:104350000393082BB8D140204DE7059A54031C4322
:10436000A4B297E7FF1F000030B50E4C83B023784E
:10437000051C002B06D0002904D1637883420FD09E
:104380001D200BE001A913200D70FEF753FD132033
:10439000FEF712FD012300206570237003B030BDCD
:1043A0000020FBE7843F002070B586B06946094BCA
:1043B0006A4670CB70C170CB70C100239900515810
:1043C000814205D00133062BF8D1002006B070BD24
:1043D000D8B2FBE72CDD000010B508282CD81B4B09
:1043E00080001B589F468020000210BD184B586962
:1043F000FBE7184B186A184B8005800FC340181C48
:10440000F3E70220124C23681840EED01022114925
:10441000CB681A42FCD023685B070FD40F48E4E74F
:104420000B4B1869E1E750230A4A0020D35C5B0775
:10443000DBD5074BD868D8E70020D6E70020FEF789
:1044400005FDA3681B041B0C5843CEE744DD0000A8
:10445000883F00200008004000127A00006CDC0257
:1044600010B5082841D8224B80001B589F460020D9
:1044700010BD02231F4A002091690B439361F7E7A7
:1044800002231C4A0020918A0B439382F0E7022307
:10449000184A0020116A0B431362E9E70223102037
:1044A000154C2268134323602268144B1340114AB1
:1044B0009384D3680F491842FBD0A3680020CB62D5
:1044C00063688B6223689BB28B84D1E7442202230A
:1044D0000849885C03438B540020C9E70223054A3E
:1044E0000020118A0B431382C2E71720C0E7C046A1
:1044F00068DD000000080040883F00207FFF0000CA
:10450000F0B54746C2221E2180B4314BD2009A60DA
:10451000304A0024536884B08B435360012301ADBB
:104520002B70E0B2291C0134FEF784FC252CF8D155
:10453000294B274C1B68A169DB045B0E1A04274B2F
:1045400004260B40134308224027A361A3690420DB
:1045500033431343BB43783290461343E022D200E7
:1045600013431F4A1340A361FFF77AFF4246236AB1
:104570000620BB4313431B4A13402362FFF770FF1F
:104580000024FEF763FB2023291C02206B606C7063
:104590002C726C722E70FEF76BFB0220FEF7B2FBE2
:1045A000114B291C1C725C729C72DC72012300206E
:1045B0006B6005332B706C702C726C72FEF758FBBD
:1045C0000020FEF79FFB04B004BC9046F0BDC0463F
:1045D000000800400040004124608000FFFF80FF91
:1045E000FFEFFFFFFFFCFFFF00040040D37870B532
:1045F000002B31D11478802C47D0802324065B0215
:104600001C43537802251E1CAE4307D19378002B20
:1046100037D180239B021C4341605378013B012B1F
:1046200035D9A0250B04ED051B0C2B43D0252343C6
:1046300083622D060B0C2B4323438362D378002B1C
:1046400009D1630303D59378012B23D041615378BB
:10465000013B012B13D970BDA0240B04E4051B0CF6
:104660002343D0244160240683620B0C23438362DE
:10467000D378002BEFD15378013B012BEBD881602D
:10468000E9E7C023DB021C43C6E70024B9E7024B7D
:104690001C40C6E78161DAE7FFFFFBFF08B50A1C93
:1046A000031CC1090020002904D1064958098C4681
:1046B000C00160441F210B401E399940FFF796FF4F
:1046C00008BDC0460044004110B5041C431C09D07D
:1046D000E217D20EA3181F2401201C40A41A64B2B2
:1046E000A04010BD024803491922FFF74DFCEFE737
:1046F0008CDD0000A0DD000070B5051C82B00C1C34
:104700004B1C28D0C8B200292CDB184B46099C460C
:10471000F60166442C70E217D20EA3181F241C4029
:10472000A41A0122131C64B2A3406B60002301A9E8
:104730002B72AB726A720B708B704A7000F06AFE5B
:10474000331C1433EB6004332B61103608336B6178
:10475000AE6102B070BD064806491F22FFF714FC87
:104760002C70F6E72C700026D5E7C04600440041C7
:104770008CDD0000A0DD000030B5041C007883B0A3
:1047800043B20D1C013313D0A37A01A90B70237A15
:1047900065725A1E93418B70012D03D0002D01D0FC
:1047A000022D00D14D70C0B200F034FE03B030BD18
:1047B000034804493622FFF7E7FB2078E4E7C046C8
:1047C00068D20000A0DD000030B5041C007883B082
:1047D00043B20D1C013313D0637A01A94B70237AC5
:1047E000A5725A1E93418B70012D03D0002D01D06C
:1047F000022D00D10D70C0B200F00CFE03B030BD30
:10480000034804494C22FFF7BFFB2078E4E7C04689
:1048100068D20000A0DD0000F0B5454657464E4680
:10482000E0B4884682B0051C431C62D0C417E20E77
:104830001F24012783181C40A41A64B2A740C6B2E3
:10484000BA467509F3093ED1374BED019C466544E4
:10485000002D62D0281C1F233340C218403212782A
:104860000121944667468022394236D101A90A7057
:1048700002222C19403423781A4210D050462B685B
:10488000034034D14B7023785B070AD52B6942462D
:104890000023CB70012A09D143468B700AE0012323
:1048A0004B7000234246CB70012AF5D04246022AC3
:1048B000F2D08B70301CFFF7F1FE02B01CBC9046AA
:1048C0009946A246F0BD194B9946194849462322FC
:1048D000FFF75AFB00250020BDE75B08C318303303
:1048E0001A78D2B2314216D10F231A40BEE74A706D
:1048F000D7E70E4B0F4C9946191C201C5C22FFF782
:1049000043FB201C49461E22FFF73EFB0023FF26E7
:104910009A462C1CD9E71209A8E705480349232227
:10492000FFF732FB002096E70044004108DE00005C
:1049300070DE00008CDD000010B5041C012904D0DD
:10494000201C0549FFF764FB10BD0449FFF760FB1D
:10495000431CF9D1F4E7C046C0D900003CD900009F
:1049600038B50D1C431C1BD00021FFF7E5FF431C8D
:1049700016D00F240440281C6B1C08D00021FFF720
:10498000DBFF431C03D00F231840A04206D0631C5A
:1049900003D0431C02D00120404238BD201CFCE75C
:1049A000281C6B1CF9D000210124FFF7C5FF6442CD
:1049B000431CE8D1F1E7C046F0B50F1C85B0161CCA
:1049C0001D1C041C431C03D00021FFF7B5FF041C71
:1049D0000094381C7B1C02D00021FFF7ADFF019032
:1049E000301C731C02D00021FFF7A6FF0290281C88
:1049F0006B1C02D00021FFF79FFF039001200023D2
:104A000040420F22611C04D0411C0BD01440844250
:104A10000FD10433102B0AD06946CC58611CF8D052
:104A2000411CF3D1201C04331040102BF4D105B0ED
:104A3000F0BD01204042FAE7F8B5431C04D00F2630
:104A400031400D1E052D02D901204042F8BD0A4F0C
:104A5000041C391CFFF7E8FA3040A84207D0074F82
:104A6000201C391CFFF7E0FA0640AE42ECD1201CB6
:104A7000391CFFF7F1FAE9E7C0D900003CD9000082
:104A800070B5431C04D00F2421400D1E052D02D902
:104A90000120404270BD0949061CFFF7C5FA231CDE
:104AA0000340AB4207D0301C0549FFF7BDFA231C79
:104AB0000340AB42ECD100092040EBE7C0D9000035
:104AC0003CD9000070B586B06A46084B684670CB8A
:104AD00070C270CB70C20F231940052903D9012081
:104AE000404206B070BD89000858FAE778DE000041
:104AF000032208B5024B1B689A7300F083FC08BDC3
:104B00004440002030B50125354B364C1D602378DC
:104B10008FB0002B5CD00023002201AC22746361B3
:104B2000A36122772362636200202370A370A380B5
:104B3000A27123816270A272E2722273A273627305
:104B400023856385A385FEF7FBF8274900F0C8FE9F
:104B5000002832D00023012807D040080133012863
:104B600022D00B2BF9D1E023DB00A3800823A37014
:104B7000073B637000231D4DA3621D49013B221CAE
:104B8000281CE36200F0D2FC1A490222281C00F023
:104B900051FC7F212A68D37B8B43FCD111880233DF
:104BA0000B4313800FB030BD082BDCD8062B13D875
:104BB000042B08D9A023DB00D7E70F480F49572261
:104BC000FFF7E2F90023E0221B02D2001340CCE7FA
:104BD000FEF752F925709EE7C023DB00C5E7C0460B
:104BE000A03F0020103E002040420F004440002023
:104BF00000300042F14A000090DE0000A4DE000018
:104C000008B5034B1B68002B01D1FFF77BFF08BDE4
:104C1000A03F002008B5054B1B68002B01D1FFF712
:104C200071FF034800F0D4FD08BDC046A03F00203E
:104C300044400020F8B5061CFFF7ECFF301A21D4E1
:104C400080278023114D3F03EF5011491320FDF7BA
:104C50000FFE104C206800F049FC1F220E4B002173
:104C60001B5C201C13401E3A9A4010232A60627E6F
:104C700013436376102322685373321C00F0BEFD89
:104C80002F60F8BD00F0BEFBFBE7C04600E100E08E
:104C9000D55400004440002014DF00001021064BD2
:104CA0001A6811735A7E8A4380215A768023034AF8
:104CB0000903D1507047C0464440002000E100E0A5
:104CC0001022054B80211B6809039A731A73C023B5
:104CD000024A5B00D15070474440002000E100E0F0
:104CE000F8B5041E3ED02068FFF75EFB2379071C51
:104CF000012B2AD0012500230520E3181856431C58
:104D00000FD0391CFFF7BCFE431C0AD0C02600059B
:104D1000B6030640052065192856431C07D1301CF0
:104D2000F8BD0520651928560026431CF7D0391C0C
:104D3000FFF7A6FE431CF2D0002809D0C02301389B
:104D400000049B0218400643E9E700250123D3E74E
:104D50000720391C2056FFF793FE032808D00020B7
:104D60000643DCE704480549B122FFF70DF9BAE72D
:104D7000C02080020643D2E734D4000018DF0000D0
:104D8000F0B544465F464D465646F0B485B0984669
:104D90000EAB1B78041C5BB20D1C934600930028DD
:104DA00000D1C8E04346013300D1B8E000236A4E89
:104DB00002AA53803378002B32D059464246009BDA
:104DC000281CFFF7F9FD8146012049464042FFF7C4
:104DD00079FE2060002C00D1A7E0604F604E03E018
:104DE0002268538BDB0B0AD0002CF9D14422381CEB
:104DF000311CFFF7C9F82268538BDB0BF4D1022179
:104E000013688B43136023681E6801239A461E4073
:104E10000BD005B03CBC90469946A246AB46F0BDCF
:104E2000FEF72AF801233370C7E74B46504602339A
:104E30009840031C4B490A6A13430B6202AB1E7075
:104E40004B461433DBB21F1C181C02A90193FDF75B
:104E5000F1FF381CFDF7B0FF00210020FFF784FAB6
:104E60000C23226803AF11680B4313605346237170
:104E700080233B705346BB705B46A3714346E3718E
:104E80006B461B7865712372092398466DB27E705C
:104E9000FE70A044A61D6B1C0BD0281C4946FFF7D2
:104EA000CBFDC0B23870FF2803D0E8B2391CFFF741
:104EB000F5FB464506D0357801366DB26B1CECD15A
:104EC0004645F8D10198FDF7C1FF02AB011C9A1CC1
:104ED0002548FFF76DF900289BD102AB9B7822682B
:104EE000201C1373FFF7FCFE8021226889021368DF
:104EF00018431060226853680B435360002C25D080
:104F0000164E174D03E02268538BDB0B19D0002C93
:104F1000F9D1301C291C4422FFF736F8F3E7134877
:104F20000F49F522FFF730F840E70C480C495E22A4
:104F3000FFF72AF851E709480949F422FFF724F856
:104F400030E7116802330B43136062E703480449FA
:104F50005222FFF719F8D3E7103E002034D40000A6
:104F600018DF000000040040A086010080DF000080
:104F7000F8B54F464646041CC0B48846151C9946F1
:104F8000002800D18AE04F4F4F4E06E02268538B35
:104F9000DB0BDB039BB2002B0DD0002CF6D144229F
:104FA000381C311CFEF7F0FF2268538BDB0BDB0350
:104FB0009BB2002BF1D102201168814311604A4657
:104FC000002A60D01C21206802688A4314390A43F1
:104FD000026022682371516840330B435360002301
:104FE0009946271C661D093700203056431C02D005
:104FF0004946FFF711FC0136BE42F5D12368201C5B
:105000001E68324B1E40FFF76BFE42462368064384
:105010001E6021680123082A00DC002307204A685B
:105020000340824313434B6001231A1C20682A402B
:1050300006681107264A6D0832400A43026021685B
:105040001D406B07234A0D6815401D430D60002C61
:1050500032D01C4E1C4D03E02268538BDB0B0AD070
:10506000002CF9D14422301C291CFEF78DFF226848
:10507000538BDB0BF4D1116802330B4313600CBC70
:1050800090469946F8BD1C2221680B689343103A5C
:1050900013430B60012323719946A2E79622094F1F
:1050A000094E381C311CFF32FEF76EFF381C311CD4
:1050B0005E22FEF769FF66E7024803495222FEF7C7
:1050C00063FFC6E734D4000018DF0000FFFFCCFF09
:1050D000FFFFFFEFFFFFFFDFF0B583B000236A465D
:1050E000041C0D1CD380002853D0374F374E03E0EB
:1050F0002268538BDB0B0AD0002CF9D14422381CD8
:10510000311CFEF741FF2268538BDB0BF4D10221E7
:1051100013688B4313602068FFF746F91430C0B260
:10512000FDF794FE6B46011C9A1D281CFFF740F802
:1051300000281DD16B4622689B791373002C36D052
:10514000214E224D03E02268538BDB0B0AD0002C4A
:10515000F9D14422301C291CFEF716FF2268538B1C
:10516000DB0BF4D1116802330B43136003B0F0BDC5
:10517000002C22D0144E154D03E02268538BDB0B1C
:10518000F0D0002CF9D1301C291C4422FEF7FCFE83
:10519000F3E7D0220C4F0D4E381C311CFF32FEF7C6
:1051A000F3FE381C311C5E22FEF7EEFE9DE706483A
:1051B00006495222FEF7E8FEC2E70348034952229D
:1051C000FEF7E2FED6E7C04634D4000018DF000048
:1051D000F0B54746041C80B40E1C002852D0637AF8
:1051E000052B45D03A4B3B4F9846012503E02368F9
:1051F0001A7E15420AD1002CF9D173224046391C7F
:10520000FEF7C2FE23681A7E1542F4D0002C43D06C
:105210001A7ED20703D5F605F60D9E6223685B68F9
:105220009B0325D52A4F2B4E042503E023681A7EC5
:1052300015420AD1002CF9D17C22381C311CFEF712
:10524000A3FE23681A7E1542F4D0002C32D004222B
:10525000197E00200A420CD0598B0A420CD107213A
:105260005A680A40012A13D0FF209B6A184000E0C8
:10527000002004BC9046F0BD598B0A4392B25A8379
:105280002368ECE712481349134AFEF77DFEA6E7B0
:10529000986AC005C00DECE70D4F0E4D381C291C57
:1052A0008522FEF771FE381C291C7322FEF76CFE66
:1052B0002368ADE7064E074D301C291C9622FEF7E9
:1052C00063FE301C291C7C22FEF75EFE2368BEE7CD
:1052D00034D4000018DF0000120200000A4B08332B
:1052E00003608368002B0AD0084B1A68824201D100
:1052F00006E01A1C53688342FBD143685360704731
:1053000042681A60FBE7C04690DF0000A43F00201F
:105310000D4B10B5083303608368041C002B0AD0C2
:105320000A4B1A68904201D10AE01A1C53689C4249
:10533000FBD163685360201C00F0B5FA201C10BD3F
:1053400042681A60F7E7C04690DF0000A43F0020E3
:10535000064B816008330360002302734360002919
:1053600003D0034B1A6818604260704790DF00005A
:10537000A43F00200E4B70B51C68061C0D1C002CB1
:1053800003D112E06468002C0FD0A0680028F9D087
:10539000311C2A1C02F04BFD0028F3D1A06802F05A
:1053A0003FFDA842EED1201C00E0002070BDC046A9
:1053B000A43F0020007B7047074B10B50022041C5F
:1053C00008C0FFF7C5FF054B201C1A1C34330832F8
:1053D0002260636010BDC04600D40000A0DF000062
:1053E000074B10B51A1C041C0832343302604360AA
:1053F0000430FFF773FF201CFDF784FA201C10BD5A
:10540000A0DF000008B5024800F020FA08BDC04641
:10541000F0DF0000802200B583B001AB1A700A787B
:105420005A704A789A708A78191CDA70FFF736F940
:1054300003B000BD931C9B001950022A09D0032A17
:105440000CD0012393401A1C037E1A4302760020DD
:1054500070471023027E13430376F8E72023027E71
:1054600013430376F3E7C04670B50126154B800061
:10547000C5582B682C7E9B7B1C406B7E1C402642B3
:105480001AD10226264211D11026264208D1202602
:10549000264204D06B69281C98472B689E7370BD08
:1054A0002B69281C98472B689E73F0E7EB68281C33
:1054B00098472B689E73E7E7AB68281C98472B68D2
:1054C0009E73DEE76040002008B50020FFF7CCFFA8
:1054D00008BDC04608B50120FFF7C6FF08BDC0469D
:1054E00008B50220FFF7C0FF08BDC0460E4B011CE7
:1054F000181C70B584B001AA70C870C2019A8A42A3
:1055000008D05A688A4208D09B6800208B4207D096
:1055100004B070BD0020C0B2FAE70120C0B2F7E7C6
:105520000230C0B2F4E7C046F8DF0000F0B55746DD
:105530004E464546A34C9146221CE0B486B003ABD0
:10554000051C0E1C9A4683CA83C3039B9E4200D14E
:105550000CE163689E4200D10BE100239846A368EA
:105560009E4200D108E1211C03220C3101A800F069
:10557000BEFF211C06221031504600F0B8FF002368
:10558000AB60EB602B616B612B766B7643468E4A8A
:105590009B009D504B462E609B78082B0BD02B71A7
:1055A000338801220520DB070AD506B01CBC9046D3
:1055B0009946A246F0BD42461720D207F5D5EEE740
:1055C000F37B1730DB06F0D4022133880B40ECD19B
:1055D0004946097C002900D0D1E04B461B7F002BB7
:1055E00000D0D8E041465046784A4900136A415AF3
:1055F0000B4313624B469B78082B00D1DAE04B46F5
:105600006A461B78694613706B46424604339C5CBD
:10561000201CFDF70FFC201CFDF7CEFB4B464A4635
:1056200098881B89034390799278104318434B461E
:105630005B78002B02D080231B0118437F2229684E
:10564000CB7B9343FCD14B463080587B431E984123
:105650004B469B7B8000002B01D0012318437F2207
:105660002968CB7B9343FCD1FF333371002805D0ED
:105670007F222968CB7B9343FCD170714B46987A8B
:10568000DB7A002B01D0102318434B461B7B002BE9
:1056900001D0202318437F222968CB7B9343FCD180
:1056A0007F21B0712A68D37B8B43FCD12B797F217A
:1056B000042B07D07F21082B40D07F21002B25D041
:1056C000172072E7D37B8B43FCD14A462833D35C47
:1056D0007F2233742968CB7B9343FCD14A4629331C
:1056E000D35C7F2233752968CB7B9343FCD14A4638
:1056F0002A33D35C7F2233762968CB7B9343FCD15A
:105700004A462B33D35C002073764EE7D37B8B4322
:10571000FCD14B467F221B8D33822968CB7B934380
:10572000FCD14B467F225B8D33832968CB7B93432F
:10573000FCD14B469B8D0020738336E7D37B8B4394
:10574000FCD14B467F229B6A33612968CB7B934314
:10575000FCD14B467F22DB6AB3612968CB7B934344
:10576000FCD14B461B6B0020F3611EE700239846DB
:10577000F9E601239846F6E602239846F3E602A9E5
:10578000CB704B461B7E8A700B704B46187D4A705F
:10579000FEF784FF21E70123002202A98B704B70E2
:1057A0004B46CA704A461B6A526AD8B20A70FEF764
:1057B00075FF17E7414601314900136A415A0B430F
:1057C00013621CE7F8DF0000604000200004004086
:1057D0007F210268D37B8B43FCD10379042B0AD051
:1057E000082B06D00020002B00D07047108A80B212
:1057F000FBE71069F9E7107CC0B2F6E730B57F250A
:105800000468E37BAB43FCD10379042B16D0082B4F
:105810000CD01720002B00D030BD17200129FBD859
:105820000C3192B249000A530020F5E717200129F4
:10583000F2D8063189000A510020EDE7172001292E
:10584000EAD8D2B261180A760020E5E738B50368D5
:10585000051CDB6898476B685B680DE01C682B686B
:105860005B689847241A002C0CDC6A6851688B68C6
:1058700053601268002A0CD1002BEFD12B689B6873
:10588000984738BD6A682B6852681B69106898474A
:10589000F7E748689047DEE708B5031C081C191CA9
:1058A00000F0F0F908BD08B500F00CFE08BD10B519
:1058B000041E02D1013400E08047201C00F0F8FDF6
:1058C000002805D100F006F80028F5D100F0D2F943
:1058D00010BD0000014B18687047C046B03F002063
:1058E000002243088B4274D303098B425FD3030A1F
:1058F0008B4244D3030B8B4228D3030C8B420DD332
:10590000FF22090212BA030C8B4202D312120902BF
:1059100065D0030B8B4219D300E0090AC30B8B42FD
:1059200001D3CB03C01A5241830B8B4201D38B03AB
:10593000C01A5241430B8B4201D34B03C01A524150
:10594000030B8B4201D30B03C01A5241C30A8B4293
:1059500001D3CB02C01A5241830A8B4201D38B027E
:10596000C01A5241430A8B4201D34B02C01A524122
:10597000030A8B4201D30B02C01A5241CDD2C30994
:105980008B4201D3CB01C01A524183098B4201D310
:105990008B01C01A524143098B4201D34B01C01AFB
:1059A000524103098B4201D30B01C01A5241C30873
:1059B0008B4201D3CB00C01A524183088B4201D3E2
:1059C0008B00C01A524143088B4201D34B00C01ACE
:1059D0005241411A00D20146524110467047FFE73A
:1059E00001B5002000F0FCF802BDC0460029F7D048
:1059F00003B5FFF775FF0EBC4243891A1847C0462E
:105A000003460B437FD4002243088B4274D303091F
:105A10008B425FD3030A8B4244D3030B8B4228D3C0
:105A2000030C8B420DD3FF22090212BA030C8B42E6
:105A300002D31212090265D0030B8B4219D300E086
:105A4000090AC30B8B4201D3CB03C01A5241830B0B
:105A50008B4201D38B03C01A5241430B8B4201D3BB
:105A60004B03C01A5241030B8B4201D30B03C01AE4
:105A70005241C30A8B4201D3CB02C01A5241830A5E
:105A80008B4201D38B02C01A5241430A8B4201D38D
:105A90004B02C01A5241030A8B4201D30B02C01AB7
:105AA0005241CDD2C3098B4201D3CB01C01A52411E
:105AB00083098B4201D38B01C01A524143098B42A7
:105AC00001D34B01C01A524103098B4201D30B0190
:105AD000C01A5241C3088B4201D3CB00C01A5241B5
