:10000000008000200D47000009470000094700005C
:1000100000000000000000000000000000000000E0
:10002000000000000000000000000000E12B0000C4
:1000300000000000000000004D2C0000912C00008A
:10004000094700000947000009470000450B000070
:10005000CD470000094700000947000000000000EC
:100060000947000009470000094700000947000050
:1000700009470000000000000000000009470000E0
:100080000947000009470000556D0000616D000040
:100090006D6D000000000000000000000000000086
:1000A0000000000000000000000000000947000000
:1000B0000000000010B5064C2378002B07D1054B3B
:1000C000002B02D0044800E000BF0123237010BDC4
:1000D00074010020000000004C0C010008B5084B22
:1000E000002B03D00748084900E000BF0748036819
:1000F000002B00D108BD064B002BFBD09847F9E739
:10010000000000004C0C0100780100204C0C0100A4
:100110000000000010B5002803D101220A4B1A602C
:1001200010E0041C452303700B681BBA421C1360CB
:100130004B681BBA421D13600889044B9847093469
:1001400020800B2010BDC046900100202905000032
:10015000F0B5CDB0002804D000230022002905D13D
:100160001BE00122114B1A6000241BE0104E1027E7
:10017000C45C132C0BD8A5007559AF4601ADAD1862
:10018000EF54013201ADAD184034EC5402E001AD42
:10019000AD18EC5401338B42EAD1541801A9221C4A
:1001A000044B9847201C4DB0F0BDC0469001002084
:1001B0006CF8000047AA000070B5041C151C00284C
:1001C00004D10122124B1A60002020E0002918D12E
:1001D00003220F4B1A600223037000256E1C201CA3
:1001E000311C00220B4B9847051C601C311C0A4B2C
:1001F0009847231803229A7025542D0A5D70033006
:1002000005E0022303700130044B9847E6E770BD18
:1002100090010020090500005101000047AA0000DC
:1002200010B5002807D0002905D00278002300244B
:10023000032A05D111E001220A4B1A6000200FE0C9
:10024000102A04D10133C25C403A0A5500E00A5535
:1002500001330134C25C032AF2D103230B55601C25
:1002600010BDC0469001002070B5CCB0002803D16D
:100270000122154B1A6025E00D1C041C002A11D028
:1002800001AD291C114B9847C41E281C211C0022BB
:100290000F4B98472C5B0F4B9847201A441EA041E8
:1002A000C0B20FE0CE1E311C0022094B98476119E5
:1002B00002390B781B02A25DD3189BB2C01A431EF1
:1002C0009841C0B24CB070BD9001002021020000E6
:1002D0000905000029050000002803D10122044B74
:1002E0001A6004E00078023843425841C0B27047B7
:1002F00090010020002803D10122044B1A6004E081
:100300004078453843425841C0B2704790010020C0
:1003100070B5061C0D1C0A4B9847041E0ED0301CED
:10032000084B9847002803D0452D07D00C2300E048
:100330000123F45C641B60424441E4B2201C70BDA4
:10034000D9020000F502000038B5041C0D1C0C4B4E
:100350009847002812D0002D10D0201C094B984738
:1003600000280BD0A31C1B681BBA2B60A31D1B68A5
:100370001BBA6B606089044B9847288138BDC04622
:10038000D9020000F502000029050000014B1868A1
:100390007047C0469001002010B5141C002803D1FE
:1003A00001220A4B1A600FE0002907D10322074BF4
:1003B0001A60542303700024601C05E0542303706A
:1003C0000130034B9847F7E710BDC046900100206D
:1003D00047AA0000F8B5002803D10122134B1A6088
:1003E00022E01E1C171C041C02230370002904D0E9
:1003F00001300F4B9847451C00E001256019391C5E
:10040000321C0C4B98474519201C291C00220A4B12
:10041000984760556319000A5870A91C601C074B67
:100420009847032323540130F8BDC04690010020B3
:1004300015010000990300000905000051010000AA
:10044000F0B583B0041C0191171C1E1C164B984775
:100450000025002824D0201C144B98470C35002878
:1004600000D10B3D002E03D0201C311C104B9847AF
:10047000635D542B10D1002F09D0691C019D033DF1
:100480006D1A6118381C2A1C0A4B984708E0012293
:10049000094B1A60002503E00422074B1A6000256F
:1004A000281C03B0F0BDC046D9020000F5020000D0
:1004B0004903000047AA00009001002010B5000287
:1004C00083B208220020094C011C594009B20029BE
:1004D00003DA4000604080B201E0400080B25B007F
:1004E0009BB2013A92B2002AEED110BD2110000059
:1004F00010B5041C00124840024B9847240260408B
:1005000080B210BDBD04000070B5051C101C002990
:1005100007D02C1C6D18034E2178B0470134AC4233
:10052000FAD170BDF1040000FF2303401B02000A52
:10053000181880B27047C0467047C04610B5041CFA
:10054000064B0360191C1831DC2281504C330432F5
:100550008350DC30024B9847201C10BDE80001009E
:10056000C959000008B4024B9C46DC3808BC6047FF
:100570003D05000008B4024B9C46E03808BC6047CB
:100580003D05000010B5041C014B9847201C10BD10
:100590003371000008B50348DC300349034B98472A
:1005A00008BDC04694010020BCF80000195A0000A4
:1005B000F0B583B0322004210022104B9847104B35
:1005C00018601F1C0F4DDC353B68002B08D110E074
:1005D000281C01990C4CA047281C0C49A04700E09E
:1005E000074E306801A900220023094CA0470028CB
:1005F000EED1FA204000074B9847E5E7AD1F000019
:100600008802002094010020195A000028FB0000F5
:100610008D2100008528000010B582B00190084BA4
:100620001868002809D001A900220023054CA04722
:10063000013843425841C0B200E0002002B010BD72
:1006400088020020FD1F000010B5041C084B036049
:10065000191C1831DC2281504C3304328350DC30B9
:10066000044B9847201C044B9847201C10BDC046E3
:10067000E8000100C95900003371000008B4024BC2
:100680009C46DC3808BC60474906000008B4024BB1
:100690009C46E03808BC60474906000038B5064C67
:1006A000201C162117220023044DA847201C0449B2
:1006B000044A054B984738BD94010020BD570000FF
:1006C0003D050000B000002025710000F0B55F4638
:1006D00056464D464446F0B483B001200021032223
:1006E0004A4B9847041E04D0002100220023484DA5
:1006F000A84780204000474DA847071C0421052239
:10070000454EB047454B99461F6080204000A847A2
:10071000071C10211122B0470820A8470197391C57
:100720003F4EB0470820A8474A461168B047A42763
:100730007F00381CA84700903A4A9246942293467C
:100740004A461168221C53465E469B59364EB047B6
:10075000381CA84780460199221C56465B46F35830
:10076000314EB047314B9847061C314B98470C210E
:10077000304B9847381CA847071C524659465358D7
:10078000311C221C284DA8474A46106803681B6983
:10079000391C984733681B69301C009998470198A9
:1007A00003681B69391C9847234D009E3B1C474634
:1007B0009846002C00D1FEE7201C00210122524265
:1007C0000023A8470128F4D13368DB69301C98471F
:1007D000002803D033689B69301C98473B68DB696D
:1007E000381C9847002803D03B689B69381C984701
:1007F00043461B68DB69404698470028D9D04346EA
:100800001B689B6940469847D3E7C046AD1F000070
:10081000FD1F00003B710000F54000008C0200202D
:100820001D4300006404002069430000753F000080
:10083000FD3E0000E93100008D210000F8B5051CE7
:10084000244EB069244B98470022244B244CA047E7
:10085000244B9847041C3388022293433380321C74
:10086000937ADB09FCD11B4B18691F4FB847211C39
:100870001E4B9847061C1E4B9847041CB847011C8A
:10088000301C1C4B9847FC2189051B4B9847431E85
:1008900098412418194B1A682A605B686B600D4AEE
:1008A000118802230B43138001232B726B68E3181A
:1008B0006B6068682E68FA21C901114B9847861948
:1008C0002E606868FA21C9010E4B98476960201CA8
:1008D000F8BDC04600140040659F000000408F40F6
:1008E000DD89000071A00000FD820000CD7C0000C9
:1008F0002D820000317F000039750000B800002013
:100900006D71000079720000F0B5474680B484B084
:10091000019002910392144C238802229343238076
:100920000298A169114FB8472161019B104D2B60BE
:100930000298A169A6690F4B9846984746436E6096
:1009400068682E68FA21C901C04786192E60686858
:10095000FA21C901B8476960228802231343238022
:1009600004B004BC9046F0BD001400407972000051
:10097000B80000206D710000F0B58DB072B6BFF305
:100980005F8F00225E4B1A705E4A138802218B43F0
:1009900013805D4B5A68FA2189008C4662445A6084
:1009A0005A4A11785A4A11705A685A4B9A4203D8D7
:1009B0000022564B1A7002E00122544B1A70534B1E
:1009C0001B78DBB2524A12789A4217D04F4B1C78F0
:1009D000E4B2514B1B785BB2013304D14F4850490C
:1009E0002822504B9847002C04D04B4B1A695B6867
:1009F000136003E0484BDA685B681360424C606840
:100A00002568FA21C901484B984745192560606857
:100A1000FA21C901454B98476160454B1B68002B83
:100A200060D0444B1B68002B3CD1434B1A68414BB0
:100A30001A603F4C2068C317C0185840FA21C901FA
:100A4000394B984709902068C317C0185840FA21BD
:100A5000C901364B98470A912368002B03DA00221C
:100A600009AB1A7202E0012209AB1A72264E04ACDD
:100A700009AD6B462A1C83CA83C3201C3168726887
:100A8000B3682E4FB847231C07CB07C62C4E6B46C6
:100A900007CD07C3201C31687268B368B8470ECC15
:100AA0000EC603E0234A1368013B1360244C6068C0
:100AB00025681D4FFA21C901B847451925606068AE
:100AC0001A4EFA21C901B04761600F4C6068256871
:100AD000FA21C901B847451925606068FA21C901A2
:100AE000B0476160074A118802230B43138001223B
:100AF000034B1A70BFF35F8F62B60DB0F0BDC046F6
:100B0000D000002000140040B8000020980200200F
:100B1000900200207F3E0000A0020020CCF80000E0
:100B2000E4F80000415A00006D7100007972000085
:100B3000BC0200209C02002094020020890E0000CC
:100B40009003002008B5064B197A01220A431A7255
:100B50001A7A802149420A431A72024B984708BD0B
:100B6000001400407909000008B521482149224BB2
:100B70009847224B224A5A60812252009A60214AA9
:100B80005A80214B1988214A0A401A801A880C2160
:100B90008A431A801A880B398A431A80198880225E
:100BA0000A431A80D979802040420143D971D9790A
:100BB00001221143D971197A0A431A721A7A02432F
:100BC0001A7200221A61124A12689A611988022266
:100BD0000A431A800F4AC021890053581B021B0A7E
:100BE000C0200006034353500823136008BDC046CD
:100BF0007002002030F90000195A0000000C00407B
:100C0000020401000442000000140040FFF0FFFF56
:100C1000B400002000E100E008B50748002303709D
:100C20004360037243728372C360036143618361F3
:100C30001321024B984708BDA0020020655A00000E
:100C400030B58FB008AD00230893099301222A72B2
:100C50000BAC0B930C932272281C114B9847089BEA
:100C60000B936B68636062680E4B9A4202D90B9BD0
:100C700001330B9300230C9304AC08AB6A4623CBDF
:100C800023C2201C0B990C9A0D9B074DA847074BBC
:100C9000983307CC07C3064B98470FB030BDC0460A
:100CA0003D0800007F3E0000850D00006404002028
:100CB0002917000010B584B00E480F490F4B984714
:100CC00001AC201C0E4B98471C230193002363604A
:100CD0000122E272A3720820211C0A4B98470A489D
:100CE00008210022094B984708200021084B98470B
:100CF00004B010BD7002002048F90000195A00002D
:100D00008548000099480000410C0000854700001C
:100D1000AD47000082B084B0019002910392059328
:100D2000019A059B01209A4209D8019A059B00204F
:100D30009A4204D30298069B83428041404204B009
:100D400002B0704784B001910292039300230360C4
:100D50004360013303720599019A049BD21A026021
:100D6000029B5B1A0BD50268002A09D00268013A7F
:100D70000260FA22D20194466344436000E043607B
:100D800004B0704770B58EB0041C05A8059106929A
:100D9000079300232360636001332372037A12AA4E
:100DA000127ADBB2934220D0037A002B0DD00122BD
:100DB00012AB1A726B4612AA23CA23C3201C0599D0
:100DC000069A079B2E4DA84756E005AB01221A72E2
:100DD0006A4612A961C961C2201C0599069A079B3F
:100DE000274DA8470023237246E005AB1B7A002B52
:100DF0002BD008AA05AB23CB23C20BAB12AA23CA64
:100E000023C3089A0B9B9A4207D8089A0B9B9A42D5
:100E10000ED3099A0C9B9A420AD96B4612AA23CA8E
:100E200023C3201C0599069A079B164DA84723E06B
:100E300005AB6A4623CB23C2201C1299139A149B3C
:100E4000104DA8470023237216E0012212AB1A723C
:100E500005AB1A726A4612A961C961C2201C0599C4
:100E6000069A079BFFF78EFF237A002B02D0002300
:100E7000237201E001232372201C0EB070BDC04616
:100E8000890E0000450D0000F0B5474680B49AB0C9
:100E9000041C05A805910692079300232360636054
:100EA00001332372037A002B13D020AB1B7A002B63
:100EB00014D10EE020AB1B7A002B46D137E020ABDB
:100EC0001B7A002B46D152E020AB1B7A002B53D06B
:100ED00081E005AB1B7A002BECD136E008AA05AB0C
:100EE000111C61CB61C10BAB191C20A8E0C8E0C18B
:100EF00014AD002114911591013129720999089AB4
:100F00000B98821814920C9E7618149F301CFA21AC
:100F1000C9013A4B9847C7191497301CFA21C901E7
:100F2000374B98476960231C07CD07C353E0012264
:100F300020AB1A726B4620AA23CA23C3201C059932
:100F4000069A079B2F4DA84745E005AB1B7A002B5F
:100F50000DD1B4E705AB01221A726A4623CB23C236
:100F6000201C2099219A229B264DA84733E005ABEF
:100F70001B7A002B2FD1A7E705AB0121197220AAFC
:100F800011720EAA101CE0CBE0C011AB9C46181CDD
:100F900020ADC8CDC8C017AD002717971897297284
:100FA0000F990E9A11988218179263465E68761808
:100FB000179B9846301CFA21C901104B98474044B2
:100FC0001790301CFA21C9010D4B98476960231C0A
:100FD00007CD07C3277260682568FA21C901074B4E
:100FE0009847451925606068FA21C901044B984764
:100FF0006160201C1AB004BC9046F0BD6D71000009
:1010000079720000850D000010B50B1C4343002BC6
:1010100013D00023FA24A400884201DD401A00E026
:10102000091A01330A1C4243002A03D0A342F3D118
:10103000012107E0044A934203DC002802D0011C8E
:1010400000E00121081C10BDE7030000064A002350
:1010500013605360054AA42153502031535004318A
:1010600053501039535070479003002064040020FF
:10107000F0B55F4656464D464446F0B491B0A423C1
:10108000C24AD358002B00D178E1C148C14B9847E0
:10109000BE492223FF33C85C0DABBF4A1C1CE0CA0B
:1010A000E0C4A8228A5C197AD3B280468B4206D06B
:1010B000002190235B00B54AD15400239846B34FDA
:1010C000C423F858203BFC58B44EB047051C201CE4
:1010D000B047011C281CB24B9847051CB14B9847E0
:1010E000061C0790C823F858AF4F211CB847AF4BD8
:1010F000984702900391301CAD4B9847011C281C67
:10110000AC4B9847AC4B98470022AC4BAC4DA84732
:10111000021C0B1C02980399AA4DA847AA4B98479A
:1011200008909D4E3068211CB8470AAD0A9070683F
:10113000211CB8476860337ADBB22B720798089A93
:101140000A9C6968FA23DB0163435F182B7A002B42
:1011500000D17F429D4B1B689D4B1C68002F00D126
:10116000F8E09C4B9C4227DCFA23DB0158438018B3
:101170008A4B984702908E4E974D894B9A46FA2398
:101180009B009946954B9B460497201CB047944979
:10119000A847071C0498B047011C381CA8470299AF
:1011A000D047071C01344C4509D0FC218905D8479C
:1011B0000028EAD13A1C03E000231A1C00E0021CBC
:1011C000724E90235B00F55C2B1C1933DB00F31887
:1011D0009A60EB00F618CC36201C754B9847B0602F
:1011E0000135EDB209224346D90FD317404682425A
:1011F0004B419844A84504DB90235B00634AD554D7
:1012000004E0002190235B00604AD1544346002B48
:1012100018DD5E4A161CD0361A33DB00D5180024C0
:101220000294704F2B1C251C1C1C02983168B84777
:101230000290281C7168B847051C0836A642F4D1F4
:10124000041C01E0002402944046674B9847049038
:101250000591594F0298B847644E049A059BB047D0
:10126000634DA8470290201CB847049A059BB047DD
:10127000A84704904B4A93469047041C72B6BFF3AC
:101280005F8F5C4D00232B70504F3E680298D8470B
:10129000801B3F68C71901232B70BFF35F8F62B6B5
:1012A000002F0EDA381C424B9847011C0298414B24
:1012B0009847BF210906494B9847431E98413F1A5A
:1012C0000DE0381C3A4B9847011C0298394B98475F
:1012D000FC218905484B9847431E98413F18201C24
:1012E000334B9847011C0498324B9847FC218905E1
:1012F000414B9847431E98412418201C391C3F4BF2
:101300009847031C3E4A9246201C0293191C9047A2
:10131000041C72B6BFF35F8F364A914600231370E8
:101320002A4D2A6893462E68381C0299D0475B469E
:10133000C01A86192E60264B1C60324B1C6001239C
:101340004A461370BFF35F8F62B62223FF330F4A02
:101350004146D1542C4B98471C4B1A680AAB1B7A58
:101360002A4D009343460193281C2949231C294CEC
:10137000A047281C074CA0472748A04711B03CBCF9
:1013800090469946A246AB46F0BDC0466404002094
:1013900058F900001906000090030020FD820000AB
:1013A000E97800002D8200006D710000659F00004B
:1013B0006D820000317F0000C99F00000040DF40C7
:1013C000599200008D830000B5750000BC0200201A
:1013D00094020020E7030000CD7C0000117500009E
:1013E00000007A44F1750000ED9E0000DD890000E8
:1013F00071A00000D0000020397500000910000025
:101400008D7200009C0200204D1000009C03002003
:1014100070F9000035C20000A4F9000070B5E8B012
:1014200001900291039204A956230B70553B4B7017
:101430000198029AFA23DB0143439B188B701A121E
:10144000CA701A140A711B0E4B711DA806220A4B92
:101450009847051C094B9847002D0BD00024084ED7
:10146000306803681DAA115D9B6898470134E4B297
:10147000A542F5D868B070BDB9010000753F000005
:101480008C020020F0B58BB0A423734AD3580020FF
:10149000002B00D1DDE07148714B984707AF002366
:1014A0000793089301333B726B4CC333E058203BE6
:1014B000E35803936B4EB047051C0398B047011CDB
:1014C000281C694B9847051C684B9847061C0790D9
:1014D000C823E0580399664B9847664CA047049090
:1014E0000591301C644B9847011C281C634B98479E
:1014F000634B98470022634B634DA847021C0B1CAB
:1015000004980599614DA847614B98477860079BFF
:101510007A68FA26F60173439F185E4B1868A04755
:10152000021C0B1C002057495B4DA8475B4B98479A
:1015300004905B4A106853687043C018137A002BFC
:1015400000D140420399574B98474B4DA847061C82
:10155000381C484B984700224A4B4F4CA0474F4BF2
:101560009847011C404C301CA047404B9847A84767
:101570004D49A047041CFE2189054C4B9847002883
:101580000AD0FE208005211C3C4B9847011C049882
:10159000354B9847051C09E0201CFE218905444B6A
:1015A0009847011C0498304B9847051C3E48291C5D
:1015B0002D4B9847061C2D4B9847041C301C304B74
:1015C0009847061C0F1C201C2A4B9847021C0B1C1A
:1015D000301C391C374EB0470022374B374EB047CE
:1015E000431E98412418FA23DB019C4200D91C1C9D
:1015F000284B1B68A34228D0264E3460304B9847B6
:101600000023304A1360144A2221FF315354013918
:10161000535432682C4B9A6137682C4E281C134B5C
:101620009847051CFA20C001391C114B9847031C30
:101630000094301C26492A1C264CA047301C084C1C
:10164000A0472548A047012003E02348044B9847C2
:1016500000200BB0F0BDC04664040020C0F90000BB
:1016600019060000FD820000E97800002D820000CC
:101670006D710000659F00006D820000317F0000E9
:10168000C99F00000040DF40599200008D83000098
:10169000B5750000B4000020DD89000071A00000D5
:1016A000900300208D7200000000FA4611750000C2
:1016B000F17500008D9700000000E03FC574000048
:1016C0004D100000BC020020001400409C030020CC
:1016D000D8F9000035C2000000FA000008B50C4B34
:1016E00098470C4B1B68C01A0B4B98420ED9A42389
:1016F0000A4AD358022B09D9054B9847054B186065
:10170000074B9847002801D1064B984708BDC046B3
:1017100051260000C0020020983A00006404002016
:101720008514000071100000F0B5474680B490B0F9
:10173000794AA023D35CDBB291214900525C9A42E2
:101740005AD1754CA023E25C0B1C62546A3BE358EF
:10175000AC256351BC23E2580C3BE250201CB8304E
:101760006E4B98476359002B48D06B4A131CB0331B
:10177000694611CB11C1AC23D358B8215058B832A7
:1017800051689268664CA047002832D00AAE624D7C
:101790002B1CAC336A4613CB13C2301CB823E95858
:1017A0002B1CB8335A689B685E4CA04706AC6B464E
:1017B00007CE07C3201CC423E9582E1CC436726808
:1017C000B368594FB846B847231C07CB07C6574ED6
:1017D0002B1C98336A4683CB83C2201C3168726805
:1017E000B368C0470ECC0EC6A422AB580133AB5031
:1017F00004E04F4B984701E04D4B9847464CA023DF
:10180000E25C8233E2540DAE301C444B984706AD87
:10181000231C98336A4683CB83C2281C0D997268B7
:10182000B368414FB8472B1C07CB07C60D986968B2
:10183000AA68404B9847404B1D78EDB29823E0587A
:1018400098346168A2683D4B98473D4B5A683D4BC0
:101850009A4203D80022384B1A7002E00122364B1C
:101860001A70354B1B78DBB29D4217D0324B1C7877
:10187000E4B2354B1B785BB2013304D133483449B1
:101880002822344B9847002C04D02F4B1A695B68F0
:10189000136003E02C4BDA685B681360A0231E4AD8
:1018A000D35C002B18D0111C982012589C240B5983
:1018B0000E58085909590D9D0E9C0096400901903B
:1018C0001F2001404801411A0291039504942248C7
:1018D0002249234CA04717E00F4998200A589C241E
:1018E0000B590E58085909590D9D0E9C0096400938
:1018F00001901F2001404801411A02910395049470
:1019000015481849164CA0471348174B984710B074
:1019100004BC9046F0BDC046640400203D080000B1
:10192000150D0000850D0000890E000090030020B9
:101930004D10000009090000980200201D1400004D
:10194000B80000207F3E0000A0020020CCF800007C
:10195000E4F80000415A0000C402002028FA000008
:1019600035C200006CFA000019060000F0B599B00D
:101970002F4D84242A5D2F482F49304B9847295DED
:10198000002910DD00242B4E294F231C2533FF3363
:10199000FB5C301C2A49221C284DA84701348423B3
:1019A000F95CA142F1DC22482530FF300022254BB2
:1019B0009847002835D11E4B181C2530FF30842253
:1019C000995C623A6A4400231F4CA0471F4B98471A
:1019D000002821D123236A46D35C53702422694610
:1019E0008A5C0A70022A13D12332895C043A684661
:1019F00081540F4A14685800C11889008C505168EE
:101A0000C3189B00D31859601148124B98470CE03B
:101A10001148104B984708E006481049074B984773
:101A200003E004480E49054B984719B0F0BDC04685
:101A30006404002070020020B0FA0000195A00006F
:101A4000C0FA000069020000410400008D0300009C
:101A5000CCFA000019060000E4FA0000F8FA0000D1
:101A600004FB0000CB18C018C0B200290AD0131C18
:101A70000139C9B20131521819784018C0B2013386
:101A80009342F9D17047C04610B50023014CA047DE
:101A900010BDC046651A0000F0B557464646C0B4B2
:101AA000CDB000AF0C1C0B1C0B33DB08DB00694610
:101AB000CB1A9D466D4610232B7000236B70A870C7
:101AC000002C0CD0EC7000216B18565C1E7101319B
:101AD000CBB29C42F8D8231C0121884601E00023A8
:101AE0009846033343441E1C211C1A4B9847A855A3
:101AF000194B9847061C0434231C4344381D00210D
:101B00002A1C164CA047051C154816492A1C164BC2
:101B10009847002D17D00024134B9A463B1D1B5DA0
:101B20000F481249221CD0470134E4B2A542F5D82F
:101B3000002433683A1D115D9B68301C98470134BE
:101B4000E4B2A542F5D8BD464DB00CBC90469A46CD
:101B5000F0BDC046891A0000753F0000D5030000A3
:101B6000700200202CFB0000195A000038FB000016
:101B700000B585B001A80B4B9847019B6A461370CE
:101B8000019B1B0A5370029B9370029B1B0AD3702C
:101B900001200421044B98470448054B984705B0A1
:101BA00000BDC0463D080000991A000048FB000037
:101BB0001906000030B587B0041C6B4618701D492B
:101BC00043001A1892005258684642701A1992003F
:101BD0005258120A82701A1992008A1850686D467B
:101BE000E8705268120A2A711B199B0000225A5091
:101BF00003AB01321A72104A1168039152680492C1
:101C0000039A6A71039A120AAA71049AEA71049BF0
:101C10001B0A6A462B7203200921084B9847084D7E
:101C2000281C0849221C084B9847281C074B98473A
:101C300007B030BD64040020B8000020991A0000ED
:101C4000B406002054FB000035C200001906000055
:101C500070B501240D4E0E4DE0B263001B199B00C0
:101C60009B59002B00D0A84701340B2CF4D1094B11
:101C70009847094B1B68C01A084B984205D9054B79
:101C80009847054B1860064B984770BD64040020C8
:101C9000B51B0000512600008C03002088130000B3
:101CA000711B000070B572B6BFF35F8F0022274B27
:101CB0001A700023264800215A00D21892001150B1
:101CC00001330B2BF8D1224B0022A4215A50214979
:101CD0000A604A6001240C72B8215A5004315A50EB
:101CE00004315C5414395A5004315A5004315C5454
:101CF0006C315A542221FF315A5499395A500431C7
:101D00005A5004315C540B395A549432985800217B
:101D10006132FF320023104DA8470C4B1C70BFF3FB
:101D20005F8F62B60D4D0A4C0B4EA8479423E058C6
:101D3000002808D00021FA2252000023B0470128D1
:101D400001D1074B9847074B9847EEE7D00000209A
:101D500064040020900300208D210000511C00002D
:101D60006D190000DD160000F0B585B01A4D942401
:101D700000232B51012000210322184B98472851A2
:101D8000002804D0002100220023154CA0479626ED
:101D900076000127009700240194029403941148CF
:101DA0001149321C0023114DA84700970194029459
:101DB00003940F480F49321C0023A84703230093C4
:101DC0000194029403940C480C49E12292000023F0
:101DD000A84705B0F0BDC04664040020AD1F000058
:101DE000FD1F0000B105000074FB0000FD23000092
:101DF000CD0600007CFB0000A51C00008CFB000051
:101E000010B5041C036C002B08D10368002B26D1ED
:101E10004068154B98470023636020E0002A0ED1EC
:101E200080681A1C114B9847A368226C944663443F
:101E3000A3606268934212D32368A3600FE0C06876
:101E40001A1C0A4B9847236C5B42E268D218E26086
:101E500021688A4203D2626894466344E360A36BBC
:101E60000133A36310BDC046592B000047AA0000F0
:101E700038B50468002C0CD0026CC3689B18C36092
:101E80004568AB4200D3C4600B1CC168181C014BF1
:101E9000984738BD47AA0000F8B5041C214B984765
:101EA000A36C002B16DD636A002B04D112E0636A79
:101EB000002B04D10EE0251C24351B4F1B4E281C83
:101EC000B847002800D0B047A36C013BA364A36CC3
:101ED000002BECDC01235B42A364154B9847114BAC
:101EE0009847636C002B16DD2369002B04D112E0A8
:101EF0002369002B04D10EE0251C10350A4F0B4E30
:101F0000281CB847002800D0B047636C013B6364CD
:101F1000636C002BECDC01235B426364044B984749
:101F2000F8BDC046212C0000B9290000C52A0000D8
:101F3000392C000038B5002801D172B6FEE70D1C1F
:101F4000041C154B98472268216CE36B4B43D01857
:101F500060600020A063A2605B1AD318E3600123D5
:101F60005B426364A364002D0BD12369002B0FD067
:101F7000201C1030094B9847012809D1084B98477D
:101F800006E0201C1030074DA847201C2430A8472D
:101F9000054B9847012038BD212C0000B9290000CD
:101FA000092C0000FD220000392C000070B500282B
:101FB00013D00E1C051C4C200D4B9847041E0CD052
:101FC000301C684301300A4B98472060002806D136
:101FD000201C084B984700E0FEE772B6FCE7E5637B
:101FE0002664201C0121044B9847201C70BDC0466C
:101FF000152D00007D2D0000351F0000F0B557465F
:1020000080B486B00392002801D172B6FEE70027A3
:10201000002905D1026C002A01D072B6FEE7002724
:1020200002930191041C334DA847A36BE26B9342CA
:1020300013D2201C0199029A2F4B9847636A002BF8
:1020400007D0201C24302D4B9847012801D12C4B60
:1020500098472C4B9847012048E0039B002B03D165
:10206000284B9847002041E0002F03D104A8264BBD
:1020700098470137234B9847244B98471D4B984767
:10208000636C013301D100236364A36C013301D17C
:102090000023A3641B4B984704A803A91C4B984733
:1020A00000281DD1134B9847A36B9A46E66B154B3E
:1020B0009847B2450ED1201C10300399154B984714
:1020C000201C154B9847154B98470028ACD10C4B5A
:1020D0009847A9E7201C104B9847104B9847A3E757
:1020E000201C0D4B98470D4B9847002006B004BCB0
:1020F0009246F0BD212C0000011E0000B92900000D
:10210000092C0000392C0000352A0000412600006F
:10211000552A000079290000991E00008D27000033
:1021200070B5002801D172B6FEE7002904D1046C15
:10213000002C01D072B6FEE772B6846B0025C66B28
:10214000B4421CD2161C041C1A1C0E4B9847A36CDC
:1021500001330ED1636A0135002B10D0201C2430CE
:10216000094B984700280AD0002E07D0012333607E
:1021700005E0A36C0133A364012500E0012562B6EC
:10218000281C70BD011E0000B9290000F0B54F46A3
:1021900080B484B00192002801D172B6FEE7002716
:1021A000002905D1026C002A01D072B6FEE7002793
:1021B0001D1C0091041C444EB047A36B002B2BD078
:1021C000E768201C0099414B9847002D14D1A36B60
:1021D000013BA3632368002B02D13D4B984760600D
:1021E0002369002B14D0201C10303A4B984701284B
:1021F0000ED1394B98470BE0E760636A002B07D09C
:10220000201C2430334B9847002801D0324B98478C
:10221000324B9847012052E0019B002B03D12F4BFA
:10222000984700204BE0002F03D102A82C4B984781
:1022300001372A4B98472B4B9847234B9847636CA1
:10224000013301D100236364A36C013301D1002366
:10225000A364224B984702A801A9234B9847002862
:1022600027D1194B9847A36B99461C4B98474B466F
:10227000002B18D12368002B06D1134B98476068B8
:102280001A4B9847154B9847201C24300199184B3E
:102290009847201C174B9847174B984700288BD11D
:1022A0000D4B984788E7201C124B9847124B9847D4
:1022B00082E7201C0F4B98470F4B9847002004B033
:1022C00004BC9146F0BDC046212C0000711E0000E8
:1022D000D12A0000B9290000092C0000392C000087
:1022E000352A000041260000552A0000DD2A0000A2
:1022F00079290000991E00008D270000031C083377
:102300004360012252428260C36003610023036084
:102310007047C046002303617047C04643685A684F
:102320004A6042688A605A689160596041600861F9
:10233000036801330360704710B50C68631C01D15A
:1023400003690AE0031C0833C2681268944204D38C
:102350005B685A6812689442FAD25A684A6091607F
:102360008B605960086103680133036010BDC0468B
:10237000436882689A60836842685A6003695A6851
:10238000824201D182685A60002202611A68013AD1
:102390001A6018687047C04610B5014CA047FDE7A9
:1023A000092C000010B5041E0E4B1B6858600E4B24
:1023B0001B689C4207D20D4B18680A4B1968043100
:1023C0000B4B98470CE00B4B1868064B196804310F
:1023D000074B9847084B1B689C4201D2064B1C6078
:1023E00010BDC0461C08002034080020380800201A
:1023F0003923000080070020C4000020F0B54F46BC
:102400004646C0B485B00C9C002801D172B6FEE7E8
:10241000052C01D972B6FEE70393161C0F1C02901F
:102420004020594B9847051E00D1A5E00E9B002B7C
:1024300000D09DE0B000544B98472863002803D19A
:10244000281C524B984797E0B200A521504B984763
:10245000504BF3189B002A6B944663440722934326
:102460009846281C3430391C01324B4B98470022C7
:102470003B23EA54271E052F00D90527EF62EF639F
:102480002B1D0193181C454EB047281C1830B0472F
:102490002D610623DB1BAB616D6240460299039AF6
:1024A0003F4B98472860430701D072B6FEE70D9B6B
:1024B000002B00D01D603B4B98473B4A136801330B
:1024C00013603A4B1B68002B1ED1384B1D601368FC
:1024D000012B24D1364E77339946B144354F301C09
:1024E000B84714364E45FAD1334B9946181C314E35
:1024F000B047324F381CB0473148B047314B4A469D
:102500001A60314B1F600AE0304B1B68002B06D16C
:10251000264B1B68DB6A9C4201D3244B1D60EB6A8F
:102520002B4A1268934201D9294A136029490A6843
:1025300001320A60284A1268934201D9264A136080
:102540009800C3189B001A48C0180199234B98475C
:10255000234B98471D4B1B680120002B0ED0134BBB
:102560001B68DB6A9C4209D91E4B9847012005E095
:102570000E9B0363181C67E70120404205B00CBCAA
:1025800090469946F0BDC046152D00007D2D0000F7
:1025900059AA0000FFFFFF3FAFC300001523000052
:1025A000C92B0000212C00005C0800201C08002022
:1025B000A0070020FD220000440800208C07002016
:1025C0002008002080070020380800208407002011
:1025D00060080020400800203C0800201D23000067
:1025E000392C0000092C000010B584B000230093A2
:1025F0000193029303930C480C49962252000C4C11
:10260000A047012809D172B601220A4B1A600022A4
:10261000094B1A60094B984703E0002801D172B6B4
:10262000FEE704B010BDC0469923000094FB0000F3
:10263000FD2300008407002034080020D92C00006E
:10264000024A1368013313607047C046180800201F
:1026500010B5044B9847044B1C68044B9847201C4A
:1026600010BDC046212C000034080020392C000089
:10267000F8B53B4B1B68002B6DD13A4B1A68013201
:102680001A601B68002B20D1374B1B681B68002B7E
:1026900001D072B6FEE7344B1968344A10681860EE
:1026A000116033490A6801320A601B681B68002BFD
:1026B00004D1012252422F4B1A6006E02A4B1B68BC
:1026C000DB68DB685A682B4B1A60264B1A68294B6B
:1026D0001B689A4243D3244B1B681B68002B0BD00A
:1026E000214B1B68DB68DD686B681E4A12689342E9
:1026F00010D8214F214E10E0012252421D4B1A608A
:102700002DE0194B1B68DB68DD686B68154A1268A1
:10271000934202D9174A136021E02C1D201CB847B0
:10272000AB6A002B03D0281C1830134B9847EB6A78
:102730003268934201D9114A13609800C3189B0074
:102740000F48C018211C0F4B9847074B1B681B688C
:10275000002BD6D1D0E70C4A136801331360F8BDC3
:1027600018080020340800208007002038080020C6
:1027700088070020C4000020712300003C080020CE
:10278000A00700201D2300007C070020F8B52F4B78
:102790001B68002B01D172B6FEE72D4B98472B4BDF
:1027A0001A68013A1A601B680024002B49D1294B92
:1027B0001B680026002B22D143E0274BDB68DF6833
:1027C000381C1830254B98473D1D281C234B984733
:1027D000FB6A234A1268934201D9214A1360980088
:1027E000C3189B001F48C018291C1F4B98471F4B3C
:1027F0001B68FA6ADB6A9A4202D3012600E0164C93
:102800002368002BD9D11A4B1B68002B0CD0184B16
:102810001B68002B08D0174D154CA8472368013BB7
:1028200023602368002BF8D1012E04D0124B1B68C3
:102830000024012B05D100220F4B1A600F4B984743
:1028400001240F4B9847201CF8BDC04618080020F3
:10285000212C00005C0800202008002071230000CB
:102860003C080020A00700201D2300001C080020B9
:102870007C0700207126000058080020092C000069
:10288000392C000010B5041E10D00A4B98470A4B93
:102890001B68E418094B18680430094B9847201C42
:1028A000084B9847084B9847002801D1074B984799
:1028B00010BDC04641260000340800201C0800203E
:1028C00071230000A52300008D270000092C0000C3
:1028D00010B5244B1B68002B10D1234B1B689A00AA
:1028E000D3189B00214A9B58002B1AD11E4B1B6802
:1028F000002B0AD01C4A1D4C101C08E001221C4B66
:102900001A602DE00368002B01D172B6FEE7136850
:10291000013B136013689900CB189B001B59002BD7
:10292000F0D0114B1B68114C9A00D1188900611826
:10293000486840684860D21892000832A218904255
:1029400005D141689A00D2189200A21851609A00ED
:10295000D3189B00054AD3185B68DA68054B1A60E8
:1029600010BDC046180800203C080020A007002029
:10297000580800201C08002038B5002801D172B684
:10298000FEE70C1C074D29681831074B984728684B
:102990000430064B9847064B18682018054B98479B
:1029A00038BDC0461C0800203923000071230000F8
:1029B00034080020A523000038B5C368DD68002D69
:1029C00001D172B6FEE72C1C1834201C124B98471C
:1029D000124B1B68002B13D12C1D201C0E4B98474B
:1029E000EB6A0F4A1268934201D90D4A13609800AE
:1029F000C3189B000B48C018211C0B4B984703E0E1
:102A00000A48211C084B9847094B1B68EA6ADB6A95
:102A100000209A42404138BD712300001808002070
:102A20003C080020A00700201D23000020080020F3
:102A30001C080020002801D172B6FEE7034B1B687A
:102A40000360034B1B6843607047C0468807002043
:102A50003408002070B5002801D172B6FEE70029C5
:102A600001D172B6FEE70D1C041C114B9847114BA7
:102A70001B6822689A4205D00F4B1B6801266268CA
:102A80009A4210D90C4B196860682B68091A012604
:102A9000994208D2084A1268121A9B1A2B60201C0D
:102AA000064B98470026064B9847301C70BDC04621
:102AB000212C00008807002034080020352A00005F
:102AC000392C00000122014B1A6070475808002081
:102AD000014B18687047C0461C08002038B5002814
:102AE0002FD0C36A174A1268D26A934229D2154A74
:102AF0001268D16A0622521A82619A00D3189B008A
:102B0000114AD31842699A4217D1051C041D201C92
:102B10000E4B98470B4B1B68DB6AEB620C4A126842
:102B2000934201D90A4A13609800C01883000648EE
:102B3000C018211C074B984703E0024B1B68DB6A57
:102B4000C36238BD1C080020A007002071230000CC
:102B50003C0800201D23000038B500281BD0C36AA4
:102B6000C26B934217D0041C051D281C0A4B9847C2
:102B7000E36BE3620622D21AA261084A126893420A
:102B800001D9064A13609800C01883000448C01891
:102B9000291C044B984738BD712300003C080020D5
:102BA000A00700201D230000064A13681868203083
:102BB00080F30988022080F314883FBCAE4662B6D9
:102BC00000BDC0461C08002010B5031F802464040B
:102BD0001C60043B1960183B1A60403810BDC046A9
:102BE000084B196808681030F0C8A046A946B246DC
:102BF000BB4680F309882038F0C871460D20014398
:102C00000847C0461C08002080225205034B1A606A
:102C1000BFF34F8FBFF36F8F7047C04604ED00E0E6
:102C200072B6044A136801331360BFF34F8FBFF3CA
:102C30006F8F7047C8000020034A1368013B136080
:102C4000002B00D162B67047C8000020EFF3098066
:102C50000E4B1A6820381060F0C044464D46564668
:102C60005F46F0C008B572B6FFF732FE62B60CBC24
:102C7000116808681030F0C8A046A946B246BB46A5
:102C800080F309882038F0C81847C0461C08002087
:102C900008B572B6014B984762B608BD71260000B0
:102CA00008B50022074B1A600020074B9847FA210D
:102CB0008900064B98470138054B18600722054BE1
:102CC0001A6008BD18E000E0DD4A00006D710000E8
:102CD00014E000E010E000E008B50A4B1A68FF219C
:102CE00009040A431A601A68FF2109060A431A6098
:102CF000054B98470022054B1A60054B984700206A
:102D000008BDC04620ED00E0A12C0000C800002056
:102D1000A92B000038B5041C430702D007239C43AD
:102D20000834104B9847104B1B68002B05D1072225
:102D30000E4B083393430C4A13600D4B1B68E41889
:102D40000C4A944207D8A34207D2074A1568ED18E7
:102D5000074B1C6002E0002500E00025064B984769
:102D6000281C38BD412600000043002068080020D0
:102D7000640800208F3A00008D270000002801D051
:102D800072B6FEE77047C04670B572B6BFF35F8F8C
:102D9000154C00232370154B9847154B9847154B3E
:102DA0009847154B984701232370BFF35F8F62B696
:102DB000124D281C1249134CA047281C124901220D
:102DC000A047281C1149A047281C1149A047281CCE
:102DD0001049A047104B9847084E104D094C301C25
:102DE000291CA047FBE7C046D00000209505000045
:102DF000690B0000B50C0000691D00007002002086
:102E00009CFB0000195A0000ECFB000000FC0000D5
:102E100010FC000030FC0000E925000080FC0000F0
:102E200082B06B4600910192A622920094466044C3
:102E300006CB06C002B0704782B06B46009101928B
:102E4000A82292009446604406CB06C002B07047A8
:102E500008B5A4239B00C358002B01D0081C984739
:102E600008BDC04608B5A5239B00C358002B01D060
:102E7000081C984708BDC046F0B585B003930AAC5E
:102E80000027E7570BAC2678A624A4000559002D8F
:102E900005D104340459E30706D4101C0DE0A7241F
:102EA000A4000459E30702D56310C3585D59039B7E
:102EB0006410001900970196A84705B0F0BDC04600
:102EC00010B5A8239B00C258002A04D10433C3586C
:102ED000DC0705D40AE0A9239B00C358DC0702D510
:102EE0005C100459A2585B10C018904710BDC04632
:102EF000F0B557464E464546E0B482B00AAC0025D0
:102F000065570BAC2478002C02D07C30FF306BE08E
:102F1000384C0355384C045D002C5BD1072917D879
:102F2000002954D0FC23FF33C35C5C1C7F252C405C
:102F30007E35FF35455DA54249D0171C0139C9B220
:102F40005218FC21FF317F25AC46FE26760035E085
:102F50008E1E092E3BDDFC23FF33C45C631C7F21E6
:102F60000B407E31FF31415C092599420AD12EE0A8
:102F700047463B40013367463B405746C75D9F424B
:102F800009D124E0FC21FF31FF27B846803FBC4631
:102F90007E37FF37BA46575D04197934FF34E7703E
:102FA000DCB244540135EDB2B542E1DB0FE001344F
:102FB00065462C400137855DA54208D03D78C31891
:102FC0007933FF33DD70E3B243549742EFD17C3065
:102FD000FF3009E000240094A124A4000459081C37
:102FE000111C1A1C2B1CA04702B01CBC9046994611
:102FF000A246F0BD7D0200007F02000010B5041C57
:10300000A0239B00C35C002B04D0A2239B00C358C9
:10301000081C98470022014BE25410BD82020000B8
:103020007047C046F0B5474680B486B0051C0CA872
:10303000002686570DA80027C7570EA8007840B273
:103040008046281C14300124644200942C4CA04774
:103050000024A823EC54281CA83044600472447255
:103060008472C460046144618461311C254EB047A0
:10307000C423EC54281CC43044600472447284722B
:10308000C460046144618461391CB047E023EC549E
:10309000281CE0304460047244728472C46004618D
:1030A000446184614146B047A2239B00EC50043B3D
:1030B000EC502C700833EC54134BEC54134BEC5481
:1030C000134BEC54013BEC54124BEC54124BEC54AC
:1030D000124BEC54023BEC54FC23FF33EC54013311
:1030E000EC54281C0E4900220E4B9847281C0E4910
:1030F00000220E4B9847281C06B004BC9046F0BD39
:1031000045560000655A00008D0200008E02000046
:10311000810200007F0200007D0200007E020000AC
:10312000F12E0000212E0000FD2F0000392E00009E
:1031300070B5061C0D1C141C011CFC317F22204B99
:103140009847002C0CD0221C331CFE33FF331D4942
:10315000701811781970013201338342F9D11BE0E4
:103160004122FE23FF33F25447320133F25400234D
:10317000154AB354CD210132B1542239134AB15406
:10318000033AFF3A1249725412497254012106322D
:10319000FF32B154104AB354EAB2301C00210F4B35
:1031A00098470F4BF35C002B04D0301C04210D4BCF
:1031B000984703E0301C02210A4B984770BDC04677
:1031C0009136000006020000FF010000010200002D
:1031D000020200000302000005020000D1390000D5
:1031E0008D0200008137000008B50022014B98478E
:1031F00008BDC04631310000A4239B00C150704778
:10320000A5239B00C1507047FE235B00C25CFC23DA
:10321000FF33C2547047C046FE235B00C35CFC22F0
:10322000FF32825C9A420BD0C2187932FF32D278D8
:1032300001337F210B407E31FF31435490B200E0D7
:10324000014800B27047C046FFFF0000FC23FF3377
:10325000C35C8033FE225200805C1B1AD817420EDA
:103260009B187F200340981A40B270470122074BF9
:10327000C254833BFF3B064A8354064A8354FB3ABD
:10328000FF3A7E33FF33C2547047C04681020000CC
:10329000020200000302000010B582B06B46D98024
:1032A000074C6B46991D035D002B06D00B889BB223
:1032B0005A1E92B20A80002BF5D102B010BDC04652
:1032C0008202000038B5041C0022284BC2549F2201
:1032D0009200835C023383542549264B9847012290
:1032E000254BE2540A33E35C002B04D0201C03215D
:1032F000224B984703E0201C0121204B9847204B8C
:10330000E35CFF2B06D1FE22FF32A35C20218B431E
:10331000A3540CE01B4BE35C002B04D14122FE23A1
:10332000FF33E25403E06122FE23FF33E2549F2384
:103330009B00E15C201C221CFE32FF320023124D58
:10334000A847201C0A490B4B9847104BE35C002B05
:1033500004D0201C0421094B984703E0201C0221C3
:10336000064B98470022044BE25438BD810200000E
:10337000FFFF000099320000820200008137000048
:10338000020200008E020000D53A00008D0200000B
:1033900038B5041C2D4BC35C002B20D09F239B0011
:1033A000C35C7C2B51D8C218F932FF325171013302
:1033B000DBB29F22920083547C2B46D9244B984742
:1033C0000122224BE254833BFF3B224AA354224A70
:1033D000A354FB3AFF3A7E33FF33E25435E01F4BF0
:1033E000C15400231E4A8354013283541D491E4B8D
:1033F000984701221D4BE2540A33E35C002B04D0B2
:10340000201C03211A4B984703E0201C0121184B74
:103410009847201C0A21221CFE32FF320023154D42
:10342000A847201C0F49104B9847134BE35C002B17
:1034300004D0201C04210E4B984703E0201C0221DD
:103440000B4B98470022094BE25438BD8102000023
:10345000C532000002020000030200000602000064
:1034600007020000FFFF0000993200008202000006
:1034700081370000D53A00008D020000F8B5002A1F
:103480000CD0061C0C1C551EEDB201354D19044F15
:103490002178301CB8470134AC42F9D1F8BDC046A0
:1034A0009133000008B5024B1868024B984708BDDD
:1034B00004430020AD3B000070B584B0051C0E1C19
:1034C000A823C356013304D1184819492822194B9F
:1034D00098472B1CA8331A695B6813602C1C1434A2
:1034E000201C08210022144B9847201C311C134B30
:1034F000984701AC201C124B9847202301930023CE
:1035000063600122E272A3720020211C0D4B9847D8
:103510000D4B1D600D48002100220D4B98470020E7
:1035200000210C4B984704B070BDC046CCF8000099
:10353000E4F80000415A00004557000061570000C0
:10354000854800009948000004430020A53400008D
:1035500085470000AD470000F8B5041C171CC023C8
:1035600019430D1C183BC356013304D110481149AF
:103570002822114B9847231CA833DA685B68136034
:10358000261C1436301C291C0C4DA847301C391C35
:10359000A847A823E356013304D10548054928224A
:1035A000054B9847A834236962681A60F8BDC04685
:1035B000CCF80000E4F80000415A00007957000000
:1035C000F8B5041C3F25294041350D43A823C356B7
:1035D000013304D1114812492822124B9847231C69
:1035E000A833DA685B681360271C1437381C291C61
:1035F0000D4EB047381C291CB047C5B2A823E3566E
:10360000013304D1054806492822064B9847A834BF
:10361000236962681A60281CF8BDC046CCF8000017
:10362000E4F80000415A000079570000F0B587B077
:10363000041C0721124B98470390227C0F2702ABF2
:103640009C466744201CE1683B1C0E4DA847051CA6
:10365000201C0621802207230B4EB0477F212940E2
:103660003B786A460C2696570096424242410192A8
:10367000201CE268054DA847E06007B0F0BDC046D9
:10368000C1350000A93C0000393B0000792E000044
:1036900030B583B0041CC16002742F492F4B98478A
:1036A000C423E356013304D12D482E4928222E4B42
:1036B0009847231CC433DA685B681360E023E35641
:1036C000013304D1264827492822274B9847231C39
:1036D000E033DA685B6813600620244B9847C42304
:1036E000E356013304D11E481E4928221E4B984739
:1036F000231CC4331A695B681360201C0E2100224E
:103700001B4B9847201C0F211A4B98470823009306
:10371000201C02211F220023174DA847FF20400034
:10372000124B9847154D201C01211F220023A8474A
:103730000828F8D101230093201C042120220433FF
:103740000D4DA847201C0E210C22094B9847002341
:10375000E371237203B030BD40420F00B934000062
:10376000CCF80000E4F80000415A0000215B0000A2
:1037700059350000C1350000ED3B0000393B000029
:10378000F0B54F4680B486B002900F236B44197099
:103790001B78DBB2052B3BD89B00654AD3589F466C
:1037A000082316226A44137015226A441370B4E089
:1037B000062316226A44137015226A441370ACE083
:1037C000092316226A44137015226A441370A4E078
:1037D000162316226A44137015226A4413709CE063
:1037E000192316226A44137015226A44137094E058
:1037F000082216236B441A70053A15236B441A707D
:10380000029BDB79052B00D18EE0012399463DE038
:1038100002980421474B9847082316226A441370E4
:1038200015226A44137078E0E023029AD3560133DC
:1038300004D1414841492822414B9847029BE0333B
:10384000DA685B681360FA2040003E4B98476424B6
:103850003D4F17256D443B4E029801211F22002346
:10386000B84728702B78082B05D03220B047013C90
:10387000E4B2002CF0D117236B441B780022914650
:10388000082B03D0029801212A4B984715236B443B
:103890001B780093029802211F2200232B4CA04783
:1038A0008C24294F17256D44264E029801211F2292
:1038B0000023B847287016236B441B782A78DBB2A4
:1038C000934205D02020B047013CE4B2002CECD15B
:1038D00016236B441B7817226A441278DBB293429A
:1038E00003D002980121134B98474B46002B0ED072
:1038F000E023029AD356013304D10F480F492822FE
:103900000F4B9847029BE0331A695B6813600F23E3
:103910006B441B78029AD37106E0029BDB79052B7E
:1039200082D000239946B1E706B004BC9146F0BDB1
:10393000B4FC0000512E0000CCF80000E4F80000B8
:10394000415A0000215B0000393B0000ED3B0000C4
:1039500070B5041C0D1C0B072BD5C379991EFD22D5
:10396000114202D1154B984723E0012B07D10021CA
:10397000134B9847217A201C124B984719E0032BD0
:1039800017D10221E02202330F4EB047032806D0A0
:1039900007D30538434243410321C91A02E00121FC
:1039A00000E00021201C064B9847217A201C054B83
:1039B0009847201C291C054B984770BD2D360000E8
:1039C000C12E000081370000393B0000652E000049
:1039D000F0B5474680B482B0051C082964D8890038
:1039E000354B5B589F46D4B2231C0B3B0F2B07D89B
:1039F000009408211F220023304EB0472C7156E05E
:103A000002212F4B984752E0D2B2131C1133DBB284
:103A1000142B09D842712B4AD35C009305210F2245
:103A20000023264CA04742E00221254B98473EE068
:103A3000D2B2032A07D8827100920821602205239E
:103A40001E4CA04733E002211D4B98472FE0D1B216
:103A500001721D4B98472AE094B2E2B222211B4E1C
:103A6000B047220A281C2321B04720E094B2E2B2DA
:103A70002021164EB047220A281C2121B04716E00B
:103A8000171C0832141C2426104B98463A78281C20
:103A9000311CC0470136F6B20137A742F6D106E025
:103AA000D1B20B4B984702E00221054B984702B078
:103AB00004BC9046F0BDC046CCFC0000ED3B0000CD
:103AC000512E0000F0FC0000813700005935000045
:103AD000513B000070B5041C0E1C151C937801337B
:103AE0009370E023C356013304D10F480F492822B5
:103AF0000F4B9847231CE0331A695B681360E0237F
:103B0000E356013304D1084808492822084B984756
:103B1000231CE033DA685B681360201C311C2A1C0C
:103B2000044B984770BDC046CCF80000E4F8000094
:103B3000415A0000213C000038B5151C1C1C034BE9
:103B4000984728402041C0B238BDC046C13500006A
:103B5000F8B5061C0C1E342C0FD0342903D80025D0
:103B600033290BD007E0542903D00125942905D02F
:103B700001E0032502E0FF2411E00225301C0221B0
:103B80000322084FB847301C0C21074B98470323EA
:103B9000021C9A431543EAB2301C0C21B847201C82
:103BA000F8BDC04659350000C135000038B5041CC9
:103BB0000F210C4B9847051C430704D5201C0621F8
:103BC000084B984720702B0707D52378002B04D18A
:103BD000201C0621034B98472070201C291C024BF7
:103BE000984738BDC135000051390000F0B583B0A9
:103BF000051C161C1C1C08AB1F780191064B98472E
:103C0000B043C0B23A1CA24032400243281C019982
:103C1000024B984703B0F0BDC13500005935000094
:103C2000F0B583B0061C0F1C151CA823C356013326
:103C300004D1194819492822194B9847331CA83335
:103C4000DA685B68136014239C46B44463460193AE
:103C500060466021134CA0470198391CA0472C1CDA
:103C6000013FFFB20137ED190E4F21780198B84797
:103C70000134AC42F9D1A823F356013304D10648EC
:103C800006492822064B9847331CA8331A695B68FB
:103C9000136003B0F0BDC046CCF80000E4F80000AB
:103CA000415A000079570000F0B557464E46C0B45F
:103CB00083B0071C0191151C9946A823C3560133F4
:103CC00004D1244824492822244B98473B1CA8337C
:103CD000DA685B68136014239C46BC4463466646FE
:103CE0000093181C20211E4CA047301C0021A04727
:103CF000C6B2AE4218D8019A141C731EDBB201334F
:103D0000D518174B9A4600980021D04720700134EF
:103D1000AC42F8D14B46002B08D000980021104B44
:103D200098474B46187001E080231E43A823FB569A
:103D3000013304D1074808492822084B9847A8377F
:103D40003B697A681A60301C03B00CBC91469A46F5
:103D5000F0BDC046CCF80000E4F80000415A000075
:103D60007957000041607047021CBA208000135848
:103D7000591C1150D3183838844663449878B923B5
:103D80009B00D358994203D3BA218900535005E0D0
:103D9000312903D90021BA239B00D1507047C04676
:103DA00008B54368002B04D0011C1A68D268181C9F
:103DB000904708BD10B54368002B05D00A1C011CB4
:103DC00018684469181CA04710BDC04610B5436868
:103DD000002B05D00A1C011C18680469181CA04798
:103DE00010BDC04610B5041C034B083303600830F7
:103DF000024B9847201C10BD08FD00002130000038
:103E000010B5041C034B9847201C034B9847201CFB
:103E100010BDC046E53D00003371000038B50D1CF3
:103E20000122084BC2540830041C074B9847201C41
:103E3000291C064B9847201C054B98470520054B2D
:103E4000984738BDB10200006D3200009133000088
:103E5000C532000085280000F0B5474680B482B026
:103E6000061C08239C46844463460193144F154B5B
:103E7000984611E0B925AD007459631C735101983F
:103E8000C0473419AC239B009C466444A07073590E
:103E9000312B01D9002272510198041CB847002827
:103EA000E8D1201C084B98477068002803D00368AD
:103EB0009B68311C984702B004BC9046F0BDC046D8
:103EC0004D320000193200000932000070B500299F
:103ED0000DD0161C0D1C0830041C054B9847201CE7
:103EE000291C321C034B9847201C034B984770BD7C
:103EF0006D3200007D340000C5320000083070478C
:103F0000F0B585B0041C00254560134B08330360F1
:103F1000061C08363F230093103B01931B3B029382
:103F20000C330393301C3E21532232330B4FB847DE
:103F3000AC239B00E5540A4BE5543333E55004337E
:103F4000E550301C0749084B9847301C0749084B7F
:103F50009847201C05B0F0BD08FD0000253000008A
:103F6000B1020000BD3F000001320000A53F00008B
:103F7000F931000010B5084B1B68002B08D1BB209D
:103F80008000064B9847041C054B9847024B1C6069
:103F9000014B186810BDC046084300203B7100006B
:103FA000013F000010B5041C034B984703681B6ACF
:103FB000211C984710BDC046753F000038B5041C51
:103FC000114B9847051C630706D50122AC239B00C3
:103FD000C254230707D415E0230713D5AC239B0055
:103FE000C35C002B08D02B689B69281C98470022D3
:103FF000AC239B00EA5405E00368DB699847002284
:10400000024BEA5438BDC046753F0000B1020000C3
:1040100008B54368002B04D0011C1A689268181C6C
:10402000904708BD10B54B68DA0701D40A6803E071
:104030005A1084580A68A2585B10C018904710BDE7
:1040400010B5041C084B08330360084B8360191C2F
:104050001831E42281504C3304328350E430044B55
:104060009847201C10BDC04638FD0000E800010044
:10407000C959000010B5041C034B9847201C034B82
:104080009847201C10BDC04641400000337100001D
:1040900008B5E430014B984708BDC046ED59000013
:1040A00008B5E430014B9847C0B208BD055A00007E
:1040B00008B54160002810D0B023C0500A4A04332C
:1040C000C25000220433C250084A0C33C250683038
:1040D00000210122064B984704E0682000210022BD
:1040E000034B984708BDC046114000002540000022
:1040F000DD53000070B5041C00254560054B0833F6
:10410000036008300023044EB047FC23E550201C18
:1041100070BDC04638FD0000BD5700007047C04666
:104120007047C0467047C0467047C04638B54468BF
:10413000002C08D0081C23689D680B68DB68984732
:10414000011C201CA84738BD10B5031C00291CD039
:10415000081C1C1C0B68DB6898479A2149006358AF
:104160005A1C6250E31818723E23FF33E35C83420B
:1041700004D13439FF399E235B00E1542C23FF33F3
:104180009A4202D900220933E25010BDF8B54368C3
:10419000002B24D09E235B00C35C002B1FD0041C8B
:1041A0009C256D002C26FF36002763595A1C62514E
:1041B000E318197AB24200D967519A235B00E35899
:1041C00062599A4202D19E235B00E75460680368FB
:1041D0009B6898479E235B00E35C002BE5D1F8BD0C
:1041E0009E235B00C05C704770B5CCB0031C0029F7
:1041F00064D0081C1C1C0B68DB689847051C061E55
:10420000022E0FD100239A225200A3500432A35051
:1042100001A82B4B9847019A2A4B1A60029A5A60C0
:1042200001221A729A225200A358591CA150E31875
:104230001D723E23FF33E35CB34235D1201C0830AE
:1042400001A9214B9847061C01A854211F4B9847F0
:10425000002818D000229E235B00E254194D281C30
:104260002530FF3001A92D32FF32194B98478423A6
:10427000EE54C033E058002816D00021002200235D
:10428000144DA84710E014481449154B98470122D3
:104290009E235B00E2540433E058002804D0002140
:1042A000002200230B4DA8479A235B00E2582C23E1
:1042B000FF339A4202D900220933E2504CB070BD5C
:1042C0003D080000640400202102000011030000EA
:1042D00047AA0000212100007002002054FD0000C8
:1042E000195A00007047C04610B5041C014B98478E
:1042F000201C10BD337100007047C04610B5041C6F
:10430000014B9847201C10BD3371000010B5041CF0
:10431000014B9847201C10BD33710000024B08333D
:10432000036041607047C04658FD000010B5041C92
:1043300041600B4B0833036000239A21490043502E
:1043400004314350043143543E23FF33C2540830F8
:10435000002196225200034B9847201C10BDC046F6
:10436000A0FD000059AA000070B5041C161C1D1CFD
:104370000322064B9847A0235B00E650044B08330A
:104380002360A2235B00E550201C70BD2D4300007C
:1043900078FD000008B572B6962001F0CDFB96209E
:1043A00001F0CAFBF8E7C0460B4A30B59468926842
:1043B000231C002A0CD1002380221D5992059A1833
:1043C00004331560B02BF7D18023034A9B0593601B
:1043D00010308000C15030BD00ED00E008B5044B46
:1043E0001A78002A03D101321A7000F013FC08BDBC
:1043F0000C430020036870B51B6900210122041CD6
:104400009847061C431C0ED0236800211B6902221A
:10441000201C9847051C2368201C1B69311C0022A6
:104420009847281C70BDFDE708B503480421052204
:1044300000F01EFE08BDC046B8440020094B10B570
:1044400008330360084B00215A1CFF3202E004339A
:10445000934206D01C688442F9D119600433934218
:10446000F8D110BDE0FD000010430020F0B5474634
:1044700080B40E1C82B03449051C07F073FF041E83
:1044800008D1324B1B68002B0FD0201C02B004BC9B
:104490009046F0BD281C2E4907F064FF002807D184
:1044A0002A4B01241B68002BEFD1FFF7BDFFECE77F
:1044B000281C284907F056FF002824D0264F002446
:1044C0003B1C03E001340433402C22D01A68002A3C
:1044D000F8D12B783A2B30D06846291C01F034F8FB
:1044E000684601F08BF8002813D0684601F068F8A0
:1044F000002811D0684601F06FF8002809D0A30009
:10450000F8500334C1E7114B02241B68002BBCD1C7
:10451000CBE701246442B8E7684601F043F8051E82
:10452000F7D0036868469B68984601F039F80B4A53
:10453000011C3240281CC047DFE7281C08496A4696
:1045400007F09AFE0098D8E7C8FD00001844002044
:10455000D8FD0000D0FD000010430020FFFFFEFF4B
:104560000CFE000008B5031C0020022B0ADD0749E1
:10457000033B9B005A585850002A04D01368101C63
:104580005B68984708BD01204042FBE710430020CC
:10459000F8B50C1C171C022812DC104B1B68002BF2
:1045A00001D1FFF741FF002F08D00D4DE61921780A
:1045B000281C013400F0A8FFB442F8D1381CF8BD23
:1045C0000338084B8000C058002803D003681B68DC
:1045D0009847F4E701204042F1E7C0461844002024
:1045E000B84400201043002010B50C1C022809DC40
:1045F0000C4B1B68002B0FD00B4800F059FF2070AC
:10460000012010BD0338094B8000C058002806D097
:1046100003689B689847F4E7FFF706FFECE7012083
:104620004042EEE718440020B84400201043002028
:1046300008B5031C0120022B08DD033B054A9B0043
:104640009858002803D00368DB68984708BD01200C
:104650004042FBE71043002008B5031C0020022B5A
:1046600008DD033B05489B001858002803D0036869
:104670001B69984708BD01204042FBE7104300201A
:1046800008B5022804D8802300209B014B6008BD98
:1046900005F0B2FD0923036001204042F7E7C04660
:1046A00008B5012005F0AEFD7047C04608B5FFF71C
:1046B00095FEFFF7F9FFFEF767FB08BD074A136891
:1046C0001818EFF30881884202D21060181C704756
:1046D0000C220120024B40421A60F8E7CC00002077
:1046E0002845002008B5002800D1FEE7FFF752FE5C
:1046F000FBE7C04608B5002107F0BFFC08BDC04677
:1047000008B505F0EFFE08BDFEE7C046164817499C
:1047100010B588420DD0164B99420AD2CA43D3181D
:1047200000229B0801339B0084588C5004329A422B
:10473000FAD11049104B99420BD2CA430020D3182A
:1047400000229B0801339B008C18043220609A429F
:10475000FAD1FF21094B0A4A8B43936006F0D6F841
:10476000FFF7A4FFFEE7C0464C0C0100B00000209C
:1047700074010020740100202C450020000000007E
:1047800000ED00E01723002A01D0181C7047064AEC
:1047900089008B58002B03D0834203D01D23F4E7FC
:1047A0008850F2E70023F0E778440020172300291F
:1047B00001D0181C704700221F2800D8024A01238C
:1047C0008340D3600023F4E700180040F8B50023CD
:1047D00001260B4C0B4D0C4F2370321C9A4029695B
:1047E000114205D02A619B00DB59002B00D098476D
:1047F00023780133DBB223700F2BEED9F8BDC0460E
:104800007444002000180040784400200223044A29
:1048100011780B43137053785BB2002BFBDB7047AE
:1048200000180040402300B5124A83B0916905206A
:104830000B439361002301A90B7000F0C9F9052017
:1048400000F088F901230C4A11780B431370537858
:104850005BB2002BFBDB094B0022191C403104C367
:104860008B42FCD11022064B1A60FFF7CFFF03B03A
:1048700000BDC046000400400018004078440020FD
:1048800000E100E0002301220360436083720233F1
:1048900002724272C3727047F0B500230C1C83B0E1
:1048A00001A94B70CB702379051C0B70237A2078FB
:1048B0008B70002600F082F81F2D00D8124E0722C0
:1048C000A37A2A409200E07A002B01D008231843F3
:1048D0000F279740EB089B00F31899699040B94364
:1048E0000A1C02439A61637A002B06D10122AA4076
:1048F00073699343736103B0F0BD0122AA40151C94
:1049000073691D437561F6E700180040D37870B5F0
:10491000002B31D11478802C47D0802324065B02F1
:104920001C43537802251E1CAE4307D19378002BFD
:1049300037D180239B021C4341605378013B012BFC
:1049400035D9A0250B04ED051B0C2B43D0252343A3
:1049500083622D060B0C2B4323438362D378002BF9
:1049600009D1630303D59378012B23D04161537898
:10497000013B012B13D970BDA0240B04E4051B0CD3
:104980002343D0244160240683620B0C23438362BB
:10499000D378002BEFD15378013B012BEBD881600A
:1049A000E9E7C023DB021C43C6E70024B9E7024B5A
:1049B0001C40C6E78161DAE7FFFFFBFF08B50A1C70
:1049C000031CC1090020002904D1064958098C465E
:1049D000C00160441F210B401E399940FFF796FF2C
:1049E00008BDC046004400410823064A91690B43B4
:1049F000936101230121044A137013781942FCD1F9
:104A00007047C04600040040000C004070B50D78AF
:104A10004B782D02041C0543002B02D08023DB02BF
:104A20001D434B7A002B02D080231B031D434E688D
:104A3000012E0FD9731E334029D1022E05D0022238
:104A4000013352009642FBD81B0218438023041CFA
:104A50005B031D430B7A002B02D080239B031D4375
:104A60000E4A53780D4E5BB2002BFADB00F0DEF8F5
:104A7000B4607378094A5BB2002BFADB802351687B
:104A80005B020B401D43556000F0EEF870BD8023C3
:104A900034029B0204431D43DCE7C046000C004087
:104AA00010B5041C0B4A53785BB2002BFBDB00F003
:104AB000BDF8094B07491C704B78064A5BB2002BC6
:104AC000FADB8021536849020B43536000F0CCF8B5
:104AD00010BDC046000C0040040C0040F8B5071C97
:104AE000194A53785BB2002BFBDB00F09FF8174BA1
:104AF000154A1F705378144C5BB2002BFADB6068C8
:104B0000C004C00E01F034F9061C104B1F7065681C
:104B10000F4BED02ED0F1F7063785BB2002BFBDBD8
:104B2000094B9968090A8CB200F09EF8002D03D059
:104B3000611CCE40301CF8BD012CFBD9301C211C5F
:104B400002F014FB061CF5E7000C0040040C0040CA
:104B5000080C004010B5041C00F068F88021054BDB
:104B6000054A1C705388C9010B43538000F07CF840
:104B700010BDC046020C0040000C004010B5041CE3
:104B800000F054F880200E4B0E4A1C7054880E4BD7
:104B9000518824050B40538051880C4B240F0B4047
:104BA0005380C001538807490342FBD14888064B14
:104BB0002202034013434B8000F056F810BDC0465C
:104BC000020C0040000C0040FFF0FFFFFFBFFFFFA2
:104BD00010B50C7824020443FFF7D0FF014BA4B2B8
:104BE0005C8010BD000C004010B5041C00F01EF8E5
:104BF000054B1C70054B5C8800F036F82405240F2B
:104C0000201CFFF76BFF10BD020C0040000C0040A1
:104C10007047C04608B501F03FF9FFF7F9FFFFF70D
:104C2000F7FFFFF7FFFDFFF7F3FF08BD0B4B1A6817
:104C3000002A05D1EFF31081002905D008490A7038
:104C40001A6801321A60704772B6BFF35F8F054A67
:104C50001170034A01311170F2E7C0461044002080
:104C600014440020D0000020084B1A68013A1A6052
:104C70001B68002B09D1064B1B78002B05D00122A5
:104C8000044B1A70BFF35F8F62B670471044002068
:104C900014440020D000002038B5104A104D147E76
:104CA0006868937DE4B2DBB2002816D01C40022372
:104CB000234206D013760B4B1B68002B01D0012139
:104CC00098470423234208D0044A1376054B1B68F7
:104CD000002B02D068680021984738BD000C0042C4
:104CE0001C4400203444002038B5104A104D147E76
:104CF0002869937DE4B2DBB2002816D01C40022361
:104D0000234206D013760B4B1B68002B01D00121E8
:104D100098470423234208D0044A1376054B1B68A6
:104D2000002B02D028690021984738BD00180042A6
:104D30001C4400203444002038B5104A104D147E25
:104D40002868937DE4B2DBB2002816D01C40022311
:104D5000234206D013760B4B1B68002B01D0012198
:104D600098470423234208D0044A1376054B1B6856
:104D7000002B02D028680021984738BD0008004267
:104D80001C4400203444002038B5104A104D147ED5
:104D90006869937DE4B2DBB2002816D01C40022380
:104DA000234206D013760B4B1B68002B01D0012148
:104DB00098470423234208D0044A1376054B1B6806
:104DC000002B02D068690021984738BD001C0042C2
:104DD0001C4400203444002038B5104A104D147E85
:104DE000A868937DE4B2DBB2002816D01C400223F1
:104DF000234206D013760B4B1B68002B01D00121F8
:104E000098470423234208D0044A1376054B1B68B5
:104E1000002B02D0A8680021984738BD001000423E
:104E20001C4400203444002038B5104A104D147E34
:104E3000E868937DE4B2DBB2002816D01C40022360
:104E4000234206D013760B4B1B68002B01D00121A7
:104E500098470423234208D0044A1376054B1B6865
:104E6000002B02D0E8680021984738BD00140042AA
:104E70001C44002034440020F0B54F464646C0B4E0
:104E8000041C85B000285CD0006800F059FF0E2596
:104E9000002314306D44C0B22B80A7696669FFF708
:104EA000A3FE1023011C0093381C2A1C002300F0D1
:104EB0005FFE2268D369002BFCD12B889381E268C6
:104EC000236913431D22A256013228D0C025AD020A
:104ED0001D431C23E356013319D0A268FF2A1BD0BF
:104EE000294B15431E43002C25D02268D369002B83
:104EF000FCD15560002C18D02268D369002BFCD15E
:104F00000020166005B00CBC90469946F0BD1F4BC2
:104F1000A2681D40FF2AE3D11D4B1E43E3E71D4D50
:104F20001D4080235B021D43D3E71B481B493F22E2
:104F300000F086FDE0E7184818493F2200F080FDA8
:104F4000D3E7154B154F181C391C9C22984600F0CE
:104F500077FD206800F0F4FE0E25A36914306D443F
:104F6000C0B299462C806669FFF73EFE1023011CF3
:104F700000932A1C4846002300F0FAFD4046391CE5
:104F80003F2200F05DFD94E704000041FFFFFEFFBB
:104F900004000040FFFFFDFF28FE00002CFE000083
:104FA00070B5051C86B000283CD01C201D210023B4
:104FB00028566956029303930493059301F016F95A
:104FC0000024061C1C202B191856311C01F09EF9D8
:104FD000A30002AA0134D050042CF3D1039B00207B
:104FE0000193013B022B02D8114A9B0098581E22C4
:104FF000AB5E013308D0029B002B03D1049B0193CD
:10500000022B08D006B070BD029B022BFAD1802380
:105010005B021843F6E7059B032BF3D180239B0229
:105020001843EFE703480449712200F009FDBCE78B
:105030001CFE000028FE00002CFE000010B5041E1F
:105040000BD0FF23A3600023E360236196239B0121
:10505000A36188235B03636110BD03480349E12218
:1050600000F0EEFCEDE7C04628FE00002CFE00003C
:10507000F0B54E4645465746E0B4041C84B00E1CBD
:10508000151C002800D19DE0604F3B78002B00D11B
:1050900083E0201CFFF7D2FFFF232677A377E37777
:1050A0006577201CFFF77CFF291C071C301C01F0D2
:1050B0009DF8431C17D00F2505400120291C4042B4
:1050C00001F046F9061C021C2060002C6AD0D3694E
:1050D000002BFCD1022113688B431360012223684B
:1050E0001868024205D004B01CBC90469946A246FE
:1050F000F0BD1B6819408846F5D1A81C8240444980
:105100000B6A1A430A62424602AB1A70142399468C
:10511000A94402A94846FFF75BFD4846FFF71AFD80
:105120000021002000F0ECFD6761201CFFF7A4FEC9
:10513000424602AB5A719A71DA712023271C9A46B3
:105140001C37A2440023FB56994601330FD0484632
:10515000291C01F0B7F802ABC0B21871FF2806D0C5
:105160006A464B46D371D07903A9FFF727FC013774
:105170005745E7D1274B9E4230D0002C28D02368DA
:10518000DA69002AFCD1002C31D0DA69002AFCD17E
:10519000196802320A431A60A5E7FFF73BFD0123B5
:1051A0003B7076E71C4B562299461C4B4846984666
:1051B000191C00F045FC3F224846414600F040FCE7
:1051C000226884E714481549ED2200F039FC5BE7BA
:1051D000114812493F2200F033FCD0E70122104B66
:1051E000211C1A600F48473205F02DFCC5E70A4E16
:1051F0000A4D301C291C4A3200F022FC301C291CAC
:105200003F2200F01DFC2368BFE7C0460C4300208E
:10521000000400400008004228FE00002CFE0000B0
:1052200018440020B844002010B5041E21D0236883
:10523000134A93421BD00ADD124A93420FD0124AFE
:10524000934212D0114A93420BD0002006E0104A3C
:10525000934208D00F4A9342F7D10F4810BD0F4830
:10526000FCE70F48FAE70F48F8E70F48F6E70F4862
:10527000F4E7AC220E480F49920000F0E1FBD6E7BC
:105280000010004200180042001C004200140042BE
:1052900000080042000C0042994C0000E94C00005C
:1052A000294E0000394D0000894D0000D94D000005
:1052B00028FE00002CFE0000F0B54746041C80B418
:1052C0000E1C151C002820D0184B19602268184BA2
:1052D0009A4218D00DDC174901238A4203D016499F
:1052E00001338A420DD1154A9B009D5004BC904663
:1052F000F0BD134904238A42F5D0124901338A4292
:10530000F1D00023EFE70323EDE70F4BB3229846DC
:105310000E4F181C391C920000F092FB034B4046C4
:10532000391C0B4A1E6000F08BFBCFE73444002091
:1053300000140042000C0042001000421C440020F7
:1053400000180042001C004228FE00002CFE000055
:105350006602000010B5041E24D02368154A93424B
:105360001ED012DD144A934218D0144A0E209342E4
:1053700009D0134A0238934205D012481249134A01
:1053800000F05EFB092040B210BD114A0920934293
:10539000F9D0104A01309342F5D0EEE70D20F2E744
:1053A0000B20F0E7B5220C480749920000F048FBBB
:1053B000D3E7C0460010004200180042001C004223
:1053C00000140042300601002CFE0000E302000041
:1053D00000080042000C004228FE0000F0B54746DD
:1053E000041C80B40E1C171C00283FD0201CFFF7A3
:1053F0001BFF8046201CFFF7ADFF051C002F11D0BE
:10540000002E23D0012E1DD0281C4146FEF7CCFFD4
:105410001F231D401E3BAB401D1C174B1D6004BCD1
:105420009046F0BD002E15D0012E02D10222236835
:105430001A751F231D401E3BAB401D1C80230E4AC6
:10544000D550ECE7022223689A75DDE70422236831
:105450009A75D9E7042223681A751F231D401E3B45
:10546000AB401D1C8023044AD550D8E703480449AB
:10547000044A00F0E5FAB9E700E100E028FE000088
:105480002CFE0000EB02000010B5041E04D02368BF
:10549000187E4007C00F10BD02480349034A00F0C0
:1054A000CFFAF4E728FE00002CFE000023030000E2
:1054B00010B5041E08D0201CFFF7E6FF0028FAD024
:1054C0002368188D80B210BD02480349034A00F0DA
:1054D000B7FAF0E728FE00002CFE000011030000E0
:1054E00010B5041E04D0012023681B7E184010BD97
:1054F000CC2203480349920000F0A2FAF3E7C04629
:1055000028FE00002CFE000038B5041C0D1C0028ED
:105510000ED0ED05ED0D201CFFF7E2FF0028FAD0BC
:10552000022223681D8521680B7E1A42FCD038BDFB
:1055300002480349034A00F083FAEAE728FE000024
:105540002CFE00001903000038B5002303604360FF
:105550000B78041C2F2B01D0201C38BD4B78002B5E
:10556000FAD0481C20604B782F2B14D0002B15D07C
:10557000031C01E0002A0CD05D1A013323601A7865
:105580002F2AF7D1291C0133236001F039FB606019
:10559000E2E7291CF9E7031C0021F4E70021F4E706
:1055A00000687047436810B5002B07D0041C181C16
:1055B00001F046FB012801D1606810BD0020FCE726
:1055C000406808B5002805D001F03AFB4342584135
:1055D000C0B208BD0020FCE7436810B5002B0AD01C
:1055E000041C181C01F02CFB002804D16068002862
:1055F00001D0043810BD0020FCE7C0464068431EBF
:105600009841C0B27047C0467047C04610B50028E8
:1056100008D014685368002C05D0DA0705D45B1055
:10562000C018A04710BDDA07FCD55B10C01803688E
:105630001C59A047F6E7C04610B5041C01F079FDDF
:10564000201C10BDF0B556465F464D464446914677
:105650000022F0B4051C041C87B0039310AB9A56CB
:10566000264B8A46083308C59346281C0021402251
:1056700005F0F2F90023221C0493059304A9483293
:1056800041C941C21E4A22651E4A62651E4AA26580
:10569000221C48322366E46562661C4AA266BFF398
:1056A0006F8FBFF34F8F8022E366A3500432A35461
:1056B0000432904641468C27803A625090265A46E2
:1056C000E351134B0092A351281C51464A46039BB9
:1056D00000F09CFF4346E259E158281C002301F0EA
:1056E0008DF8281CA15901F03DF9201C07B03CBCE5
:1056F00090469946A246AB46F0BDC046C8000100A0
:105700001FB504247C440FCC98471FBD0D560000E4
:1057100040420F0070B50A4D2B6883420FD088239A
:10572000061DC1580433C258041C0023301C01F06C
:1057300065F89023301CE15801F014F92C6070BD1D
:105740003844002008B58823C1500433C2500022D9
:10575000024B1A60FFF7DEFF08BDC0463844002048
:1057600008B590230022C150024B1A60FFF7D2FF08
:1057700008BDC0463844002038B50D1C041CFFF796
:10578000C9FF291C201D01F069F938BD08B500F0DA
:10579000B5F808BD08B4024B9C46DC3808BC60472D
:1057A0008D57000008B500F0AFF808BD08B4024BF3
:1057B0009C46DC3808BC6047A557000038B5041C7F
:1057C0001D1C00F043F8201C291CDC3000F0DAF826
:1057D000064B201C1A1C191C08322260DC222031C6
:1057E000A15054330432A35038BDC046E00001003C
:1057F00008B54B005918C90043181A1CB832526832
:10580000A8331B68002A06D0002B03D04118AC3106
:10581000181C904708BD002BFCD09847FAE7C046FB
:1058200010B5002808D014685368002C05D0DA079A
:1058300005D45B10C018A04710BDDA07FCD55B107B
:10584000C01803681C59A047F6E7C046F0B54746A4
:1058500080B4244B82B003600025031C171C6A46E9
:10586000041C009501950833884603CA03C31E4BE8
:1058700023611E4B63611E4BA361231C0833256209
:10588000E46163621B4BA362BFF36F8FBFF34F8F63
:105890005C23261CE56225646564A5656036E554D5
:1058A0000133E554301C0021482205F0D5F8A82327
:1058B0009622E5501433E5500433E5501433E55097
:1058C00092010433E250301C41463A1CFFF7D0FBF2
:1058D000301C0949221CFFF7EFFC201C02B004BC5D
:1058E0009046F0BD480101001FB504247C440FCC54
:1058F00098471FBD21580000F157000008B56030DF
:10590000FFF7D6FD08BDC04610B50C1C6030FFF790
:10591000FBFD201C10BDC04600207047F8B58E1856
:10592000051C0F1C0C1EB44202D10AE0A64208D08E
:1059300001342B68621E5B6A1178281C9847431C4F
:10594000F4D1E01BF8BDC046F8B58E18051C0F1C3D
:105950000C1EB44205D10AE00134631E1870A64241
:1059600005D02B68281C9B6A9847431CF4D1E01B88
:10597000F8BDC046002070470020704700207047E7
:105980000020704710B5041C84B001F05BF90B4B8C
:1059900001A81A1C3C336360002308326361226053
:1059A0000749221C06F046FC064901A804F096FEB1
:1059B0006061FEF79FFE201C04B010BD5001010085
:1059C0000CFE000094010100074B10B51A1C041CCA
:1059D00008323C3302604360406904F081FC201CC3
:1059E00001F044F9201C10BD5001010038B50D1C18
:1059F000041C406904F034FD281C616904F0A0FE19
:105A000038BDC04610B5041C406904F029FD60692A
:105A1000FEF776FE10BDC0460EB430B5041C82B051
:105A200005AB20CB4069019304F01AFD6069291C85
:105A3000019A05F0EFF902B030BC08BC03B018477A
:105A400038B5051C0C1C131C291C0248221C00F034
:105A500003F838BD980101000FB4012008B504F027
:105A6000D1FBC04638B50D1C041C00F08BFA6B1C32
:105A70000ED00023E35601330BD0E3686268201C8C
:105A800001211A6000F0E6FA201C002100F0BAFAA9
:105A900038BD034803492822FFF7D2FFEDE7C0468F
:105AA000CCF80000CC01010002E0834206D00C31AA
:105AB0000023CB565A1CF8D1181C70474868FCE7E5
:105AC000021C08B5531C03D10BE09A420AD00C31DA
:105AD0000023CB56581CF8D10448FFF7BDFF012026
