S01A000041746D656C5F726164696F5F746573745F332E73726563F8
S21400000000800020A5460000A1460000A146000092
S21400001000000000000000000000000000000000DB
S214000020000000000000000000000000792B000027
S2140000300000000000000000E52B0000292C000056
S214000040A1460000A1460000A14600004D0A00009F
S21400005065470000A1460000A14600000000000021
S214000060A1460000A1460000A1460000A1460000EF
S214000070A14600000000000000000000A1460000AD
S214000080A1460000A1460000ED6C0000F96C0000DF
S214000090056D0000000000000000000000000000E9
S2140000A0000000000000000000000000A146000064
S2140000B00000000010B5064C2378002B07D1054B36
S2140000C0002B02D0044800E000BF0123237010BDBF
S2140000D07401002000000000AC0C010008B5084BBD
S2140000E0002B03D00748084900E000BF0748036814
S2140000F0002B00D108BD064B002BFBD09847F9E734
S21400010000000000AC0C010078010020AC0C0100DF
S2140001100000000010B5002803D101220A4B1A6027
S21400012010E0041C452303700B681BBA421C1360C6
S2140001304B681BBA421D13600889044B9847093464
S21400014020800B2010BDC04690010020C104000096
S214000150F0B5CDB0002804D000230022002905D138
S2140001601BE00122114B1A6000241BE0104E1027E2
S214000170C45C132C0BD8A5007559AF4601ADAD185D
S214000180EF54013201ADAD184034EC5402E001AD3D
S214000190AD18EC5401338B42EAD1541801A9221C45
S2140001A0044B9847201C4DB0F0BDC046900100207F
S2140001B004F80000DFA9000010B5002807D00029C9
S2140001C005D0027800230024032A05D111E001227D
S2140001D00A4B1A6000200FE0102A04D10133C25CDB
S2140001E0403A0A5500E00A5501330134C25C032A3E
S2140001F0F2D103230B55601C10BDC04690010020B1
S21400020070B5CCB0002803D10122154B1A6025E04A
S2140002100D1C041C002A11D001AD291C114B984757
S214000220C41E281C211C00220F4B98472C5B0F4B2A
S2140002309847201A441EA041C0B20FE0CE1E311CC3
S2140002400022094B9847611902390B781B02A25D00
S214000250D3189BB2C01A431E9841C0B24CB070BDB2
S21400026090010020B9010000A1040000C1040000B4
S214000270002803D10122044B1A6004E000780238FB
S21400028043425841C0B2704790010020002803D175
S2140002900122044B1A6004E0407845384342584136
S2140002A0C0B270479001002070B5061C0D1C0A4BAA
S2140002B09847041E0ED0301C084B9847002803D0E1
S2140002C0452D07D00C2300E00123F45C641B60423C
S2140002D04441E4B2201C70BD710200008D02000093
S2140002E038B5041C0D1C0C4B9847002812D0002D66
S2140002F010D0201C094B984700280BD0A31C1B6865
S2140003001BBA2B60A31D1B681BBA6B606089044B6D
S2140003109847288138BDC046710200008D02000053
S214000320C1040000014B18687047C04690010020C9
S21400033010B5141C002803D101220A4B1A600FE0E6
S214000340002907D10322074B1A60542303700024A8
S214000350601C05E0542303700130034B9847F7E711
S21400036010BDC04690010020DFA90000F8B50028A7
S21400037003D10122134B1A6022E01E1C171C041C1A
S21400038002230370002904D001300F4B9847451C08
S21400039000E001256019391C321C0C4B98474519A2
S2140003A0201C291C00220A4B984760556319000A36
S2140003B05870A91C601C074B984703232354013030
S2140003C0F8BDC04690010020150100003103000072
S2140003D0A104000051010000F0B583B0041C019197
S2140003E0171C1E1C164B98470025002824D0201CDE
S2140003F0144B98470C35002800D10B3D002E03D037
S214000400201C311C104B9847635D542B10D1002FD5
S21400041009D0691C019D033D6D1A6118381C2A1C01
S2140004200A4B984708E00122094B1A60002503E0B2
S2140004300422074B1A600025281C03B0F0BDC046F6
S214000440710200008D020000E1020000DFA900003A
S2140004509001002010B5000283B208220020094C4B
S214000460011C594009B2002903DA4000604080B2FE
S21400047001E0400080B25B009BB2013A92B2002AD3
S214000480EED110BD2110000010B5041C001248402B
S214000490024B98472402604080B210BD550400000D
S2140004A070B5051C101C002907D02C1C6D18034EB7
S2140004B02178B0470134AC42FAD170BD89040000FF
S2140004C0FF2303401B02000A181880B27047C0467C
S2140004D07047C04610B5041C064B0360191C183143
S2140004E0DC2281504C3304328350DC30024B984778
S2140004F0201C10BD480101006159000008B4024BE1
S2140005009C46DC3808BC6047D504000008B4024BA3
S2140005109C46E03808BC6047D504000010B5041CB3
S214000520014B9847201C10BDCB70000008B503484F
S214000530DC300349034B984708BDC04694010020B1
S21400054054F80000B1590000F0B583B03220042101
S2140005500022104B9847104B18601F1C0F4DDC35BF
S2140005603B68002B08D110E0281C01990C4CA047D2
S214000570281C0C49A04700E0074E306801A900225D
S2140005800023094CA0470028EED1FA204000074B74
S2140005909847E5E7451F00008802002094010020E8
S2140005A0B159000068FC0000252100001D2800004D
S2140005B010B582B00190084B1868002809D001A930
S2140005C000220023054CA047013843425841C0B2E0
S2140005D000E0002002B010BD88020020951F000039
S2140005E010B5041C084B0360191C1831DC2281501E
S2140005F04C3304328350DC30044B9847201C044BA9
S2140006009847201C10BDC0464801010061590000F3
S214000610CB70000008B4024B9C46DC3808BC604730
S214000620E105000008B4024B9C46E03808BC604771
S214000630E105000038B5064C201C042105220023E5
S214000640044DA847201C0449044A054B984738BD6A
S2140006509401002055570000D5040000B00000208B
S214000660BD700000F0B55F4656464D464446F0B4B1
S21400067083B0012000210322434B9847041E04D078
S214000680002100220023414DA84780256D00281C2C
S2140006903F4FB8478146042105223E4EB047281CEE
S2140006A0B847051C10211122B0470820B847291C5E
S2140006B0394EB0470820B8474946B047A420400006
S2140006C0B8478046354A93464B4601934946221C16
S2140006D05E46F36C324EB146B047A4204000B847A1
S2140006E0061C291C221C5B46DB6CC8472D4B984712
S2140006F082462D4B98470C212C4B9847A42040004F
S214000700B847071C5A46D36C5146221CC847019866
S21400071003681B69391C984753461B681B6950467B
S214000720311C98472B681B69281C391C9847204D9C
S214000730002C00D1FEE7201C00210122524200239B
S214000740A8470128F4D143461B68DB694046984712
S214000750002804D043461B689B6940469847336888
S214000760DB69301C9847002803D033689B69301C2F
S21400077098473B68DB69381C98470028D8D03B6808
S2140007809B69381C9847D3E7451F0000951F00005B
S214000790D37000008D400000B54200009C0400208D
S2140007A0014300000D3F0000953E0000813100002F
S2140007B02521000070B5041C134A138802218B43C0
S2140007C01380937ADB09FCD10F4B1E690F4A116820
S2140007D0216052686260198802220A431A80012347
S2140007E0237263689B19636060682568FA21C901F3
S2140007F0074B9847451925606068FA21C901054BE3
S21400080098476160301C70BD00140040B80000209E
S2140008100571000011720000F0B5474680B484B040
S214000820019002910392184A138802218B43138089
S214000830937ADB09FCD10298144FFA218900B84755
S214000840114D2961019B124C23600298114B98466A
S214000850FA2189009847FA239B0058436060606835
S2140008602668FA21C901C047861926606068FA2101
S214000870C901B84761602A88022313432B8004B05D
S21400088004BC9046F0BDC046001400401172000043
S214000890B800002005710000F0B58DB072B6BFF349
S2140008A05F8F0022594B1A70594B5A68FA218900FB
S2140008B08C4662445A60574A1178574A11705A68F3
S2140008C0564B9A4203D80022524B1A7002E001227D
S2140008D0504B1A704F4B1B78DBB24F4A12789A4235
S2140008E017D04C4B1C78E4B24D4B1B785BB20133EF
S2140008F004D14C484C4928224C4B9847002C04D035
S214000900474B1A695B68136003E0454BDA685B681F
S21400091013603F4C60682568FA21C901444B98472C
S214000920451925606068FA21C901424B9847616005
S214000930414B1B68002B60D0404B1B68002B3CD102
S2140009403F4B1A683D4B1A603B4C2068C317C018D3
S2140009505840FA21C901364B984709902068C317BA
S214000960C0185840FA21C901324B98470A912368AB
S214000970002B03DA002209AB1A7202E0012209AB4F
S2140009801A72234E04AC09AD6B462A1C83CA83C375
S214000990201C31687268B3682A4FB847231C07CBFF
S2140009A007C6294E6B4607CD07C3201C3168726800
S2140009B0B368B8470ECC0EC603E0204A1368013B66
S2140009C01360214C60682568194FFA21C901B847A1
S2140009D0451925606068174EFA21C901B047616065
S2140009E00B4C60682568FA21C901B847451925608F
S2140009F06068FA21C901B04761600122034B1A7092
S214000A00BFF35F8F62B60DB0F0BDC046D0000020C9
S214000A10B8000020940200208C0200207F3E0000D8
S214000A209C02002064F800007CF80000D959000001
S214000A300571000011720000B80200209802002024
S214000A4090020020D50D0000C803002008B5064B14
S214000A50197A01220A431A721A7A802149420A43F5
S214000A601A72024B984708BD00140040990800000F
S214000A7008B521482149224B9847224B224A5A6002
S214000A80812252009A60214A5A80214B1988214AB5
S214000A900A401A801A880C218A431A801A880B3951
S214000AA08A431A80198880220A431A80D9798020BE
S214000AB040420143D971D97901221143D971197A7B
S214000AC00A431A721A7A02431A7200221A61124AEA
S214000AD012689A61198802220A431A800F4AC021B6
S214000AE0890053581B021B0AC020000603435350BC
S214000AF00823136008BDC04670020020C8F8000036
S214000B00B1590000000C004002040100044200003D
S214000B1000140040FFF0FFFFB400002000E100E0FA
S214000B2008B507480023037043600372437283725C
S214000B30C3600361436183611321024B984708BD7C
S214000B409C020020FD59000070B58EB008AD002351
S214000B500893099301222A720BAC0B930C93227212
S214000B60281C1E4B9847089B0B936B686360626853
S214000B701B4B9A4202D90B9B01330B9300230C9319
S214000B80184D04AC08AB6A4643CB43C2201C0B99F5
S214000B900C9A0D9B144EB0472B1C503307CC07C342
S214000BA05823EB5C002B0AD00E4B1A6D5B6D0B992D
S214000BB05B0800910D480E490E4CA04709E0094B12
S214000BC01A6D5B6D0B995B08009108480A49094C41
S214000BD0A0470648094B98470EB070BDB507000001
S214000BE07F3E00009C040020D10C0000BC020020C8
S214000BF0E0F80000CDC10000FCF80000B1050000E0
S214000C0010B584B00E480F490F4B984701AC201C16
S214000C100E4B98471C230193002363600122E27267
S214000C20A3720820211C0A4B98470A480821002274
S214000C30094B984708200021084B984704B010BD80
S214000C40700200201CF90000B15900001D48000089
S214000C5031480000490B00001D47000045470000D2
S214000C6082B084B00190029103920593019A059B8D
S214000C7001209A4209D8019A059B00209A4204D383
S214000C800298069B83428041404204B002B07047FF
S214000C9084B0019102920393002303604360013302
S214000CA003720599019A049BD21A0260029B5B1A92
S214000CB00BD50268002A09D00268013A0260FA22BF
S214000CC0D20194466344436000E0436004B070473A
S214000CD070B58EB0041C05A80591069207930023F4
S214000CE02360636001332372037A12AA127ADBB29E
S214000CF0934220D0037A002B0DD0012212AB1A7239
S214000D006B4612AA23CA23C3201C0599069A079B82
S214000D102E4DA84756E005AB01221A726A4612A964
S214000D2061C961C2201C0599069A079B274DA847F2
S214000D300023237246E005AB1B7A002B2BD008AAB3
S214000D4005AB23CB23C20BAB12AA23CA23C3089A34
S214000D500B9B9A4207D8089A0B9B9A420ED3099A85
S214000D600C9B9A420AD96B4612AA23CA23C3201C9C
S214000D700599069A079B164DA84723E005AB6A46D9
S214000D8023CB23C2201C1299139A149B104DA847FC
S214000D900023237216E0012212AB1A7205AB1A72F8
S214000DA06A4612A961C961C2201C0599069A079B6A
S214000DB0FFF78EFF237A002B02D00023237201E078
S214000DC001232372201C0EB070BDC046D50D000056
S214000DD0910C0000F0B5474680B49AB0041C05A8F4
S214000DE00591069207930023236063600133237204
S214000DF0037A002B13D020AB1B7A002B14D10EE005
S214000E0020AB1B7A002B46D137E020AB1B7A002B99
S214000E1046D152E020AB1B7A002B53D081E005ABC5
S214000E201B7A002BECD136E008AA05AB111C61CB6F
S214000E3061C10BAB191C20A8E0C8E0C114AD0021AD
S214000E4014911591013129720999089A0B98821804
S214000E5014920C9E7618149F301CFA21C9013A4B46
S214000E609847C7191497301CFA21C901374B984781
S214000E706960231C07CD07C353E0012220AB1A721A
S214000E806B4620AA23CA23C3201C0599069A079BF3
S214000E902F4DA84745E005AB1B7A002B0DD1B4E7D4
S214000EA005AB01221A726A4623CB23C2201C209966
S214000EB0219A229B264DA84733E005AB1B7A002BD0
S214000EC02FD1A7E705AB0121197220AA11720EAA2D
S214000ED0101CE0CBE0C011AB9C46181C20ADC8CD62
S214000EE0C8C017AD00271797189729720F990E9A42
S214000EF011988218179263465E687618179B984674
S214000F00301CFA21C901104B984740441790301CFA
S214000F10FA21C9010D4B98476960231C07CD07C30A
S214000F20277260682568FA21C901074B984745195A
S214000F3025606068FA21C901044B98476160201C4F
S214000F401AB004BC9046F0BD057100001172000096
S214000F50D10C000010B50B1C4343002B13D000230C
S214000F60FA24A400884201DD401A00E0091A013381
S214000F700A1C4243002A03D0A342F3D1012107E012
S214000F80044A934203DC002802D0011C00E0012141
S214000F90081C10BDE7030000054A002313605360D9
S214000FA0044AD365D3678021535013677047C04601
S214000FB0C80300209C040020F0B55F4656464D4608
S214000FC04446F0B491B0BE4BDB6D002B00D170E10F
S214000FD0BC48BD4B9847BA49D923C85C0DABBB4A41
S214000FE01C1CE0CAE0C460228A5C197AD3B2804630
S214000FF08B4205D00021D823B14AD154002398460D
S214001000AF4FF86FFC6DB24EB047051C201CB047C2
S214001010011C281CAF4B9847051CAF4B9847061C75
S21400102007908023F858AD4F211CB847AC4B984723
S21400103002900391301CAB4B9847011C281CAA4B0E
S2140010409847AA4B98470022A94BAA4DA847021CCE
S2140010500B1C02980399A84DA847A84B98470890E0
S2140010609A4E3068211CB8470AAD0A907068211C59
S214001070B8476860337ADBB22B720798089A0A9CE6
S2140010806968FA23DB0163435F182B7A002B00D1D3
S2140010907F429B4B1B689B4B1C68002F00D1F4E0E3
S2140010A0994B9C4227DCFA23DB0158438018884B77
S2140010B0984702908B4E954D864B9A46FA239B0096
S2140010C09946934B9B460497201CB0479149A847E6
S2140010D0071C0498B047011C381CA8470299D04743
S2140010E0071C01344C4509D0FC218905D847002847
S2140010F0EAD13A1C03E000231A1C00E0021C704EE2
S214001100D823F55C2B1C1033DB00F3189A60EB0039
S214001110F6188436201C734B9847B0600135EDB244
S21400112009224346D90FD317404682424B41984482
S214001130A84503DBD823624AD55403E00021D82310
S2140011405F4AD1544346002B18DD5D4A161C88368C
S2140011501133DB00D518002402946F4F2B1C251C7E
S2140011601C1C02983168B8470290281C7168B84762
S214001170051C0836A642F4D1041C01E000240294A3
S2140011804046664B984704900591584F0298B847DA
S214001190634E049A059BB047624DA8470290201CF8
S2140011A0B847049A059BB047A84704904A4A934616
S2140011B09047041C72B6BFF35F8F5B4D00232B7005
S2140011C04F4F3E680298D847801B3F68C7190123D7
S2140011D02B70BFF35F8F62B6002F0EDA381C414BC0
S2140011E09847011C0298404B9847BF210906484B78
S2140011F09847431E98413F1A0DE0381C394B9847D4
S214001200011C0298384B9847FC218905474B9847A4
S214001210431E98413F18201C324B9847011C0498E7
S214001220314B9847FC218905404B9847431E98410F
S2140012302418201C391C3E4B9847031C3D4A9246F6
S214001240201C0293191C9047041C72B6BFF35F8FD4
S214001250354A914600231370294D2A6893462E6816
S214001260381C0299D0475B46C01A86192E60254B5B
S2140012701C60314B1C6001234A461370BFF35F8F1E
S21400128062B6D8330E4A4146D1542C4B98471C4B75
S2140012901A680AAB1B7A2A4D009343460193281C12
S2140012A02849231C284CA047281C074CA047274841
S2140012B0A04711B03CBC90469946A246AB46F0BD4E
S2140012C09C0400202CF90000B1050000C803002093
S2140012D09582000081780000C5810000057100003D
S2140012E0FD9E000005820000C97E0000619F000090
S2140012F00040DF40F1910000258300004D7500009E
S214001300B802002090020020E7030000657C000081
S214001310A974000000007A4489750000859E0000CC
S2140013207589000009A00000D0000020D1740000DC
S214001330550F00002572000098020020990F00004B
S214001340D403002044F90000CDC1000078F9000065
S214001350F0B58BB0714BDB6D0020002B00D1DAE0CE
S2140013606F48704B984707AF0023079308930133E5
S2140013703B726A4CE06FE36D03936B4EB047051CFF
S2140013800398B047011C281C684B9847051C684BFF
S2140013909847061C07908023E0580399654B9847AA
S2140013A0654CA04704900591301C644B9847011C7F
S2140013B0281C634B9847634B98470022624B634D4B
S2140013C0A847021C0B1C04980599614DA847614B61
S2140013D098477860079B7A68FA26F60173439F1849
S2140013E05D4B1868A047021C0B1C002056495B4D3D
S2140013F0A8475B4B984704905A4A10685368704356
S214001400C018137A002B00D140420399564B9847D8
S2140014104A4DA847061C381C474B984700224A4BA3
S2140014204E4CA0474E4B9847011C404C301CA047E2
S2140014303F4B9847A8474D49A047041CFE21890505
S2140014404B4B984700280AD0FE208005211C3C4BB9
S2140014509847011C0498354B9847051C09E0201C4A
S214001460FE218905434B9847011C04982F4B98474B
S214001470051C3E48291C2D4B9847061C2C4B9847AC
S214001480041C301C2F4B9847061C0F1C201C2A4B94
S2140014909847021C0B1C301C391C374EB0470022E4
S2140014A0364B374EB047431E98412418FA23DB01CB
S2140014B09C4200D91C1C284B1B68A34227D0264EF2
S2140014C03460304B984700232F4A1360134AD921C3
S2140014D053540139535432682C4B9A6137682C4E5A
S2140014E0281C134B9847051CFA20C001391C114BC9
S2140014F09847031C0094301C26492A1C264CA047FB
S214001500301C084CA0472548A047012003E023488C
S214001510044B984700200BB0F0BDC0469C0400204A
S21400152094F90000B1050000958200008178000063
S214001530C581000005710000FD9E000005820000C8
S214001540C97E0000619F00000040DF40F19100006E
S214001550258300004D750000B4000020758900004A
S21400156009A00000C8030020257200000000FA460B
S214001570A974000089750000259700000000E03F70
S2140015805D740000990F0000B802002000140040AF
S214001590D4030020ACF90000CDC10000D4F900004F
S2140015A008B50B4B98470B4B1B68C01A0A4B984262
S2140015B00DD90A4BDB6D022B09D9054B9847054B15
S2140015C01860074B9847002801D1064B984708BD7E
S2140015D0E9250000F8020020A08601009C040020F7
S2140015E051130000B90F000010B584B001AB019094
S2140015F0029103921B7A002B06D0019A029B0648A2
S2140016000649074CA04705E0019A029B0248054997
S214001610034CA04704B010BD70020020E4F900009F
S214001620B1590000F0F90000F0B5474680B490B01C
S214001630584A5823D35CDBB2DA21525C9A4250D126
S214001640544C5823E25C8233E254236F6366636F24
S214001650A366201C7030504B9847636E002B42D018
S2140016604C4A131C6833694611CB11C1536E106F78
S214001670516F926F494CA04700282FD00AAE454CB8
S214001680231C64336A4623CB23C2301C216F626F4F
S214001690A36F434DA84706AD6B4607CE07C3281C6D
S2140016A0E16F8023E2580433E3583E4EB046B0471D
S2140016B0231C7C332A1C43CA43C33B4E231C503393
S2140016C06A4683CB83C2281C31687268B368C047F9
S2140016D00ECD0EC6E36D0133E36504E0334B984749
S2140016E001E0324B98472B4E58239846F25C8233E3
S2140016F0F2540DAD281C284B984706AC331C5033CB
S2140017006A4683CB83C2201C0D996A68AB68254F56
S214001710B847231C07CB07C50D986168A268244B01
S21400172098474346F35C002B16D01A490A6D4B6D5A
S2140017300E6D486D496D0D9D0E9C009640090190FA
S2140017401F2001404801411A02910395049419484C
S21400175019491A4CA04715E00E490A6D4B6D0E6DDF
S214001760486D496D0D9D0E9C0096400901901F2006
S21400177001404801411A0291039504940D4810490E
S2140017800E4CA0470B480F4B984710B004BC904631
S214001790F0BDC0469C040020B5070000610C0000A8
S2140017A0D10C0000D50D0000C8030020990F0000E2
S2140017B019080000FC020020FCF90000CDC1000062
S2140017C040FA0000B1050000F0B5B3B008A9002348
S2140017D00893099301220A720BA90B930C930A72C1
S2140017E00EA90E930F930A7211A9119312930A72FF
S2140017F014A9149315930A7217A9179318930A72CB
S214001800A24D3C242A5DA248A249A34B9847295DD5
S21400181000290FDD00249E4E9C4F231CDC33FB5C0E
S214001820301C9E49221C9C4DA84701343C23F95C81
S214001830A142F2DC9548DC300022994B98470028FC
S21400184000D01DE1914B181CDC303C22995C4E32D6
S2140018506A440023934CA047934B9847002800D037
S21400186009E11AAB23229A5C5A7024229A5C1A70F9
S214001870032A57D002D8012A04D0F8E0052A00D857
S21400188002E1F4E089488A4B98471AAB25229C5C13
S2140018909C70002C11D08E236B44601EC0B232AAFE
S2140018A094466044393819781A1C233A117001336B
S2140018B08342F8D10434E4B200E004241AAB1C19C5
S2140018C02034A178212299541A791102DA780A4331
S2140018D017AE17929A7912025B791343189304ACE9
S2140018E06A4D2B1C40336A4683CB83C2201C179953
S2140018F0189A199B6F4FB847231C07CB07C66B4631
S2140019002A1C43CA43C3201C17996268A3686A4E00
S214001910B04750350ECC0EC5684B98476848644BA8
S2140019209847B1E01AAB25229C5C9C70002C11D025
S2140019308E236B44601EC0B232AA94466044393887
S21400194019781A1C233A117001338342F8D10434F3
S214001950E4B200E004241AAD2C192034A278212326
S214001960EA545848524B9847EB78022B7BD11AAB77
S2140019705A7911021A790A430892DA7911029A7989
S2140019800A4309925A7A11021A7A0A430BAE0B924C
S214001990DA7A12029B7A13430C933C4C231C0C33CA
S2140019A06A4623CB23C20EA80899099A0A9B424F7F
S2140019B0B84711AD6B4607CE07C3281C216862687E
S2140019C0A368B84720686168A2683F4B98476B4693
S2140019D02A1C43CA43C314A80E990F9A109B354E6F
S2140019E0B047149B5B082364159B5B08636404AED6
S2140019F06B4607CD07C3301C0E990F9A109BB8474D
S214001A00231C503307CE07C3236D5B082365636D25
S214001A105B086365294B98474823E35C002B0ED090
S214001A201A490A6C4B6C496C5B091F20014048013F
S214001A30411A009125482649264CA0470DE0134937
S214001A400A6C4B6C496C5B091F2001404801411A27
S214001A5000911E4820491F4CA0471C48144CA04724
S214001A601E48A04710E01E48114B98470CE01D4842
S214001A700F4B984708E006481B49074B984703E07A
S214001A8003481A49044B984733B0F0BD9C04002025
S214001A907002002084FA0000B159000094FA000099
S214001AA001020000D903000025030000A0FA000090
S214001AB0B1050000D50D0000D10C0000291600006D
S214001AC0B0FA0000C0FA0000E9150000A4060020E5
S214001AD0D8FA0000CDC10000FCFA000020FB000090
S214001AE03CFB000058FB00006CFB000078FB00008D
S214001AF0CB18C018C0B200290AD0131C0139C9B2CD
S214001B000131521819784018C0B201339342F9D106
S214001B107047C04610B50223014CA04710BDC04612
S214001B20F11A0000F0B557464646C0B4CDB000AF37
S214001B300C1C0B1C0B33DB08DB006946CB1A9D46DE
S214001B406D4610232B700E3B6B70A870002C0CD0CB
S214001B50EC7000216B18565C1E710131CBB29C42B2
S214001B60F8D8231C0121884601E000239846033359
S214001B7043441E1C211C1A4B9847A855194B9847DE
S214001B80061C0434231C4344381D00212A1C164C12
S214001B90A047051C154816492A1C164B9847002DC9
S214001BA017D00024134B9A463B1D1B5D0F48124965
S214001BB0221CD0470134E4B2A542F5D8002433688D
S214001BC03A1D115D9B68301C98470134E4B2A5426B
S214001BD0F5D8BD464DB00CBC90469A46F0BDC04602
S214001BE0151B00000D3F00006D0300007002002072
S214001BF0A0FB0000B1590000ACFB000008B5064889
S214001C000C30064B9847022000210022044B9847D0
S214001C100448054B984708BD9C040020B507000003
S214001C20251B0000BCFB0000B105000008B5074BF3
S214001C309847074B1B68C01A064B984205D9034BBA
S214001C409847034B1860044B984708BDE9250000E9
S214001C50C403002060EA0000FD1B000070B572B6E9
S214001C60BFF35F8F204D00222A70204B01243821BD
S214001C705C540C395C540C395C541C75DA651C4990
S214001C800A604A600C721A675A6778215C545A6672
S214001C909A660C395C546C315A5401315A541A64A1
S214001CA05A6491395C540B395A54D86C0021F53279
S214001CB0FF3200230F4EB0472C70BFF35F8F62B623
S214001CC00D4D0A4C0B4EA847E06C002808D00021AA
S214001CD0FA2252000023B047012801D1074B98474B
S214001CE0074B9847EFE7C046D00000209C04002032
S214001CF0C8030020252100002D1C0000C917000085
S214001D00A1150000F0B585B0194C0023E36401204E
S214001D1000210322174B9847E064002804D00021D6
S214001D2000220023144CA047962676000127009731
S214001D30002401940294039410481149321C002395
S214001D40104DA84700970194029403940E480F493B
S214001D50321C0023A84703230093019402940394A3
S214001D600B480C49E12292000023A84705B0F0BDBD
S214001D709C040020451F0000951F00004905000038
S214001D80D0FB00009523000065060000D8FB00008D
S214001D905D1C0000E8FB000010B5041C036C002B63
S214001DA008D10368002B26D14068154B98470023BE
S214001DB0636020E0002A0ED180681A1C114B9847F9
S214001DC0A368226C94466344A3606268934212D36D
S214001DD02368A3600FE0C0681A1C0A4B9847236C60
S214001DE05B42E268D218E26021688A4203D26268E7
S214001DF094466344E360A36B0133A36310BDC046FF
S214001E00F12A0000DFA9000038B50468002C0CD0C9
S214001E10026CC3689B18C3604568AB4200D3C460BD
S214001E200B1CC168181C014B984738BDDFA9000081
S214001E30F8B5041C214B9847A36C002B16DD636A8B
S214001E40002B04D112E0636A002B04D10EE0251C9F
S214001E5024351B4F1B4E281CB847002800D0B0471F
S214001E60A36C013BA364A36C002BECDC01235B4258
S214001E70A364154B9847114B9847636C002B16DDEF
S214001E802369002B04D112E02369002B04D10EE055
S214001E90251C10350A4F0B4E281CB847002800D0CA
S214001EA0B047636C013B6364636C002BECDC01237E
S214001EB05B426364044B9847F8BDC046B92B0000EC
S214001EC0512900005D2A0000D12B000038B50028FB
S214001ED001D172B6FEE70D1C041C154B984722680C
S214001EE0216CE36B4B43D01860600020A063A260B7
S214001EF05B1AD318E36001235B426364A364002D7E
S214001F000BD12369002B0FD0201C1030094B9847AB
S214001F10012809D1084B984706E0201C1030074DD1
S214001F20A847201C2430A847054B9847012038BDF9
S214001F30B92B000051290000A12B000095220000BB
S214001F40D12B000070B5002813D00E1C051C4C20A9
S214001F500D4B9847041E0CD0301C684301300A4BCA
S214001F6098472060002806D1201C084B984700E0C0
S214001F70FEE772B6FCE7E5632664201C0121044BED
S214001F809847201C70BDC046AD2C0000152D0000E3
S214001F90CD1E0000F0B5574680B486B003920028E8
S214001FA001D172B6FEE70027002905D1026C002A8F
S214001FB001D072B6FEE7002702930191041C334D50
S214001FC0A847A36BE26B934213D2201C0199029A96
S214001FD02F4B9847636A002B07D0201C24302D4BCC
S214001FE09847012801D12C4B98472C4B9847012045
S214001FF048E0039B002B03D1284B9847002041E084
S214002000002F03D104A8264B98470137234B984747
S214002010244B98471D4B9847636C013301D100232E
S2140020206364A36C013301D10023A3641B4B984760
S21400203004A803A91C4B984700281DD1134B9847AA
S214002040A36B9A46E66B154B9847B2450ED1201CFB
S21400205010300399154B9847201C154B9847154B85
S21400206098470028ACD10C4B9847A9E7201C104B8A
S2140020709847104B9847A3E7201C0D4B98470D4BED
S2140020809847002006B004BC9246F0BDB92B00006D
S214002090991D000051290000A12B0000D12B000043
S2140020A0CD290000D9250000ED29000011290000E7
S2140020B0311E00002527000070B5002801D172B639
S2140020C0FEE7002904D1046C002C01D072B6FEE7AE
S2140020D072B6846B0025C66BB4421CD2161C041C58
S2140020E01A1C0E4B9847A36C01330ED1636A013558
S2140020F0002B10D0201C2430094B984700280AD00B
S214002100002E07D00123336005E0A36C0133A364DF
S214002110012500E0012562B6281C70BD991D00004F
S21400212051290000F0B54F4680B484B001920028D3
S21400213001D172B6FEE70027002905D1026C002AFD
S21400214001D072B6FEE700271D1C0091041C444E09
S214002150B047A36B002B2BD0E768201C0099414B9F
S2140021609847002D14D1A36B013BA3632368002B73
S21400217002D13D4B984760602369002B14D0201C89
S21400218010303A4B984701280ED1394B98470BE050
S214002190E760636A002B07D0201C2430334B984737
S2140021A0002801D0324B9847324B9847012052E026
S2140021B0019B002B03D12F4B984700204BE0002FAC
S2140021C003D102A82C4B984701372A4B98472B4B34
S2140021D09847234B9847636C013301D1002363640F
S2140021E0A36C013301D10023A364224B984702A8B5
S2140021F001A9234B9847002827D1194B9847A36B72
S21400220099461C4B98474B46002B18D12368002B49
S21400221006D1134B984760681A4B9847154B98475A
S214002220201C24300199184B9847201C174B9847C0
S214002230174B984700288BD10D4B984788E7201CF2
S214002240124B9847124B984782E7201C0F4B984733
S2140022500F4B9847002004B004BC9146F0BDC04622
S214002260B92B0000091E0000692A00005129000051
S214002270A12B0000D12B0000CD290000D92500009D
S214002280ED290000752A000011290000311E00000B
S21400229025270000031C0833436001225242826057
S2140022A0C3600361002303607047C04600230361D8
S2140022B07047C04643685A684A6042688A605A68EF
S2140022C0916059604160086103680133036070479C
S2140022D010B50C68631C01D103690AE0031C0833BF
S2140022E0C2681268944204D35B685A6812689442C3
S2140022F0FAD25A684A6091608B6059600861036838
S2140023000133036010BDC046436882689A608368E4
S21400231042685A6003695A68824201D182685A60EC
S214002320002202611A68013A1A6018687047C046AF
S21400233010B5014CA047FDE7A12B000010B5041E08
S2140023400E4B1B6858600E4B1B689C4207D20D4B09
S21400235018680A4B196804310B4B98470CE00B4B76
S2140023601868064B19680431074B9847084B1B68DA
S2140023709C4201D2064B1C6010BDC0460C080020D3
S2140023802408002028080020D12200007007002022
S214002390C4000020F0B54F464646C0B485B00C9C3D
S2140023A0002801D172B6FEE7052C01D972B6FEE709
S2140023B00393161C0F1C02904020594B9847051E8D
S2140023C000D1A5E00E9B002B00D09DE0B000544B42
S2140023D098472863002803D1281C524B984797E05B
S2140023E0B200A521504B9847504BF3189B002A6B20
S2140023F094466344072293439846281C3430391C7D
S21400240001324B4B984700223B23EA54271E052FE8
S21400241000D90527EF62EF632B1D0193181C454E6C
S214002420B047281C1830B0472D610623DB1BAB6174
S2140024306D6240460299039A3F4B984728604307CF
S21400244001D072B6FEE70D9B002B00D01D603B4B03
S21400245098473B4A1368013313603A4B1B68002BBE
S2140024601ED1384B1D601368012B24D1364E7733AE
S2140024709946B144354F301CB84714364E45FAD10C
S214002480334B9946181C314EB047324F381CB04774
S2140024903148B047314B4A461A60314B1F600AE05C
S2140024A0304B1B68002B06D1264B1B68DB6A9C4210
S2140024B001D3244B1D60EB6A2B4A1268934201D964
S2140024C0294A136029490A6801320A60284A1268B4
S2140024D0934201D9264A13609800C3189B001A48F5
S2140024E0C0180199234B9847234B98471D4B1B68F0
S2140024F00120002B0ED0134B1B68DB6A9C4209D9C7
S2140025001E4B9847012005E00E9B0363181C67E7E7
S2140025100120404205B00CBC90469946F0BDC0462E
S214002520AD2C0000152D0000F1A90000FFFFFF3FB5
S21400253047C30000AD220000612B0000B92B00004D
S2140025404C0800200C080020900700209522000070
S214002550340800207C0700201008002070070020A8
S21400256028080020740700205008002030080020AB
S2140025702C080020B5220000D12B0000A12B000063
S21400258010B584B0002300930193029303930C4884
S2140025900C49962252000C4CA047012809D172B66D
S2140025A001220A4B1A600022094B1A60094B984711
S2140025B003E0002801D172B6FEE704B010BDC046A5
S2140025C031230000F0FB0000952300007407002074
S2140025D024080020712C0000024A1368013313609F
S2140025E07047C0460808002010B5044B9847044BB7
S2140025F01C68044B9847201C10BDC046B92B000031
S21400260024080020D12B0000F8B53B4B1B68002B9C
S2140026106DD13A4B1A6801321A601B68002B20D124
S214002620374B1B681B68002B01D072B6FEE7344B95
S2140026301968344A10681860116033490A68013214
S2140026400A601B681B68002B04D1012252422F4BE4
S2140026501A6006E02A4B1B68DB68DB685A682B4B5F
S2140026601A60264B1A68294B1B689A4243D3244BA0
S2140026701B681B68002B0BD0214B1B68DB68DD68D2
S2140026806B681E4A1268934210D8214F214E10E004
S214002690012252421D4B1A602DE0194B1B68DB6865
S2140026A0DD686B68154A1268934202D9174A1360B0
S2140026B021E02C1D201CB847AB6A002B03D0281C39
S2140026C01830134B9847EB6A3268934201D9114A87
S2140026D013609800C3189B000F48C018211C0F4BAE
S2140026E09847074B1B681B68002BD6D1D0E70C4ACF
S2140026F0136801331360F8BD080800202408002082
S214002700700700202808002078070020C40000205A
S214002710092300002C08002090070020B5220000A6
S2140027206C070020F8B52F4B1B68002B01D172B642
S214002730FEE72D4B98472B4B1A68013A1A601B6828
S2140027400024002B49D1294B1B680026002B22D1E0
S21400275043E0274BDB68DF68381C1830254B98476A
S2140027603D1D281C234B9847FB6A234A1268934258
S21400277001D9214A13609800C3189B001F48C0184F
S214002780291C1F4B98471F4B1B68FA6ADB6A9A4244
S21400279002D3012600E0164C2368002BD9D11A4B31
S2140027A01B68002B0CD0184B1B68002B08D0174D4D
S2140027B0154CA8472368013B23602368002BF8D1FB
S2140027C0012E04D0124B1B680024012B05D10022D9
S2140027D00F4B1A600F4B984701240F4B9847201C4D
S2140027E0F8BDC04608080020B92B00004C080020A1
S2140027F010080020092300002C0800209007002065
S214002800B52200000C0800206C07002009260000F6
S21400281048080020A12B0000D12B000010B5041E94
S21400282010D00A4B98470A4B1B68E418094B1868E7
S2140028300430094B9847201C084B9847084B98478C
S214002840002801D1074B984710BDC046D925000087
S214002850240800200C080020092300003D23000067
S21400286025270000A12B000010B5244B1B68002B69
S21400287010D1234B1B689A00D3189B00214A9B5803
S214002880002B1AD11E4B1B68002B0AD01C4A1D4C6D
S214002890101C08E001221C4B1A602DE00368002B78
S2140028A001D172B6FEE71368013B13601368990006
S2140028B0CB189B001B59002BF0D0114B1B68114CFA
S2140028C09A00D11889006118486840684860D21894
S2140028D092000832A218904205D141689A00D21898
S2140028E09200A21851609A00D3189B00054AD3188C
S2140028F05B68DA68054B1A6010BDC0460808002001
S2140029002C08002090070020480800200C08002013
S21400291038B5002801D172B6FEE70C1C074D2968B1
S2140029201831074B984728680430064B9847064BE3
S21400293018682018054B984738BDC0460C0800207C
S214002940D122000009230000240800203D230000B7
S21400295038B5C368DD68002D01D172B6FEE72C1CC1
S2140029601834201C124B9847124B1B68002B13D1AF
S2140029702C1D201C0E4B9847EB6A0F4A1268934298
S21400298001D90D4A13609800C3189B000B48C01865
S214002990211C0B4B984703E00A48211C084B98471C
S2140029A0094B1B68EA6ADB6A00209A42404138BD40
S2140029B009230000080800202C08002090070020AB
S2140029C0B5220000100800200C080020002801D1C5
S2140029D072B6FEE7034B1B680360034B1B6843603D
S2140029E07047C046780700202408002070B50028ED
S2140029F001D172B6FEE7002901D172B6FEE70D1CC2
S214002A00041C114B9847114B1B6822689A4205D04C
S214002A100F4B1B68012662689A4210D90C4B196846
S214002A2060682B68091A0126994208D2084A12687B
S214002A30121A9B1A2B60201C064B98470026064B42
S214002A409847301C70BDC046B92B000078070020A0
S214002A5024080020CD290000D12B00000122014BC4
S214002A601A60704748080020014B18687047C04637
S214002A700C08002038B500282FD0C36A174A126801
S214002A80D26A934229D2154A1268D16A0622521A8D
S214002A9082619A00D3189B00114AD31842699A4261
S214002AA017D1051C041D201C0E4B98470B4B1B68AA
S214002AB0DB6AEB620C4A1268934201D90A4A136039
S214002AC09800C01883000648C018211C074B98477A
S214002AD003E0024B1B68DB6AC36238BD0C080020AB
S214002AE090070020092300002C080020B5220000D3
S214002AF038B500281BD0C36AC26B934217D0041C9B
S214002B00051D281C0A4B9847E36BE3620622D21A7F
S214002B10A261084A1268934201D9064A13609800D7
S214002B20C01883000448C018291C044B984738BDB9
S214002B30092300002C08002090070020B522000082
S214002B40064A13681868203080F30988022080F34C
S214002B5014883FBCAE4662B600BDC0460C080020D6
S214002B6010B5031F802464041C60043B1960183BE6
S214002B701A60403810BDC046084B19680868103007
S214002B80F0C8A046A946B246BB4680F3098820385E
S214002B90F0C871460D2001430847C0460C080020C7
S214002BA080225205034B1A60BFF34F8FBFF36F8F1F
S214002BB07047C04604ED00E072B6044A136801335D
S214002BC01360BFF34F8FBFF36F8F7047C8000020AE
S214002BD0034A1368013B1360002B00D162B67047AE
S214002BE0C8000020EFF309800E4B1A6820381060EA
S214002BF0F0C044464D4656465F46F0C008B572B62D
S214002C00FFF732FE62B60CBC116808681030F0C8D8
S214002C10A046A946B246BB4680F309882038F0C8CD
S214002C201847C0460C08002008B572B6014B9847F6
S214002C3062B608BD0926000008B50022074B1A60D8
S214002C400020074B9847FA218900064B9847013821
S214002C50054B18600722054B1A6008BD18E000E017
S214002C60754A00000571000014E000E010E000E086
S214002C7008B50A4B1A68FF2109040A431A601A6845
S214002C80FF2109060A431A60054B98470022054BA8
S214002C901A60054B9847002008BDC04620ED00E0AE
S214002CA0392C0000C8000020412B000038B5041C59
S214002CB0430702D007239C430834104B9847104B19
S214002CC01B68002B05D107220E4B083393430C4A92
S214002CD013600D4B1B68E4180C4A944207D8A342B5
S214002CE007D2074A1568ED18074B1C6002E000255E
S214002CF000E00025064B9847281C38BDD925000063
S214002D00F042002058080020540800208F3A0000A7
S214002D1025270000002801D072B6FEE77047C0469F
S214002D2070B572B6BFF35F8F154C00232370154B3A
S214002D309847154B9847154B9847154B98470123CE
S214002D402370BFF35F8F62B6124D281C1249134CD6
S214002D50A047281C12490122A047281C1149A04759
S214002D60281C1149A047281C1049A047104B98471B
S214002D70084E104D094C301C291CA047FBE7C046E6
S214002D80D00000202D050000710A0000010C000094
S214002D90051D000070020020F8FB0000B15900007D
S214002DA048FC00005CFC00006CFC00008CFC000092
S214002DB081250000DCFC000082B06B460091019289
S214002DC0A62292009446604406CB06C002B0704726
S214002DD082B06B4600910192A8229200944660440D
S214002DE006CB06C002B0704708B5A4239B00C358A4
S214002DF0002B01D0081C984708BDC04608B5A5237F
S214002E009B00C358002B01D0081C984708BDC0463D
S214002E10F0B585B003930AAC0027E7570BAC2678CD
S214002E20A624A4000559002D05D104340459E3074F
S214002E3006D4101C0DE0A724A4000459E30702D50D
S214002E406310C3585D59039B6410001900970196E0
S214002E50A84705B0F0BDC04610B5A8239B00C258D1
S214002E60002A04D10433C358DC0705D40AE0A9239A
S214002E709B00C358DC0702D55C100459A2585B10AF
S214002E80C018904710BDC046F0B557464E4645465A
S214002E90E0B482B00AAC002565570BAC2478002C51
S214002EA002D07C30FF306BE0384C0355384C045D64
S214002EB0002C5BD1072917D8002954D0FC23FF33F8
S214002EC0C35C5C1C7F252C407E35FF35455DA542E6
S214002ED049D0171C0139C9B25218FC21FF317F2591
S214002EE0AC46FE26760035E08E1E092E3BDDFC2322
S214002EF0FF33C45C631C7F210B407E31FF31415C95
S214002F00092599420AD12EE047463B4001336746E1
S214002F103B405746C75D9F4209D124E0FC21FF3164
S214002F20FF27B846803FBC467E37FF37BA46575D18
S214002F3004197934FF34E770DCB244540135EDB23D
S214002F40B542E1DB0FE0013465462C400137855D74
S214002F50A54208D03D78C3187933FF33DD70E3B25D
S214002F6043549742EFD17C30FF3009E000240094B0
S214002F70A124A4000459081C111C1A1C2B1CA047D1
S214002F8002B01CBC90469946A246F0BD7D020000E9
S214002F907F02000010B5041CA0239B00C35C002B1E
S214002FA004D0A2239B00C358081C98470022014B5C
S214002FB0E25410BD820200007047C046F0B5474696
S214002FC080B486B0051C0CA8002686570DA80027DE
S214002FD0C7570EA8007840B28046281C143001243B
S214002FE0644200942C4CA0470024A823EC54281CD0
S214002FF0A8304460047244728472C4600461446100
S2140030008461311C254EB047C423EC54281CC430C0
S2140030104460047244728472C460046144618461D2
S214003020391CB047E023EC54281CE030446004729E
S21400303044728472C4600461446184614146B0474E
S214003040A2239B00EC50043BEC502C700833EC544D
S214003050134BEC54134BEC54134BEC54013BEC5415
S214003060124BEC54124BEC54124BEC54023BEC5407
S214003070FC23FF33EC540133EC54281C0E49002289
S2140030800E4B9847281C0E4900220E4B9847281CCA
S21400309006B004BC9046F0BDDD550000FD590000AA
S2140030A08D0200008E020000810200007F020000F8
S2140030B07D0200007E020000892E0000B92D00006F
S2140030C0952F0000D12D000070B5061C0D1C141C99
S2140030D0011CFC317F22204B9847002C0CD0221C70
S2140030E0331CFE33FF331D497018117819700132F6
S2140030F001338342F9D11BE04122FE23FF33F25411
S21400310047320133F2540023154AB354CD2101321D
S214003110B1542239134AB154033AFF3A1249725451
S2140031201249725401210632FF32B154104AB35488
S214003130EAB2301C00210F4B98470F4BF35C002B74
S21400314004D0301C04210D4B984703E0301C0221AC
S2140031500A4B984770BDC04629360000060200009C
S214003160FF0100000102000002020000030200004E
S21400317005020000693900008D02000019370000C2
S21400318008B50022014B984708BDC046C93000006C
S214003190A4239B00C1507047A5239B00C1507047D5
S2140031A0FE235B00C25CFC23FF33C2547047C0465C
S2140031B0FE235B00C35CFC22FF32825C9A420BD08B
S2140031C0C2187932FF32D27801337F210B407E312C
S2140031D0FF31435490B200E0014800B27047C04649
S2140031E0FFFF0000FC23FF33C35C8033FE22520047
S2140031F0805C1B1AD817420E9B187F200340981A33
S21400320040B270470122074BC254833BFF3B064A3D
S2140032108354064A8354FB3AFF3A7E33FF33C25444
S2140032207047C04681020000020200000302000050
S21400323010B582B06B46D980074C6B46991D035D6E
S214003240002B06D00B889BB25A1E92B20A80002B27
S214003250F5D102B010BDC0468202000038B5041C8D
S2140032600022284BC2549F229200835C0233835470
S2140032702549264B98470122254BE2540A33E35C46
S214003280002B04D0201C0321224B984703E0201C6F
S2140032900121204B9847204BE35CFF2B06D1FE22F2
S2140032A0FF32A35C20218B43A3540CE01B4BE35C52
S2140032B0002B04D14122FE23FF33E25403E06122B7
S2140032C0FE23FF33E2549F239B00E15C201C221C5C
S2140032D0FE32FF320023124DA847201C0A490B4B32
S2140032E09847104BE35C002B04D0201C0421094BAC
S2140032F0984703E0201C0221064B98470022044B07
S214003300E25438BD81020000FFFF000031320000A9
S2140033108202000019370000020200008E02000040
S2140033206D3A00008D02000038B5041C2D4BC35CBE
S214003330002B20D09F239B00C35C7C2B51D8C21847
S214003340F932FF3251710133DBB29F22920083546F
S2140033507C2B46D9244B98470122224BE254833BD0
S214003360FF3B224AA354224AA354FB3AFF3A7E3339
S214003370FF33E25435E01F4BC15400231E4A8354EA
S214003380013283541D491E4B984701221D4BE254BF
S2140033900A33E35C002B04D0201C03211A4B984709
S2140033A003E0201C0121184B9847201C0A21221CF0
S2140033B0FE32FF320023154DA847201C0F49104B44
S2140033C09847134BE35C002B04D0201C04210E4BC3
S2140033D0984703E0201C02210B4B98470022094B1C
S2140033E0E25438BD810200005D3200000202000097
S2140033F0030200000602000007020000FFFF0000B4
S2140034003132000082020000193700006D3A0000D9
S2140034108D020000F8B5002A0CD0061C0C1C551EA8
S214003420EDB201354D19044F2178301CB8470134F0
S214003430AC42F9D1F8BDC0462933000008B5024BAE
S2140034401868024B984708BDF4420020453B000030
S21400345070B584B0051C0E1CA823C356013304D1D6
S214003460184819492822194B98472B1CA8331A6963
S2140034705B6813602C1C1434201C08210022144B9B
S2140034809847201C311C134B984701AC201C124B4C
S214003490984720230193002363600122E272A372FF
S2140034A00020211C0D4B98470D4B1D600D48002138
S2140034B000220D4B9847002000210C4B984704B083
S2140034C070BDC04664F800007CF80000D9590000C2
S2140034D0DD560000F95600001D4800003148000087
S2140034E0F44200203D3400001D4700004547000020
S2140034F0F8B5041C171CC02319430D1C183BC356F3
S214003500013304D1104811492822114B9847231C37
S214003510A833DA685B681360261C1436301C291C36
S2140035200C4DA847301C391CA847A823E356013386
S21400353004D1054805492822054B9847A834236935
S21400354062681A60F8BDC04664F800007CF80000A7
S214003550D959000011570000F8B5041C3F25294032
S21400356041350D43A823C356013304D111481249EF
S2140035702822124B9847231CA833DA685B6813602E
S214003580271C1437381C291C0D4EB047381C291C24
S214003590B047C5B2A823E356013304D1054806490F
S2140035A02822064B9847A834236962681A60281CAC
S2140035B0F8BDC04664F800007CF80000D959000049
S2140035C011570000F0B587B0041C0721124B98472E
S2140035D00390227C0F2702AB9C466744201CE168C0
S2140035E03B1C0E4DA847051C201C062180220723E5
S2140035F00B4EB0477F2129403B786A460C269657EB
S2140036000096424242410192201CE268054DA847BE
S214003610E06007B0F0BDC04659350000413C0000F0
S214003620D13A0000112E000030B583B0041CC160F2
S21400363002742F492F4B9847C423E356013304D115
S2140036402D482E4928222E4B9847231CC433DA686F
S2140036505B681360E023E356013304D1264827490C
S2140036602822274B9847231CE033DA685B681360F0
S2140036700620244B9847C423E356013304D11E4842
S2140036801E4928221E4B9847231CC4331A695B68C0
S2140036901360201C0E2100221B4B9847201C0F2174
S2140036A01A4B984708230093201C02211F22002350
S2140036B0174DA847FF204000124B9847154D201C79
S2140036C001211F220023A8470828F8D101230093D0
S2140036D0201C0421202204330D4DA847201C0E2157
S2140036E00C22094B98470023E371237203B030BDC8
S2140036F040420F005134000064F800007CF80000DF
S214003700D9590000B95A0000F134000059350000BC
S214003710853B0000D13A0000F0B54F4680B486B035
S21400372002900F236B4419701B78DBB2052B3BD835
S2140037309B00654AD3589F46082316226A44137096
S21400374015226A441370B4E0062316226A441370E6
S21400375015226A441370ACE0092316226A441370DB
S21400376015226A441370A4E0162316226A441370C6
S21400377015226A4413709CE0192316226A441370BB
S21400378015226A44137094E0082216236B441A70BC
S214003790053A15236B441A70029BDB79052B00D182
S2140037A08EE0012399463DE002980421474B984756
S2140037B0082316226A44137015226A44137078E0B0
S2140037C0E023029AD356013304D1414841492822C6
S2140037D0414B9847029BE033DA685B681360FA2037
S2140037E040003E4B984764243D4F17256D443B4EA2
S2140037F0029801211F220023B84728702B78082B37
S21400380005D03220B047013CE4B2002CF0D117239B
S2140038106B441B7800229146082B03D002980121A6
S2140038202A4B984715236B441B7800930298022175
S2140038301F2200232B4CA0478C24294F17256D44AC
S214003840264E029801211F220023B847287016230F
S2140038506B441B782A78DBB2934205D02020B04711
S214003860013CE4B2002CECD116236B441B781722E3
S2140038706A441278DBB2934203D002980121134BBC
S21400388098474B46002B0ED0E023029AD3560133BE
S21400389004D10F480F4928220F4B9847029BE0336C
S2140038A01A695B6813600F236B441B78029AD37106
S2140038B006E0029BDB79052B82D000239946B1E710
S2140038C006B004BC9146F0BD10FD0000E92D0000D6
S2140038D064F800007CF80000D9590000B95A0000CE
S2140038E0D13A0000853B000070B5041C0D1C0B0788
S2140038F02BD5C379991EFD22114202D1154B98474C
S21400390023E0012B07D10021134B9847217A201C76
S214003910124B984719E0032B17D10221E0220233FD
S2140039200F4EB047032806D007D30538434243411D
S2140039300321C91A02E0012100E00021201C064BE9
S2140039409847217A201C054B9847201C291C054BBC
S214003950984770BDC5350000592E00001937000085
S214003960D13A0000FD2D0000F0B5474680B482B085
S214003970051C082964D88900354B5B589F46D4B28D
S214003980231C0B3B0F2B07D8009408211F22002373
S214003990304EB0472C7156E002212F4B984752E02C
S2140039A0D2B2131C1133DBB2142B09D842712B4A46
S2140039B0D35C009305210F220023264CA04742E04B
S2140039C00221254B98473EE0D2B2032A07D88271DF
S2140039D000920821602205231E4CA04733E00221F6
S2140039E01D4B98472FE0D1B201721D4B98472AE035
S2140039F094B2E2B222211B4EB047220A281C232191
S214003A00B04720E094B2E2B22021164EB047220A18
S214003A10281C2121B04716E0171C0832141C242647
S214003A20104B98463A78281C311CC0470136F6B22F
S214003A300137A742F6D106E0D1B20B4B984702E019
S214003A400221054B984702B004BC9046F0BDC04624
S214003A5028FD0000853B0000E92D00004CFD00001D
S214003A6019370000F1340000E93A000070B5041C74
S214003A700E1C151C937801339370E023C356013354
S214003A8004D10F480F4928220F4B9847231CE033D8
S214003A901A695B681360E023E356013304D10848D3
S214003AA008492822084B9847231CE033DA685B68ED
S214003AB01360201C311C2A1C044B984770BDC0465E
S214003AC064F800007CF80000D9590000B93B0000FB
S214003AD038B5151C1C1C034B984728402041C0B223
S214003AE038BDC04659350000F8B5061C0C1E342CEF
S214003AF00FD0342903D8002533290BD007E05429EA
S214003B0003D00125942905D001E0032502E0FF2417
S214003B1011E00225301C02210322084FB847301C52
S214003B200C21074B98470323021C9A431543EAB21D
S214003B30301C0C21B847201CF8BDC046F1340000EC
S214003B405935000038B5041C0F210C4B9847051C4E
S214003B50430704D5201C0621084B984720702B07E6
S214003B6007D52378002B04D1201C0621034B984749
S214003B702070201C291C024B984738BD5935000080
S214003B80E9380000F0B583B0051C161C1C1C08ABF9
S214003B901F780191064B9847B043C0B23A1CA2402A
S214003BA032400243281C0199024B984703B0F0BDEF
S214003BB059350000F1340000F0B583B0061C0F1C28
S214003BC0151CA823C356013304D1194819492822C5
S214003BD0194B9847331CA833DA685B6813601423C4
S214003BE09C46B4446346019360466021134CA0474C
S214003BF00198391CA0472C1C013FFFB20137ED1974
S214003C000E4F21780198B8470134AC42F9D1A82369
S214003C10F356013304D1064806492822064B984736
S214003C20331CA8331A695B68136003B0F0BDC04646
S214003C3064F800007CF80000D95900001157000015
S214003C40F0B557464E46C0B483B0071C0191151C0C
S214003C509946A823C356013304D124482449282270
S214003C60244B98473B1CA833DA685B681360142320
S214003C709C46BC44634666460093181C20211E4C96
S214003C80A047301C0021A047C6B2AE4218D8019A01
S214003C90141C731EDBB20133D518174B9A460098D6
S214003CA00021D04720700134AC42F8D14B46002B9F
S214003CB008D000980021104B98474B46187001E03A
S214003CC080231E43A823FB56013304D10748084926
S214003CD02822084B9847A8373B697A681A60301C38
S214003CE003B00CBC91469A46F0BDC04664F800008E
S214003CF07CF80000D9590000115700004160704759
S214003D00021CBA2080001358591C1150D31838389A
S214003D10844663449878B9239B00D358994203D3CA
S214003D20BA218900535005E0312903D90021BA236E
S214003D309B00D1507047C04608B54368002B04D09E
S214003D40011C1A68D268181C904708BD10B5436855
S214003D50002B05D00A1C011C18684469181CA047D3
S214003D6010BDC04610B54368002B05D00A1C011CC8
S214003D7018680469181CA04710BDC04610B5041C7E
S214003D80034B083303600830024B9847201C10BDD5
S214003D9068FD0000B92F000010B5041C034B9847BF
S214003DA0201C034B9847201C10BDC0467D3D0000DC
S214003DB0CB70000038B50D1C0122084BC2540830E9
S214003DC0041C074B9847201C291C064B9847201CB0
S214003DD0054B98470520054B984738BDB1020000B3
S214003DE005320000293300005D3200001D28000067
S214003DF0F0B5474680B482B0061C08239C4684442F
S214003E0063460193144F154B984611E0B925AD0053
S214003E107459631C73510198C0473419AC239B0036
S214003E209C466444A0707359312B01D9002272510C
S214003E300198041CB8470028E8D1201C084B984776
S214003E407068002803D003689B68311C984702B04E
S214003E5004BC9046F0BDC046E5310000B13100001C
S214003E60A131000070B500290DD0161C0D1C0830BD
S214003E70041C054B9847201C291C321C034B9847F2
S214003E80201C034B984770BD053200001534000017
S214003E905D32000008307047F0B585B0041C002580
S214003EA04560134B08330360061C08363F23009317
S214003EB0103B01931B3B02930C330393301C3E21B3
S214003EC0532232330B4FB847AC239B00E5540A4BC2
S214003ED0E5543333E5500433E550301C0749084BAE
S214003EE09847301C0749084B9847201C05B0F0BD82
S214003EF068FD0000BD2F0000B1020000553F000025
S214003F00993100003D3F00009131000010B5084B8C
S214003F101B68002B08D1BB208000064B9847041C6A
S214003F20054B9847024B1C60014B186810BDC046F5
S214003F30F8420020D3700000993E000010B5041C23
S214003F40034B984703681B6A211C984710BDC04660
S214003F500D3F000038B5041C114B9847051C63073D
S214003F6006D50122AC239B00C254230707D415E0D4
S214003F70230713D5AC239B00C35C002B08D02B680B
S214003F809B69281C98470022AC239B00EA5405E056
S214003F900368DB6998470022024BEA5438BDC046E6
S214003FA00D3F0000B102000008B54368002B04D0A6
S214003FB0011C1A689268181C904708BD10B54B681B
S214003FC0DA0701D40A6803E05A1084580A68A2582F
S214003FD05B10C018904710BD10B5041C084B083382
S214003FE00360084B8360191C1831E42281504C335F
S214003FF004328350E430044B9847201C10BDC04662
S21400400098FD0000480101006159000010B5041C2D
S214004010034B9847201C034B9847201C10BDC046F6
S214004020D93F0000CB70000008B5E430014B98473C
S21400403008BDC0468559000008B5E430014B9847D6
S214004040C0B208BD9D59000008B54160002810D0D8
S214004050B023C0500A4A0433C25000220433C25070
S214004060084A0C33C250683000210122064B98479C
S21400407004E0682000210022034B984708BDC04694
S214004080A93F0000BD3F00007553000070B5041C3A
S21400409000254560054B0833036008300023044EB6
S2140040A0B047FC23E550201C70BDC04698FD0000BC
S2140040B0555700007047C0467047C0467047C04618
S2140040C07047C04638B54468002C08D0081C2368E2
S2140040D09D680B68DB689847011C201CA84738BD04
S2140040E010B5031C00291CD0081C1C1C0B68DB68C0
S2140040F098479A21490063585A1C6250E318187270
S2140041003E23FF33E35C834204D13439FF399E23D8
S2140041105B00E1542C23FF339A4202D90022093374
S214004120E25010BDF8B54368002B24D09E235B00F8
S214004130C35C002B1FD0041C9C256D002C26FF366C
S214004140002763595A1C6251E318197AB24200D903
S21400415067519A235B00E35862599A4202D19E2324
S2140041605B00E754606803689B6898479E235B0083
S214004170E35C002BE5D1F8BD9E235B00C05C704776
S21400418070B5CCB0031C002964D0081C1C1C0B683E
S214004190DB689847051C061E022E0FD100239A22C4
S2140041A05200A3500432A35001A82B4B9847019A03
S2140041B02A4B1A60029A5A6001221A729A225200F8
S2140041C0A358591CA150E3181D723E23FF33E35C2D
S2140041D0B34235D1201C083001A9214B9847061C54
S2140041E001A854211F4B9847002818D000229E2370
S2140041F05B00E254194D281CDC3001A92D32FF3239
S214004200194B98473C23EE540933FF33E0580028F7
S21400421016D0002100220023144DA84710E01448B1
S2140042201449154B984701229E235B00E254043341
S214004230E058002804D00021002200230B4DA84798
S2140042409A235B00E2582C23FF339A4202D90022BD
S2140042500933E2504CB070BDB50700009C04002046
S214004260B9010000A9020000DFA90000B920000083
S21400427070020020B4FD0000B15900007047C0462F
S21400428010B5041C014B9847201C10BDCB700000D5
S2140042907047C04610B5041C014B9847201C10BD43
S2140042A0CB70000010B5041C014B9847201C10BDB5
S2140042B0CB700000024B0833036041607047C04675
S2140042C0B8FD000010B5041C41600B4B08330360BA
S2140042D000239A214900435004314350043143548B
S2140042E03E23FF33C2540830002196225200034B6F
S2140042F09847201C10BDC04600FE0000F1A9000033
S21400430070B5041C161C1D1C0322064B9847A023E0
S2140043105B00E650044B08332360A2235B00E550A5
S214004320201C70BDC5420000D8FD000008B572B65E
S214004330962001F0CDFB962001F0CAFBF8E7C046B8
S2140043400B4A30B594689268231C002A0CD10023CF
S21400435080221D5992059A1804331560B02BF7D1A8
S2140043608023034A9B05936010308000C15030BD07
S21400437000ED00E008B5044B1A78002A03D101329C
S2140043801A7000F013FC08BDFC420020036870B5EC
S2140043901B6900210122041C9847061C431C0ED0F2
S2140043A0236800211B690222201C9847051C2368ED
S2140043B0201C1B69311C00229847281C70BDFDE795
S2140043C008B503480421052200F01EFE08BDC046BD
S2140043D0A8440020094B10B508330360084B0021A1
S2140043E05A1CFF3202E00433934206D01C68844213
S2140043F0F9D1196004339342F8D110BD40FE000095
S21400440000430020F0B5474680B40E1C82B0344905
S214004410051C07F073FF041E08D1324B1B68002BE7
S2140044200FD0201C02B004BC9046F0BD281C2E49BC
S21400443007F064FF002807D12A4B01241B68002BD5
S214004440EFD1FFF7BDFFECE7281C284907F056FF21
S214004450002824D0264F00243B1C03E001340433FC
S214004460402C22D01A68002AF8D12B783A2B30D06C
S2140044706846291C01F034F8684601F08BF80028DD
S21400448013D0684601F068F8002811D0684601F09D
S2140044906FF8002809D0A300F8500334C1E7114B89
S2140044A002241B68002BBCD1CBE701246442B8E78A
S2140044B0684601F043F8051EF7D0036868469B6817
S2140044C0984601F039F80B4A011C3240281CC047B8
S2140044D0DFE7281C08496A4607F09AFE0098D8E7E6
S2140044E028FE00000844002038FE000030FE0000D1
S2140044F000430020FFFFFEFF6CFE000008B5031C13
S2140045000020022B0ADD0749033B9B005A585850EF
S214004510002A04D01368101C5B68984708BD012069
S2140045204042FBE700430020F8B50C1C171C02288D
S21400453012DC104B1B68002B01D1FFF741FF002F48
S21400454008D00D4DE6192178281C013400F0A8FF8C
S214004550B442F8D1381CF8BD0338084B8000C05868
S214004560002803D003681B689847F4E70120404200
S214004570F1E7C04608440020A8440020004300207D
S21400458010B50C1C022809DC0C4B1B68002B0FD046
S2140045900B4800F059FF2070012010BD0338094B6E
S2140045A08000C058002806D003689B689847F4E748
S2140045B0FFF706FFECE701204042EEE70844002044
S2140045C0A84400200043002008B5031C0120022B4D
S2140045D008DD033B054A9B009858002803D0036873
S2140045E0DB68984708BD01204042FBE700430020F7
S2140045F008B5031C0020022B08DD033B05489B0082
S2140046001858002803D003681B69984708BD012086
S2140046104042FBE70043002008B5022804D8802368
S21400462000209B014B6008BD05F0B2FD0923036026
S21400463001204042F7E7C04608B5012005F0AEFD70
S2140046407047C04608B5FFF795FEFFF7F9FFFEF77F
S21400465067FB08BD074A13681818EFF308818842FD
S21400466002D21060181C70470C220120024B4042F8
S2140046701A60F8E7CC0000201845002008B500288E
S21400468000D1FEE7FFF752FEFBE7C04608B5002163
S21400469007F0BFFC08BDC04608B505F0EFFE08BD34
S2140046A0FEE7C0461648174910B588420DD0164B8F
S2140046B099420AD2CA43D31800229B0801339B00B2
S2140046C084588C5004329A42FAD11049104B9942C1
S2140046D00BD2CA430020D31800229B0801339B004C
S2140046E08C18043220609A42FAD1FF21094B0A4AFC
S2140046F08B43936006F0D6F8FFF7A4FFFEE7C046AC
S214004700AC0C0100B00000207401002074010020F1
S2140047101C4500200000000000ED00E01723002AE2
S21400472001D0181C7047064A89008B58002B03D00E
S214004730834203D01D23F4E78850F2E70023F0E716
S214004740684400201723002901D0181C7047002257
S2140047501F2800D8024A01238340D3600023F4E7D1
S21400476000180040F8B5002301260B4C0B4D0C4FEB
S2140047702370321C9A402969114205D02A619B0099
S214004780DB59002B00D0984723780133DBB2237027
S2140047900F2BEED9F8BDC046644400200018004038
S2140047A0684400200223044A11780B4313705378A0
S2140047B05BB2002BFBDB704700180040402300B5BF
S2140047C0124A83B0916905200B439361002301A927
S2140047D00B7000F0C9F9052000F088F901230C4A97
S2140047E011780B43137053785BB2002BFBDB094B3D
S2140047F00022191C403104C38B42FCD11022064B08
S2140048001A60FFF7CFFF03B000BDC04600040040AB
S214004810001800406844002000E100E00023012268
S214004820036043608372023302724272C37270473F
S214004830F0B500230C1C83B001A94B70CB70237914
S214004840051C0B70237A20788B70002600F082F807
S2140048501F2D00D8124E0722A37A2A409200E07A33
S214004860002B01D0082318430F279740EB089B0026
S214004870F31899699040B9430A1C02439A61637A17
S214004880002B06D10122AA4073699343736103B0DB
S214004890F0BD0122AA40151C73691D437561F6E739
S2140048A000180040D37870B5002B31D11478802CD6
S2140048B047D0802324065B021C43537802251E1C27
S2140048C0AE4307D19378002B37D180239B021C433D
S2140048D041605378013B012B35D9A0250B04ED052B
S2140048E01B0C2B43D025234383622D060B0C2B4336
S2140048F023438362D378002B09D1630303D59378CF
S214004900012B23D041615378013B012B13D970BD95
S214004910A0240B04E4051B0C2343D024416024068A
S21400492083620B0C23438362D378002BEFD153783A
S214004930013B012BEBD88160E9E7C023DB021C4377
S214004940C6E70024B9E7024B1C40C6E78161DAE7F8
S214004950FFFFFBFF08B50A1C031CC1090020002945
S21400496004D1064958098C46C00160441F210B40FB
S2140049701E399940FFF796FF08BDC0460044004127
S2140049800823064A91690B43936101230121044AD7
S214004990137013781942FCD17047C04600040040DB
S2140049A0000C004070B50D784B782D02041C0543B2
S2140049B0002B02D08023DB021D434B7A002B02D053
S2140049C080231B031D434E68012E0FD9731E3340F0
S2140049D029D1022E05D00222013352009642FBD87E
S2140049E01B0218438023041C5B031D430B7A002B19
S2140049F002D080239B031D430E4A53780D4E5BB2B4
S214004A00002BFADB00F0DEF8B4607378094A5BB27C
S214004A10002BFADB802351685B020B401D43556078
S214004A2000F0EEF870BD802334029B0204431D4361
S214004A30DCE7C046000C004010B5041C0B4A537857
S214004A405BB2002BFBDB00F0BDF8094B07491C707E
S214004A504B78064A5BB2002BFADB8021536849028A
S214004A600B43536000F0CCF810BDC046000C00406D
S214004A70040C0040F8B5071C194A53785BB2002BAB
S214004A80FBDB00F09FF8174B154A1F705378144C49
S214004A905BB2002BFADB6068C004C00E01F034F98C
S214004AA0061C104B1F7065680F4BED02ED0F1F7054
S214004AB063785BB2002BFBDB094B9968090A8CB262
S214004AC000F09EF8002D03D0611CCE40301CF8BDCF
S214004AD0012CFBD9301C211C02F014FB061CF5E748
S214004AE0000C0040040C0040080C004010B5041CEC
S214004AF000F068F88021054B054A1C705388C901F0
S214004B000B43538000F07CF810BDC046020C0040FA
S214004B10000C004010B5041C00F054F880200E4B2A
S214004B200E4A1C7054880E4B518824050B40538047
S214004B3051880C4B240F0B405380C0015388074903
S214004B400342FBD14888064B2202034013434B80A6
S214004B5000F056F810BDC046020C0040000C0040A5
S214004B60FFF0FFFFFFBFFFFF10B50C7824020443E1
S214004B70FFF7D0FF014BA4B25C8010BD000C0040D4
S214004B8010B5041C00F01EF8054B1C70054B5C8825
S214004B9000F036F82405240F201CFFF76BFF10BD2D
S214004BA0020C0040000C00407047C04608B501F0FB
S214004BB03FF9FFF7F9FFFFF7F7FFFFF7FFFDFFF7F6
S214004BC0F3FF08BD0B4B1A68002A05D1EFF31081DE
S214004BD0002905D008490A701A6801321A60704721
S214004BE072B6BFF35F8F054A1170034A0131117028
S214004BF0F2E7C0460044002004440020D000002015
S214004C00084B1A68013A1A601B68002B09D1064B3C
S214004C101B78002B05D00122044B1A70BFF35F8F60
S214004C2062B670470044002004440020D0000020F4
S214004C3038B5104A104D147E6868937DE4B2DBB236
S214004C40002816D01C400223234206D013760B4BB6
S214004C501B68002B01D0012198470423234208D06B
S214004C60044A1376054B1B68002B02D068680021A7
S214004C70984738BD000C00420C4400202444002015
S214004C8038B5104A104D147E2869937DE4B2DBB225
S214004C90002816D01C400223234206D013760B4B66
S214004CA01B68002B01D0012198470423234208D01B
S214004CB0044A1376054B1B68002B02D02869002196
S214004CC0984738BD001800420C44002024440020B9
S214004CD038B5104A104D147E2868937DE4B2DBB2D6
S214004CE0002816D01C400223234206D013760B4B16
S214004CF01B68002B01D0012198470423234208D0CB
S214004D00044A1376054B1B68002B02D02868002146
S214004D10984738BD000800420C4400202444002078
S214004D2038B5104A104D147E6869937DE4B2DBB244
S214004D30002816D01C400223234206D013760B4BC5
S214004D401B68002B01D0012198470423234208D07A
S214004D50044A1376054B1B68002B02D068690021B5
S214004D60984738BD001C00420C4400202444002014
S214004D7038B5104A104D147EA868937DE4B2DBB2B5
S214004D80002816D01C400223234206D013760B4B75
S214004D901B68002B01D0012198470423234208D02A
S214004DA0044A1376054B1B68002B02D0A868002126
S214004DB0984738BD001000420C44002024440020D0
S214004DC038B5104A104D147EE868937DE4B2DBB225
S214004DD0002816D01C400223234206D013760B4B25
S214004DE01B68002B01D0012198470423234208D0DA
S214004DF0044A1376054B1B68002B02D0E868002196
S214004E00984738BD001400420C440020244400207B
S214004E10F0B54F464646C0B4041C85B000285CD0AA
S214004E20006800F059FF0E25002314306D44C0B210
S214004E302B80A7696669FFF7A3FE1023011C009369
S214004E40381C2A1C002300F05FFE2268D369002B62
S214004E50FCD12B889381E268236913431D22A25656
S214004E60013228D0C025AD021D431C23E356013372
S214004E7019D0A268FF2A1BD0294B15431E43002CCD
S214004E8025D02268D369002BFCD15560002C18D0A1
S214004E902268D369002BFCD10020166005B00CBC3C
S214004EA090469946F0BD1F4BA2681D40FF2AE3D1ED
S214004EB01D4B1E43E3E71D4D1D4080235B021D4333
S214004EC0D3E71B481B493F2200F086FDE0E7184861
S214004ED018493F2200F080FDD3E7154B154F181CEC
S214004EE0391C9C22984600F077FD206800F0F4FEFE
S214004EF00E25A36914306D44C0B299462C806669AD
S214004F00FFF73EFE1023011C00932A1C4846002390
S214004F1000F0FAFD4046391C3F2200F05DFD94E7A4
S214004F2004000041FFFFFEFF04000040FFFFFDFFFE
S214004F3088FE00008CFE000070B5051C86B00028B8
S214004F403CD01C201D21002328566956029303934B
S214004F500493059301F016F90024061C1C202B1957
S214004F601856311C01F09EF9A30002AA0134D05055
S214004F70042CF3D1039B00200193013B022B02D8A3
S214004F80114A9B0098581E22AB5E013308D0029B44
S214004F90002B03D1049B0193022B08D006B070BDF2
S214004FA0029B022BFAD180235B021843F6E7059B8F
S214004FB0032BF3D180239B021843EFE703480449F1
S214004FC0712200F009FDBCE77CFE000088FE0000B0
S214004FD08CFE000010B5041E0BD0FF23A360002338
S214004FE0E360236196239B01A36188235B036361CF
S214004FF010BD03480349E12200F0EEFCEDE7C04691
S21400500088FE00008CFE0000F0B54E46454657462A
S214005010E0B4041C84B00E1C151C002800D19DE0D2
S214005020604F3B78002B00D183E0201CFFF7D2FFB7
S214005030FF232677A377E3776577201CFFF77CFFAF
S214005040291C071C301C01F09DF8431C17D00F25A7
S21400505005400120291C404201F046F9061C021CAE
S2140050602060002C6AD0D369002BFCD10221136883
S2140050708B431360012223681868024205D004B0EF
S2140050801CBC90469946A246F0BD1B68194088464F
S214005090F5D1A81C824044490B6A1A430A6242466C
S2140050A002AB1A7014239946A94402A94846FFF792
S2140050B05BFD4846FFF71AFD0021002000F0ECFDDE
S2140050C06761201CFFF7A4FE424602AB5A719A7134
S2140050D0DA712023271C9A461C37A2440023FB566D
S2140050E0994601330FD04846291C01F0B7F802ABA9
S2140050F0C0B21871FF2806D06A464B46D371D079E5
S21400510003A9FFF727FC01375745E7D1274B9E42F7
S21400511030D0002C28D02368DA69002AFCD1002C75
S21400512031D0DA69002AFCD1196802320A431A60C3
S214005130A5E7FFF73BFD01233B7076E71C4B5622A5
S21400514099461C4B48469846191C00F045FC3F22E1
S2140051504846414600F040FC226884E7144815495A
S214005160ED2200F039FC5BE7114812493F2200F0BF
S21400517033FCD0E70122104B211C1A600F4847323F
S21400518005F02DFCC5E70A4E0A4D301C291C4A3294
S21400519000F022FC301C291C3F2200F01DFC236876
S2140051A0BFE7C046FC420020000400400008004262
S2140051B088FE00008CFE000008440020A844002062
S2140051C010B5041E21D02368134A93421BD00ADD73
S2140051D0124A93420FD0124A934212D0114A934277
S2140051E00BD0002006E0104A934208D00F4A9342A4
S2140051F0F7D10F4810BD0F48FCE70F48FAE70F48F5
S214005200F8E70F48F6E70F48F4E7AC220E480F49D8
S214005210920000F0E1FBD6E70010004200180042C2
S214005220001C00420014004200080042000C00422D
S214005230314C0000814C0000C14D0000D14C0000F4
S214005240214D0000714D000088FE00008CFE00001D
S214005250F0B54746041C80B40E1C151C002820D050
S214005260184B19602268184B9A4218D00DDC174963
S21400527001238A4203D0164901338A420DD1154ACA
S2140052809B009D5004BC9046F0BD134904238A42FF
S214005290F5D0124901338A42F1D00023EFE7032309
S2140052A0EDE70F4BB32298460E4F181C391C9200A0
S2140052B000F092FB034B4046391C0B4A1E6000F080
S2140052C08BFBCFE72444002000140042000C004271
S2140052D0001000420C44002000180042001C00424F
S2140052E088FE00008CFE00006602000010B5041E5A
S2140052F024D02368154A93421ED012DD144A9342E6
S21400530018D0144A0E20934209D0134A023893420A
S21400531005D012481249134A00F05EFB092040B23D
S21400532010BD114A09209342F9D0104A0130934229
S214005330F5D0EEE70D20F2E70B20F0E7B5220C489B
S2140053400749920000F048FBD3E7C0460010004231
S21400535000180042001C00420014004290060100A3
S2140053608CFE0000E302000000080042000C004231
S21400537088FE0000F0B54746041C80B40E1C171CBF
S21400538000283FD0201CFFF71BFF8046201CFFF79D
S214005390ADFF051C002F11D0002E23D0012E1DD0EE
S2140053A0281C4146FEF7CCFF1F231D401E3BAB408A
S2140053B01D1C174B1D6004BC9046F0BD002E15D07A
S2140053C0012E02D1022223681A751F231D401E3BA0
S2140053D0AB401D1C80230E4AD550ECE70222236802
S2140053E09A75DDE7042223689A75D9E704222368B4
S2140053F01A751F231D401E3BAB401D1C8023044A0C
S214005400D550D8E703480449044A00F0E5FAB9E75E
S21400541000E100E088FE00008CFE0000EB020000C9
S21400542010B5041E04D02368187E4007C00F10BDB8
S21400543002480349034A00F0CFFAF4E788FE00006A
S2140054408CFE00002303000010B5041E08D0201CAC
S214005450FFF7E6FF0028FAD02368188D80B210BD4B
S21400546002480349034A00F0B7FAF0E788FE000056
S2140054708CFE00001103000010B5041E04D00120AD
S21400548023681B7E184010BDCC22034803499200B7
S21400549000F0A2FAF3E7C04688FE00008CFE00008B
S2140054A038B5041C0D1C00280ED0ED05ED0D201C93
S2140054B0FFF7E2FF0028FAD0022223681D85216844
S2140054C00B7E1A42FCD038BD02480349034A00F05E
S2140054D083FAEAE788FE00008CFE0000190300004D
S2140054E038B50023036043600B78041C2F2B01D0D3
S2140054F0201C38BD4B78002BFAD0481C20604B7817
S2140055002F2B14D0002B15D0031C01E0002A0CD042
S2140055105D1A013323601A782F2AF7D1291C01332C
S214005520236001F039FB6060E2E7291CF9E7031C01
S2140055300021F4E70021F4E700687047436810B5DF
S214005540002B07D0041C181C01F046FB012801D1D3
S214005550606810BD0020FCE7406808B5002805D04C
S21400556001F03AFB43425841C0B208BD0020FCE7B8
S214005570436810B5002B0AD0041C181C01F02CFB45
S214005580002804D16068002801D0043810BD00202F
S214005590FCE7C0464068431E9841C0B27047C0460C
S2140055A07047C04610B5002808D014685368002C11
S2140055B005D0DA0705D45B10C018A04710BDDA077F
S2140055C0FCD55B10C01803681C59A047F6E7C04618
S2140055D010B5041C01F079FD201C10BDF0B5564630
S2140055E05F464D46444691460022F0B4051C041C16
S2140055F087B0039310AB9A56264B8A46083308C5E5
S2140056009346281C0021402205F0F2F90023221CB4
S2140056100493059304A9483241C941C21E4A226533
S2140056201E4A62651E4AA265221C48322366E4654D
S21400563062661C4AA266BFF36F8FBFF34F8F80224D
S214005640E366A3500432A3540432904641468C27A6
S214005650803A625090265A46E351134B0092A3516B
S214005660281C51464A46039B00F09CFF4346E259DD
S214005670E158281C002301F08DF8281CA15901F0E0
S2140056803DF9201C07B03CBC90469946A246AB4666
S214005690F0BDC046280101001FB504247C440FCC91
S2140056A098471FBDA555000040420F0070B50A4D33
S2140056B02B6883420FD08823061DC1580433C25876
S2140056C0041C0023301C01F065F89023301CE158C0
S2140056D001F014F92C6070BD2844002008B588231A
S2140056E0C1500433C2500022024B1A60FFF7DEFF9F
S2140056F008BDC0462844002008B590230022C150AB
S214005700024B1A60FFF7D2FF08BDC04628440020AF
S21400571038B50D1C041CFFF7C9FF291C201D01F01D
S21400572069F938BD08B500F0B5F808BD08B4024BF5
S2140057309C46DC3808BC60472557000008B500F0DA
S214005740AFF808BD08B4024B9C46DC3808BC60477E
S2140057503D57000038B5041C1D1C00F043F8201C03
S214005760291CDC3000F0DAF8064B201C1A1C191C29
S21400577008322260DC222031A15054330432A35078
S21400578038BDC0464001010008B54B005918C90095
S21400579043181A1CB8325268A8331B68002A06D071
S2140057A0002B03D04118AC31181C904708BD002BC5
S2140057B0FCD09847FAE7C04610B5002808D0146811
S2140057C05368002C05D0DA0705D45B10C018A04734
S2140057D010BDDA07FCD55B10C01803681C59A0473B
S2140057E0F6E7C046F0B5474680B4244B82B0036067
S2140057F00025031C171C6A46041C009501950833F7
S214005800884603CA03C31E4B23611E4B63611E4BAF
S214005810A361231C08332562E46163621B4BA36209
S214005820BFF36F8FBFF34F8F5C23261CE5622564A2
S2140058306564A5656036E5540133E554301C0021E7
S214005840482205F0D5F8A8239622E5501433E550F3
S2140058500433E5501433E55092010433E250301C13
S21400586041463A1CFFF7D0FB301C0949221CFFF7C3
S214005870EFFC201C02B004BC9046F0BDA80101005D
S2140058801FB504247C440FCC98471FBDB9570000B1
S2140058908957000008B56030FFF7D6FD08BDC04642
S2140058A010B50C1C6030FFF7FBFD201C10BDC04679
S2140058B000207047F8B58E18051C0F1C0C1EB4424D
