S01A000041746D656C5F726164696F5F746573745F332E73726563F8
S113000000800020351B0000311B0000311B000064
S113001000000000000000000000000000000000DC
S1130020000000000000000000000000311B000080
S11300300000000000000000311B0000311B000024
S1130040311B0000311B0000311B0000311B00007C
S1130050311B0000311B0000311B000000000000B8
S1130060311B0000311B0000311B0000311B00005C
S1130070311B00000000000000000000311B0000E4
S1130080311B0000311B0000B1440000BD440000DE
S1130090C94400000000000000000000000000004F
S11300A0000000000000000000000000311B000000
S11300B00000000010B5064C2378002B07D1054B37
S11300C0002B02D0044800E000BF0123237010BDC0
S11300D06801002000000000A4D2000008B5084B0D
S11300E0002B03D00748084900E000BF0748036815
S11300F0002B00D108BD064B002BFBD09847F9E735
S113010000000000A4D200006C010020A4D2000072
S1130110000000007047C0467047C0467047C046A4
S11301207047C04638B54468002C08D0081C2368C2
S11301309D680B68DB689847011C201CA84738BDE4
S113014010B5031C00291CD0081C1C1C0B68DB68A0
S113015098479A21490063585A1C6250E318187250
S11301603E23FF33E35C834204D13439FF399E23B9
S11301705B00E1542C23FF339A4202D90022093355
S1130180E25010BD7047C04610B5041C014B98479F
S1130190201C10BD8148000010B5041C014B984779
S11301A0201C10BD81480000024B083303604160ED
S11301B07047C046D8C0000010B5041C41600B4B0A
S11301C00833036000239A2149004350043143500B
S11301D0043143543E23FF33C25408300021962295
S11301E05200034B9847201C10BDC046F8C00000C5
S11301F061570000F8B54368002B24D09E235B00B0
S1130200C35C002B1FD0041C9C256D002C26FF36DC
S1130210002763595A1C6251E318197AB24200D973
S113022067519A235B00E35862599A4202D19E2394
S11302305B00E754606803689B6898479E235B00F3
S1130240E35C002BE5D1F8BD9E235B00C05C7047E6
S113025041607047021CD52080001358591C11506E
S1130260D3183C38844663449879D4239B00D358EC
S1130270994203D3D5218900535005E0312903D98C
S11302800021D5239B00D1507047C04608B5436870
S1130290002B04D0011C1A68D268181C904708BDB2
S11302A010B54368002B05D00A1C011C186844696A
S11302B0181CA04710BDC04610B54368002B05D0DC
S11302C00A1C011C18680469181CA04710BDC0460C
S11302D010B5041C034B083303600830024B9847E5
S11302E0201C10BD18C100002D0E000010B5041C08
S11302F0034B9847201C034B9847201C10BDC04655
S1130300D10200008148000038B50D1C0122084BC1
S1130310C2540830041C074B9847201C291C064B68
S11303209847201C054B98470220054B984738BD39
S11303301D030000F50B0000110D0000490C000026
S1130340F52D0000F0B5474680B482B0061C0823A2
S11303509C46844463460193144F154B984611E020
S1130360D425AD007459631C73510198C0473419E6
S1130370C6239B009C466444A0717359312B01D958
S1130380002272510198041CB8470028E8D1201CAF
S1130390084B98477068002803D003689B68311C99
S11303A0984702B004BC9046F0BDC046D10B000093
S11303B09D0B00008D0B000070B500290DD0161C9C
S11303C00D1C0830041C054B9847201C291C321CAA
S11303D0034B9847201C034B984770BDF50B000056
S11303E0050E0000490C000008307047F0B585B0D8
S11303F0041C00254560134B08330360061C0836B3
S11304003F230093103B01931B3B02930C33039354
S1130410301C3E21532232330B4FB847C7239B0075
S1130420E5540A4BE5543333E5500433E550301CAE
S11304300749084B9847301C0749084B9847201C2C
S113044005B0F0BD18C10000890900001D030000BB
S1130450A9040000850B0000910400007D0B00003E
S113046010B5084B1B68002B08D1D6208000064B22
S11304709847041C054B9847024B1C60014B1868B5
S113048010BDC0468401002089480000ED0300002F
S113049010B5041C034B984703681B6A211C98473A
S11304A010BDC0466104000038B5041C114B9847C8
S11304B0051C630706D50122C7239B00C2542307EA
S11304C007D415E0230713D5C7239B00C35C002B77
S11304D008D02B689B69281C98470022C7239B00DF
S11304E0EA5405E00368DB6998470022024BEA54AA
S11304F038BDC046610400001D0300007047C046BB
S113050008B54368002B04D0011C1A689268181CB3
S1130510904708BD10B54B68DA0701D40A6803E0B8
S11305205A1084580A68A2585B10C018904710BD2E
S113053010B5041C014B9847201C10BD81480000D5
S113054010B5041C084B08330360084B8360191C66
S11305501831E42281504C3304328350E430044B8C
S11305609847201C10BDC04648C10000E0C50000EB
S1130570752C000010B5041C034B9847201C034B3A
S11305809847201C10BDC04641050000814800006A
S113059008B5E430014B984708BDC046992C0000CB
S11305A008B5E430014B9847C0B208BDB12C000037
S11305B008B54160002810D0B023C0500A4A043363
S11305C0C25000220433C250084A0C33C25068306F
S11305D000210122064B984704E0682000210022F4
S11305E0034B984708BDC0460105000015050000EF
S11305F00925000070B5041C00254560054B08332F
S1130600036008300023044EB047FC23E550201C4F
S113061070BDC04648C10000692A00007047C0464A
S1130620F8B5041C0D1CFC277F00C659731CC3516C
S11306300B68DB68081C9847A61930712A68E359CF
S1130640E418E1789368281C9847F8BD10B5041C99
S1130650014B9847201C10BD8148000070B500284C
S11306601ED000291CD00D1C041C002A04D10978BA
S1130670013500290BD113E00E1C8D182368317845
S11306809B68201C98470136AE42F7D108E02368E6
S11306909B68201C984701356B1E19780029F6D1F8
S11306A070BDC046F0B557464E464546E0B482B0EC
S11306B0802040004C4EB047041C042105224B4DC1
S11306C0A8474B4F3C6080204000B0478046102133
S11306D01122A84780204000B047041C162117228D
S11306E0A847FE204000B047424B03600820B047B3
S11306F0211C414CA0470820B0474146A047082090
S1130700B0473968A047A0204000B047041C3968AE
S113071003223A4B9A469847A0204000B047051C54
S113072041460322D047364B98478146354B98477C
S11307300B21354B9847A0204000B047061C019080
S113074049460322D047386803681B69311C98471F
S11307504B461B681B694846211C984743461B6847
S11307601B694046311C9847386828490022284BA9
S11307709847284F0023FB56013304D126482749C4
S11307802822274B9847234E336972681A602548FC
S1130790254B98470023F356013304D11E481F49C3
S11307A028221F4B98471B4BDA685B6813601D486F
S11307B01D4B9847201C1D4B9847002802D0201C35
S11307C01B4B9847281C194B9847002802D0281C1B
S11307D0174B98470198154B98470028CAD00198A1
S11307E0134B9847C6E7C04689480000F50500004A
S11307F0A401002070C10000A9010000B90100009B
S113080061040000E90300006D0B000088C10000D2
S11308105D0600008801002090C10000A8C100000E
S1130820C52C0000CDCC4C3EDD2D0000490200005B
S1130830F501000008B50748002303704360037204
S113084043728372C3600361436183611321024B6A
S1130850984708BD88010020092D0000F0B55746CF
S11308604E464546E0B482B00AAC002565570BAC51
S11308702478002C02D0E830FF3067E0364C035572
S1130880364C045D002C57D1072915D8002950D0C7
S1130890334BC35C5C1C7F252C40EA35FF35455D3A
S11308A0A54246D0171C0139C9B252182C497F25DC
S11308B0AC469A26B60033E08E1E092E39DD284B4D
S11308C0C45C631C7F210B40EA31FF31415C092584
S11308D099420AD12DE047463B40013367463B40ED
S11308E05746C75D9F4208D123E01D49FF27B846FC
S11308F0803FBC46EA37FF37BA46575D0419E134F6
S1130900FF34E771DCB244540135EDB2B542E2DBA9
S11309100FE0013465462C400137855DA54208D0BF
S11309203D78C318E133FF33DD71E3B2435497429A
S1130930EFD1E830FF3009E000240094BC24A40087
S11309400459081C111C1A1C2B1CA04702B01CBC07
S113095090469946A246F0BDE9020000EB02000071
S11309606702000010B5041CBB239B00C35C002B72
S113097004D0BD239B00C358081C98470022014B98
S1130980E25410BDEE020000F0B54F464646C0B436
S113099087B0051C0EA8002686570FA8007840B221
S11309A0814610A8007840B2804611A80027C75796
S11309B0281C14300124644200942F4CA0470024C6
S11309C0A823EC54281CA830446004724472847236
S11309D0C460046144618461311C284EB047C4235F
S11309E0EC54281CC4304460047244728472C460A1
S11309F00461446184614946B047E023EC54281CF7
S1130A00E0304460047244728472C46004614461DE
S1130A1084614146B047281CFC30391C184B984768
S1130A20BD239B00EC50043BEC502C700833EC5479
S1130A30144BEC54144BEC54144BEC54013BEC5459
S1130A40134BEC54134BEC54134BEC54023BEC544B
S1130A50124BEC540133EC54281C11490022114B65
S1130A609847281C10490022104B9847281C07B0AF
S1130A700CBC90469946F0BD59280000092D000091
S1130A80B9270000F9020000FA020000ED0200009C
S1130A90EB020000E9020000EA0200006702000025
S1130AA05D080000410E000065090000590E0000B9
S1130AB070B5061C0D1C141C011C6931FF317F220A
S1130AC01E4B9847002C0BD0221C1D4BF3181D49BC
S1130AD0701811781970013201338342F9D11AE088
S1130AE04122174BF2544732174BF2540023174A52
S1130AF0B354CD210132B1542239154AB1546F3A5D
S1130B00FF3A144972541449725401217232FF326B
S1130B10B154124AB354EAB2301C0021104B984726
S1130B20104BF35C002B04D0301C04210E4B98476F
S1130B3003E0301C02210C4B984770BD750F000078
S1130B4069020000720200006A0200006B020000E9
S1130B506D0200006E0200006F02000071020000CE
S1130B60B5120000F90200006510000008B500226B
S1130B70014B984708BDC046B10A0000BF239B0043
S1130B80C1507047C0239B00C15070479A239B00FB
S1130B90C25C014BC2547047670200009A239B0059
S1130BA0C35C094A825C9A420BD0C218E132FF321C
S1130BB0D27901337F210B40EA31FF31435490B2A3
S1130BC000E0024800B2704767020000FFFF000027
S1130BD0074BC35C80339A229200805C1B1AD8179F
S1130BE0420E9B187F200340981A40B27047C046BB
S1130BF0670200000122064BC254EF3BFF3B054A4B
S1130C008354054A83540922EA33FF33C25470479C
S1130C10ED0200006E0200006F02000010B582B009
S1130C206B46D980074C6B46991D035D002B06D09B
S1130C300B889BB25A1E92B20A80002BF5D102B0E7
S1130C4010BDC046EE02000038B5041C0022264B3D
S1130C50C254BA229200835C023383542349244B46
S1130C6098470122234BE2540A33E35C002B04D05F
S1130C70201C0321204B984703E0201C01211E4B1C
S1130C8098471E4BE35CFF2B05D11D4AA35C202132
S1130C908B43A3540AE01B4BE35C002B03D141229A
S1130CA0174BE25402E06122154BE254BA239B0035
S1130CB0E15C201C124BE2180023134DA847201CB2
S1130CC00A490B4B9847114BE35C002B04D0201CC2
S1130CD00421094B984703E0201C0221064B984746
S1130CE00022044BE25438BDED020000FFFF000077
S1130CF01D0C0000EE020000651000006E020000F2
S1130D0069020000FA020000B9130000F9020000B1
S1130D1038B5041C2E4BC35C002B22D0BA239B0095
S1130D20C35C7C2B52D8C2189A208000844662444B
S1130D3051700133DBB2BA229200A3547C2B45D903
S1130D40201C244B98470122214BE254EF3BFF3BEC
S1130D50214AA354214AA3540922EA33FF33E2541B
S1130D6034E01F4BC15400231E4A83540132835480
S1130D701D491E4B984701221D4BE2540A33E35C84
S1130D80002B04D0201C03211A4B984703E0201C9D
S1130D900121184B9847201C0A21174BE218002305
S1130DA0164DA847201C1049104B9847144BE35C80
S1130DB0002B04D0201C04210E4B984703E0201C78
S1130DC002210C4B98470022094BE25438BDC0461F
S1130DD0ED020000490C00006E0200006F020000EA
S1130DE07202000073020000FFFF00001D0C0000EF
S1130DF0EE0200006510000069020000B913000053
S1130E00F9020000F8B5002A0CD0061C0C1C551E73
S1130E10EDB201354D19044F2178301CB847013427
S1130E20AC42F9D1F8BDC046110D000010B5041C48
S1130E30FC30024B9847201C10BDC04635270000EB
S1130E4082B06B4600910192C122920094466044A4
S1130E5006CB06C002B0704782B06B460091019287
S1130E60C32292009446604406CB06C002B0704789
S1130E7008B5BF239B00C358002B01D0081C98471A
S1130E8008BDC04608B5C0239B00C358002B01D041
S1130E90081C984708BDC046F0B585B003930AAC5A
S1130EA00027E7570BAC2678C124A4000559002D70
S1130EB005D104340459E30706D4101C0DE0C22400
S1130EC0A4000459E30702D56310C3585D59039B7A
S1130ED06410001900970196A84705B0F0BDC046FC
S1130EE010B5C3239B00C258002A04D10433C3584D
S1130EF0DC0705D40AE0C4239B00C358DC0702D5F1
S1130F005C100459A2585B10C018904710BDC0462D
S1130F10F0B587B0041C0721124B98470390227C3C
S1130F200F2702AB9C466744201CE1683B1C0E4D16
S1130F30A847051C201C0621802207230B4EB0471E
S1130F407F2129403B786A460C26965700964242F8
S1130F5042410192201CE268054DA847E06007B0B9
S1130F60F0BDC04681150000C1160000ED1500005B
S1130F70990E000030B583B0041CC16002742F497F
S1130F802F4B9847C423E356013304D12D482E49EF
S1130F9028222E4B9847231CC433DA685B681360FD
S1130FA0E023E356013304D1264827492822274B5E
S1130FB09847231CE033DA685B6813600620244BEF
S1130FC09847C423E356013304D11E481E492822FE
S1130FD01E4B9847231CC4331A695B681360201C9A
S1130FE00E2100221B4B9847201C0F211A4B9847B7
S1130FF008230093201C02211F220023174DA84719
S1131000FF204000124B9847154D201C01211F2240
S11310100023A8470828F8D101230093201C0421A9
S1131020202204330D4DA847201C0E210C22094B0D
S113103098470023E371237203B030BD40420F0090
S11310409514000090C10000A8C10000C52C000048
S1131050C52D0000191500008115000005160000BB
S1131060ED150000F0B54F4680B486B002900F2312
S11310706B4419701B78DBB2052B3BD89B00654A87
S1131080D3589F46082316226A44137015226A44D3
S11310901370B4E0062316226A44137015226A44BE
S11310A01370ACE0092316226A44137015226A44B3
S11310B01370A4E0162316226A44137015226A449E
S11310C013709CE0192316226A44137015226A4493
S11310D0137094E0082216236B441A70053A152302
S11310E06B441A70029BDB79052B00D18EE001233F
S11310F099463DE002980421474B9847082316225D
S11311006A44137015226A44137078E0E023029A4B
S1131110D356013304D1414841492822414B9847D1
S1131120029BE033DA685B681360FA2040003E4BB0
S1131130984764243D4F17256D443B4E0298012186
S11311401F220023B84728702B78082B05D03220A3
S1131150B047013CE4B2002CF0D117236B441B7858
S113116000229146082B03D0029801212A4B98476C
S113117015236B441B780093029802211F2200233D
S11311802B4CA0478C24294F17256D44264E0298DA
S113119001211F220023B847287016236B441B78B3
S11311A02A78DBB2934205D02020B047013CE4B258
S11311B0002CECD116236B441B7817226A44127856
S11311C0DBB2934203D002980121134B98474B465C
S11311D0002B0ED0E023029AD356013304D10F48DA
S11311E00F4928220F4B9847029BE0331A695B682A
S11311F013600F236B441B78029AD37106E0029BA1
S1131200DB79052B82D000239946B1E706B004BCF4
S11312109146F0BDF4C10000710E000090C10000C1
S1131220A8C10000C52C0000C52D0000ED1500006C
S11312300516000070B5041C0D1C0B072BD5C379D3
S1131240991EFD22114202D1154B984723E0012B30
S113125007D10021134B9847217A201C124B984741
S113126019E0032B17D10221E02202330F4EB047BD
S1131270032806D007D30538434243410321C91A42
S113128002E0012100E00021201C064B9847217A4E
S1131290201C054B9847201C291C054B984770BD02
S11312A0110F0000E10E000065100000ED150000B4
S11312B0850E0000F0B5474680B482B0051C0829AD
S11312C064D88900354B5B589F46D4B2231C0B3B32
S11312D00F2B07D8009408211F220023304EB0475B
S11312E02C7156E002212F4B984752E0D2B2131CC6
S11312F01133DBB2142B09D842712B4AD35C00930F
S113130005210F220023264CA04742E00221254B51
S113131098473EE0D2B2032A07D88271009208218E
S1131320602205231E4CA04733E002211D4B984741
S11313302FE0D1B201721D4B98472AE094B2E2B279
S113134022211B4EB047220A281C2321B04720E04B
S113135094B2E2B22021164EB047220A281C212161
S1131360B04716E0171C0832141C2426104B98466C
S11313703A78281C311CC0470136F6B20137A7421F
S1131380F6D106E0D1B20B4B984702E00221054B9F
S1131390984702B004BC9046F0BDC0460CC20000A1
S11313A005160000710E000030C200006510000038
S11313B0191500001D14000070B5041C0E1C151C2A
S11313C0937801339370E023C356013304D10F485B
S11313D00F4928220F4B9847231CE0331A695B6896
S11313E01360E023E356013304D108480849282256
S11313F0084B9847231CE033DA685B681360201CB1
S1131400311C2A1C044B984770BDC04690C1000093
S1131410A8C10000C52C000039160000F8B5061C50
S11314200C1E342C0FD0342903D8002533290BD0BB
S113143007E0542903D00125942905D001E00325B0
S113144002E0FF2411E00225301C02210322084F90
S1131450B847301C0C21074B98470323021C9A43BE
S11314601543EAB2301C0C21B847201CF8BDC04615
S1131470191500008115000010B54B68DA0701D476
S11314800A6803E05A1084580A68A2585B10C0180E
S1131490904710BD70B5041C0E1CA823C35601331D
S11314A004D1154815492822154B9847231CA83305
S11314B01A695B681360251C1435281C0821002256
S11314C0104B9847281C311C0F4B98479C235B00FA
S11314D0E4500E4A0433E25000220433E250231C49
S11314E03933FF330A4A5A61201C1D30FF30012171
S11314F00122084B984770BD90C10000A8C10000AC
S1131500C52C000059290000752900007D17000032
S1131510791400002D1D0000F8B5041C171CC0230D
S113152019430D1C183BC356013304D1104811490B
S11315302822114B9847231CA833DA685B68136090
S1131540261C1436301C291C0C4DA847301C391C91
S1131550A847A823E356013304D1054805492822A6
S1131560054B9847A834236962681A60F8BDC046E1
S113157090C10000A8C10000C52C00008D29000006
S1131580F8B5041C3F25294041350D43A823C35613
S1131590013304D1114812492822124B9847231CC5
S11315A0A833DA685B681360271C1437381C291CBD
S11315B00D4EB047381C291CB047C5B2A823E356CA
S11315C0013304D1054806492822064B9847A8341C
S11315D0236962681A60281CF8BDC04690C10000E7
S11315E0A8C10000C52C00008D29000038B5151CC9
S11315F01C1C034B984728402041C0B238BDC0464C
S113160081150000F0B583B0051C161C1C1C08AB2A
S11316101F780191064B9847B043C0B23A1CA240D0
S113162032400243281C0199024B984703B0F0BD95
S11316308115000019150000F0B583B0061C0F1CBD
S1131640151CA823C356013304D11948194928226B
S1131650194B9847331CA833DA685B68136014236A
S11316609C46B4446346019360466021134CA047F2
S11316700198391CA0472C1C013FFFB20137ED191A
S11316800E4F21780198B8470134AC42F9D1A82310
S1131690F356013304D1064806492822064B9847DD
S11316A0331CA8331A695B68136003B0F0BDC046ED
S11316B090C10000A8C10000C52C00008D290000C5
S11316C0F0B557464E46C0B483B0071C0191151CB3
S11316D09946A823C356013304D124482449282217
S11316E0244B98473B1CA833DA685B6813601423C7
S11316F09C46BC44634666460093181C20211E4C3D
S1131700A047301C0021A047C6B2AE4218D8019AA7
S1131710141C731EDBB20133D518174B9A4600987C
S11317200021D04720700134AC42F8D14B46002B45
S113173008D000980021104B98474B46187001E0E0
S113174080231E43A823FB56013304D107480849CC
S11317502822084B9847A8373B697A681A60301CDE
S113176003B00CBC91469A46F0BDC04690C100003F
S1131770A8C10000C52C00008D29000038B5041C48
S11317800F210C4B9847051C430704D5201C062148
S1131790084B984720702B0707D52378002B04D1DA
S11317A0201C0621034B98472070201C291C024B47
S11317B0984738BD811500003512000008B572B68F
S11317C0962001F017FB962001F014FBF8E7C046C1
S11317D00B4A30B594689268231C002A0CD100236C
S11317E080221D5992059A1804331560B02BF7D145
S11317F08023034A9B05936010308000C15030BDA4
S113180000ED00E008B5044B1A78002A03D1013238
S11318101A7000F0CDF908BDA8010020036870B566
S11318201B6900210122041C9847061C431C0ED08E
S1131830236800211B690222201C9847051C236889
S1131840201C1B69311C00229847281C70BDFDE731
S113185008B503480421052200F0A0FC08BDC046D9
S113186054030020094B10B508330360084B0021D2
S11318705A1CFF3202E00433934206D01C688442AF
S1131880F9D1196004339342F8D110BD60C200004D
S1131890AC010020F0B5474680B40E1C82B0344938
S11318A0051C05F09DFA041E08D1324B1B68002B61
S11318B00FD0201C02B004BC9046F0BD281C2E4959
S11318C005F08EFA002807D12A4B01241B68002B4F
S11318D0EFD1FFF7BDFFECE7281C284905F080FA9B
S11318E0002824D0264F00243B1C03E00134043399
S11318F0402C22D01A68002AF8D12B783A2B30D009
S11319006846291C00F0B6FE684600F00DFF00286A
S113191013D0684600F0EAFE002811D0684600F0B3
S1131920F1FE002809D0A300F8500334C1E7114B9D
S113193002241B68002BBCD1CBE701246442B8E726
S1131940684600F0C5FE051EF7D0036868469B682C
S1131950984600F0BBFE0B4A011C3240281CC047CD
S1131960DFE7281C08496A4605F0C4F90098D8E75F
S113197048C20000F002002058C2000050C200001B
S1131980AC010020FFFFFEFF8CC2000008B5031C61
S11319900020022B0ADD0749033B9B005A5858508C
S11319A0002A04D01368101C5B68984708BD012006
S11319B04042FBE7AC010020F8B50C1C171C0228C0
S11319C012DC104B1B68002B01D1FFF741FF002FE5
S11319D008D00D4DE6192178281C013400F02AFEA8
S11319E0B442F8D1381CF8BD0338084B8000C05805
S11319F0002803D003681B689847F4E7012040429D
S1131A00F1E7C046F002002054030020AC0100209E
S1131A1010B50C1C022809DC0C4B1B68002B0FD0E2
S1131A200B4800F0DBFD2070012010BD0338094B8A
S1131A308000C058002806D003689B689847F4E7E4
S1131A40FFF706FFECE701204042EEE7F00200203A
S1131A5054030020AC01002008B5031C0120022B14
S1131A6008DD033B054A9B009858002803D003680F
S1131A70DB68984708BD01204042FBE7AC01002029
S1131A8008B5031C0020022B08DD033B05489B001E
S1131A901858002803D003681B69984708BD012023
S1131AA04042FBE7AC01002008B5022804D880239B
S1131AB000209B014B6008BD03F022FA0923036058
S1131AC001204042F7E7C04608B5012003F01EFAA2
S1131AD07047C04608B5FFF795FEFFF7F9FFFEF71C
S1131AE0E1FD08BD074A13681818EFF3088188421E
S1131AF002D21060181C70470C220120024B404295
S1131B001A60F8E7B00000200404002008B500289B
S1131B1000D1FEE7FFF752FEFBE7C04608B50021FF
S1131B2004F0E9FF08BDC04608B503F05FFB08BD3B
S1131B30FEE7C0461648174910B588420DD0164B2B
S1131B4099420AD2CA43D31800229B0801339B004E
S1131B5084588C5004329A42FAD11049104B99425D
S1131B600BD2CA430020D31800229B0801339B00E8
S1131B708C18043220609A42FAD1FF21094B0A4A98
S1131B808B43936003F046FDFFF7A4FFFEE7C046D6
S1131B90A4D20000B00000206801002068010020E9
S1131BA0080400200000000000ED00E07047C0467B
S1131BB008B502F0BDFBFFF7F9FFFFF7F7FF01F0EF
S1131BC02DF9FFF7F3FF08BDF8B546464F46184B0D
S1131BD0C0B4002401269846164D174F321CA2406B
S1131BE0164B196911421AD01A6143460022E05C6F
S1131BF09146C30904D1124A43099146DB01994431
S1131C0040B201F015FC4B46196A3B680840411E7E
S1131C1088410221091A002B01D028689847013411
S1131C200435102CDAD10CBC90469946F8BDC04658
S1131C30B4000020B0020020AC02002000180040D4
S1131C4000440041F8B54F464646041CC0B4151C78
S1131C500E1C9946002832D0731C2DD01B4BA66055
S1131C601D6010239846A044404601F007F9002760
S1131C700123266167612376E776301C144901F05D
S1131C8065F8051C431C17D0C0B2414601F000F9A9
S1131C90104B042010495E55FFF79AFD10220F4B9C
S1131CA000201A604A460E4BE560AD00EA502770EA
S1131CB00CBC90469946F8BD01204042F8E709481B
S1131CC009493D2200F0FEFFC6E7C046AC020020F1
S1131CD0B4C90000B4000020C91B000000E100E00A
S1131CE0B00200209CC20000A0C2000010B5041E77
S1131CF00ED0E3680022D9B21F2900D8074A002079
S1131D0007499B0058500123E1688B40936010BD44
S1131D1004480549622200F0D5FFEAE700180040B4
S1131D20B00200209CC20000A0C2000070B5041CD8
S1131D300D1C161C002838D0E0680022C3B21F2BEB
S1131D4000D81D4A002E0CD0012D24D0022D27D0FE
S1131D5001238340D3602378E068032B08D1E37622
S1131D6010E02378012D13D0022D11D0032BF6D0CF
S1131D70012BF4D0022BF2D00023E376013383400D
S1131D809360E068211CC0B2103101F081F870BD8D
S1131D90AB432370EAE7012321780B432370D7E791
S1131DA0022321780B432370D2E7044804496A22B2
S1131DB000F088FFC0E7C046001800409CC2000045
S1131DC0A0C2000038B5104A104D147E6868937D97
S1131DD0E4B2DBB2002816D01C400223234206D012
S1131DE013760B4B1B68002B01D001219847042369
S1131DF0234208D0044A1376054B1B68002B02D0FB
S1131E0068680021984738BD000C0042F4020020A5
S1131E100C03002038B5104A104D147E2869937DB8
S1131E20E4B2DBB2002816D01C400223234206D0C1
S1131E3013760B4B1B68002B01D001219847042318
S1131E40234208D0044A1376054B1B68002B02D0AA
S1131E5028690021984738BD00180042F402002088
S1131E600C03002038B5104A104D147E2868937D69
S1131E70E4B2DBB2002816D01C400223234206D071
S1131E8013760B4B1B68002B01D0012198470423C8
S1131E90234208D0044A1376054B1B68002B02D05A
S1131EA028680021984738BD00080042F402002049
S1131EB00C03002038B5104A104D147E6869937DD8
S1131EC0E4B2DBB2002816D01C400223234206D021
S1131ED013760B4B1B68002B01D001219847042378
S1131EE0234208D0044A1376054B1B68002B02D00A
S1131EF068690021984738BD001C0042F4020020A4
S1131F000C03002038B5104A104D147EA868937D48
S1131F10E4B2DBB2002816D01C400223234206D0D0
S1131F2013760B4B1B68002B01D001219847042327
S1131F30234208D0044A1376054B1B68002B02D0B9
S1131F40A8680021984738BD00100042F402002020
S1131F500C03002038B5104A104D147EE868937DB8
S1131F60E4B2DBB2002816D01C400223234206D080
S1131F7013760B4B1B68002B01D0012198470423D7
S1131F80234208D0044A1376054B1B68002B02D069
S1131F90E8680021984738BD00140042F40200208C
S1131FA00C030020F0B54F464646C0B4041C85B06F
S1131FB000285CD0006801F0A1F80E25002314303D
S1131FC06D44C0B22B80A769666901F01DFA102325
S1131FD0011C0093381C2A1C002300F0A7FF226870
S1131FE0D369002BFCD12B889381E26823691343C6
S1131FF01D22A256013228D0C025AD021D431C2348
S1132000E356013319D0A268FF2A1BD0294B15438C
S11320101E43002C25D02268D369002BFCD15560C7
S1132020002C18D02268D369002BFCD10020166044
S113203005B00CBC90469946F0BD1F4BA2681D40EC
S1132040FF2AE3D11D4B1E43E3E71D4D1D408023B2
S11320505B021D43D3E71B481B493F2200F032FEBD
S1132060E0E7184818493F2200F02CFED3E7154B4F
S1132070154F181C391C9C22984600F023FE20683A
S113208001F03CF80E25A36914306D44C0B29946A2
S11320902C80666901F0B8F91023011C00932A1CF6
S11320A04846002300F042FF4046391C3F2200F01E
S11320B009FE94E704000041FFFFFEFF0400004016
S11320C0FFFFFDFF9CC2000018C3000070B5051C93
S11320D086B000283CD01C201D21002328566956B8
S11320E0029303930493059301F0EEFA0024061C73
S11320F01C202B191856311C01F076FBA30002AAF0
S11321000134D050042CF3D1039B00200193013BF4
S1132110022B02D8114A9B0098581E22AB5E013351
S113212008D0029B002B03D1049B0193022B08D0FF
S113213006B070BD029B022BFAD180235B021843C8
S1132140F6E7059B032BF3D180239B021843EFE7AB
S113215003480449712200F0B5FDBCE70CC300003C
S11321609CC2000018C3000010B5041E0BD0FF234E
S1132170A3600023E360236196239B01A36188236A
S11321805B03636110BD03480349E12200F09AFD3B
S1132190EDE7C0469CC2000018C30000F0B54E46EF
S11321A045465746E0B4041C84B00E1C151C002898
S11321B000D19DE0604F3B78002B00D183E0201CD0
S11321C0FFF7D2FFFF232677A377E3776577201CF9
S11321D0FFF77CFF291C071C301C01F075FA431C17
S11321E017D00F2505400120291C404201F01EFB99
S11321F0061C021C2060002C6AD0D369002BFCD181
S1132200022113688B431360012223681868024279
S113221005D004B01CBC90469946A246F0BD1B688C
S113222019408846F5D1A81C824044490B6A1A43D8
S11322300A62424602AB1A7014239946A94402A9C1
S1132240484601F0D5F8484601F094F800210020F2
S113225000F034FF6761201CFFF7A4FE424602AB86
S11322605A719A71DA712023271C9A461C37A244AA
S11322700023FB56994601330FD04846291C01F030
S11322808FFA02ABC0B21871FF2806D06A464B46DB
S1132290D371D07903A900F0A1FF01375745E7D1E5
S11322A0274B9E4230D0002C28D02368DA69002ABC
S11322B0FCD1002C31D0DA69002AFCD11968023231
S11322C00A431A60A5E7FFF773FC01233B7076E726
S11322D01C4B562299461C4B48469846191C00F044
S11322E0F1FC3F224846414600F0ECFC226884E7BA
S11322F014481549ED2200F0E5FC5BE7114812494A
S11323003F2200F0DFFCD0E70122104B211C1A60B1
S11323100F48473203F01BFAC5E70A4E0A4D301C3A
S1132320291C4A3200F0CEFC301C291C3F2200F04C
S1132330C9FC2368BFE7C046A80100200004004090
S1132340000800429CC2000018C30000F0020020F4
S11323505403002010B5041E21D02368134A93426D
S11323601BD00ADD124A93420FD0124A934212D074
S1132370114A93420BD0002006E0104A934208D041
S11323800F4A9342F7D10F4810BD0F48FCE70F489E
S1132390FAE70F48F8E70F48F6E70F48F4E7AC22EE
S11323A00E480F49920000F08DFCD6E70010004261
S11323B000180042001C00420014004200080042C1
S11323C0000C0042C51D0000151E0000551F000032
S11323D0651E0000B51E0000051F00009CC2000021
S11323E018C30000F0B54746041C80B40E1C151C2D
S11323F0002820D0184B19602268184B9A4218D034
S11324000DDC174901238A4203D0164901338A425D
S11324100DD1154A9B009D5004BC9046F0BD134954
S113242004238A42F5D0124901338A42F1D00023B1
S1132430EFE70323EDE70F4BB32298460E4F181C2A
S1132440391C920000F03EFC034B4046391C0B4AF9
S11324501E6000F037FCCFE70C030020001400429C
S1132460000C004200100042F40200200018004258
S1132470001C00429CC2000018C300006602000059
S113248010B5041E24D02368154A93421ED012DDD1
S1132490144A934218D0144A0E20934209D0134A86
S11324A00238934205D012481249134A00F00AFC3C
S11324B0092040B210BD114A09209342F9D0104AB4
S11324C001309342F5D0EEE70D20F2E70B20F0E760
S11324D0B5220C480749920000F0F4FBD3E7C0464C
S11324E00010004200180042001C00420014004288
S11324F0C0CC000018C30000E30200000008004242
S1132500000C00429CC20000F0B54746041C80B495
S11325100E1C171C00283FD0201CFFF71BFF804611
S1132520201CFFF7ADFF051C002F11D0002E23D077
S1132530012E1DD0281C4146FFF74AF91F231D40D8
S11325401E3BAB401D1C174B1D6004BC9046F0BDE8
S1132550002E15D0012E02D1022223681A751F23E2
S11325601D401E3BAB401D1C80230E4AD550ECE79A
S1132570022223689A75DDE7042223689A75D9E755
S1132580042223681A751F231D401E3BAB401D1CEB
S11325908023044AD550D8E703480449044A00F08C
S11325A091FBB9E700E100E09CC2000018C3000001
S11325B0EB02000010B5041E04D02368187E400707
S11325C0C00F10BD02480349034A00F07BFBF4E747
S11325D09CC2000018C300002303000010B5041EB1
S11325E008D0201CFFF7E6FF0028FAD02368188DD6
S11325F080B210BD02480349034A00F063FBF0E7D0
S11326009CC2000018C300001103000010B5041E92
S113261004D0012023681B7E184010BDCC2203483F
S11326200349920000F04EFBF3E7C0469CC2000051
S113263018C3000038B5041C0D1C00280ED0ED058D
S1132640ED0D201CFFF7E2FF0028FAD002222368D8
S11326501D8521680B7E1A42FCD038BD024803490F
S1132660034A00F02FFBEAE79CC2000018C30000F5
S11326701903000038B50023036043600B78041C81
S11326802F2B01D0201C38BD4B78002BFAD0481CCE
S113269020604B782F2B14D0002B15D0031C01E0A5
S11326A0002A0CD05D1A013323601A782F2AF7D13F
S11326B0291C0133236001F047FD6060E2E7291C17
S11326C0F9E7031C0021F4E70021F4E700687047F0
S11326D0436810B5002B07D0041C181C01F054FDEE
S11326E0012801D1606810BD0020FCE7406808B5EE
S11326F0002805D001F048FD43425841C0B208BD4E
S11327000020FCE7436810B5002B0AD0041C181CF9
S113271001F03AFD002804D16068002801D0043893
S113272010BD0020FCE7C0464068431E9841C0B27B
S11327307047C04610B5041C034B083303602030B7
S1132740FFF7D4FA201C10BDB0C5000010B5041C5E
S1132750054B083303602030FFF7C8FA201C02F051
S11327608FF8201C10BDC046B0C5000008B5012973
S11327700CD0022909D1836E002B12D0426D002A9D
S113278003D0011C101C5831984708BD036D002B61
S11327900CD0C26B002AF8D0011C101C40319847A1
S11327A0F3E7436D002BF0D09847EEE7C36B002BA3
S11327B0EBD09847E9E7C04638B5164B20220833DA
S11327C003600023041C0D1C0371836003734373B3
S11327D08373036143618361C36183541832436229
S11327E08362C362036343638354013283540132BB
S11327F0835401328354C363036543658366064A85
S1132800231C2030FFF71EFA201D291C00F06CFA4F
S1132810201C38BDB0C500006D2700007047C046BD
S113282010B5002808D014685368002C05D0DA07C6
S113283005D45B10C018A04710BDDA07FCD55B10A7
S1132840C01803681C59A047F6E7C04610B5041C1D
S113285002F016F8201C10BDF0B556465F464D46F2
S1132860444691460022F0B4051C041C87B003932F
S113287010AB9A56264B8A46083308C59346281C43
S11328800021402202F06CFF0023221C04930593D4
S113289004A9483241C941C21E4A22651E4A6265E2
S11328A01E4AA265221C48322366E46562661C4AFD
S11328B0A266BFF36F8FBFF34F8F8022E366A350EE
S11328C00432A3540432904641468C27803A625025
S11328D090265A46E351134B0092A351281C5146AB
S11328E04A46039B01F036F94346E259E158281C55
S11328F0002301F027FA281CA15901F0D7FA201C63
S113290007B03CBC90469946A246AB46F0BDC046D3
S1132910C0C500001FB504247C440FCC98471FBDDC
S11329202128000040420F0070B50A4D2B688342F5
S11329300FD08823061DC1580433C258041C002339
S1132940301C01F0FFF99023301CE15801F0AEFA7D
S11329502C6070BD1003002008B58823C1500433D7
S1132960C2500022024B1A60FFF7DEFF08BDC046CA
S11329701003002008B590230022C150024B1A60B6
S1132980FFF7D2FF08BDC0461003002038B50D1C68
S1132990041CFFF7C9FF291C201D01F003FB38BDEF
S11329A008B500F001F908BD08B4024B9C46DC38B8
S11329B008BC6047A129000008B500F0FBF808BD79
S11329C008B4024B9C46DC3808BC6047B9290000B7
S11329D0084B10B51A1C191C08320260DC22041CB6
S11329E020318150543304328350DC3000F042F9FA
S11329F0201C10BDD8C5000008B4024B9C46DC382E
S1132A0008BC6047D129000008B4024B9C46E0385A
S1132A1008BC6047D12900000A4B10B51A1C191CC8
S1132A2008320260DC22041C203181505433043209
S1132A308350DC3000F01EF9201C01F021FF201C23
S1132A4010BDC046D8C5000008B4024B9C46DC3813
S1132A5008BC6047192A000008B4024B9C46E038C1
S1132A6008BC6047192A000038B5041C1D1C00F07E
S1132A7043F8201C291CDC3000F0DAF8064B201C3B
S1132A801A1C191C08322260DC222031A150543354
S1132A900432A35038BDC046D8C5000008B54B0069
S1132AA05918C90043181A1CB8325268A8331B6855
S1132AB0002A06D0002B03D04118AC31181C9047D3
S1132AC008BD002BFCD09847FAE7C04610B5002893
S1132AD008D014685368002C05D0DA0705D45B10BD
S1132AE0C018A04710BDDA07FCD55B10C0180368F6
S1132AF01C59A047F6E7C046F0B5474680B4244BBE
S1132B0082B003600025031C171C6A46041C009550
S1132B1001950833884603CA03C31E4B23611E4B29
S1132B2063611E4BA361231C08332562E461636265
S1132B301B4BA362BFF36F8FBFF34F8F5C23261C25
S1132B40E56225646564A5656036E5540133E554A2
S1132B50301C0021482202F003FEA8239622E550EF
S1132B601433E5500433E5501433E5509201043333
S1132B70E250301C41463A1CFFF710FB301C094957
S1132B80221CFFF72FFC201C02B004BC9046F0BDB1
S1132B9040C600001FB504247C440FCC98471FBDD9
S1132BA0CD2A00009D2A000008B56030FFF716FD0D
S1132BB008BDC04610B50C1C6030FFF73BFD201C5F
S1132BC010BDC04600207047F8B58E18051C0F1CB8
S1132BD00C1EB44202D10AE0A64208D001342B688C
S1132BE0621E5B6A1178281C9847431CF4D1E01BD1
S1132BF0F8BDC046F8B58E18051C0F1C0C1EB44257
S1132C0005D10AE00134631E1870A64205D02B6872
S1132C10281C9B6A9847431CF4D1E01BF8BDC046AE
S1132C200020704700207047002070470020704744
S1132C3010B5041C84B001F0A9FA0B4B01A81A1CAE
S1132C403C33636000230832636122600749221C1D
S1132C5004F02EF8064901A802F0C4FB6061FEF7F7
S1132C605DFF201C04B010BD48C600008CC20000EB
S1132C708CC60000074B10B51A1C041C08323C33E8
S1132C8002604360406902F0AFF9201C01F092FA3F
S1132C90201C10BD48C6000038B50D1C041C40693A
S1132CA002F062FA281C616902F0CEFB38BDC0460E
S1132CB010B5041C406902F057FA6069FEF734FF4E
S1132CC010BDC04638B5051C0C1C131C291C024839
S1132CD0221C00F003F838BD90C600000FB4012098
S1132CE008B502F013F9C04638B50D1C041C00F0F9
S1132CF0B7FB6B1C07D0201C002100F019FC201C22
S1132D00012100F0EDFB38BD38B50D1C041C00F0AA
S1132D10A7FB6B1C0ED00023E35601330BD0E368F2
S1132D206268201C01211A6000F002FC201C0021B2
S1132D3000F0D6FB38BD034803492822FFF7C2FF41
S1132D40EDE7C04690C10000C4C6000002E0834223
S1132D5006D00C310023CB565A1CF8D1181C7047EE
S1132D604868FCE7021C08B5531C03D10BE09A42E7
S1132D700AD00C310023CB56581CF8D10448FFF775
S1132D80ADFF0120404208BD4868431CFBD1F5E774
S1132D9064C70000021C08B5531C03D10BE09A421F
S1132DA00AD00C310023CB56581CF8D10448FFF745
S1132DB095FF0120404208BD8868431CFBD1F5E71C
S1132DC084C7000038B5051C00F0D8FD041C00F0D1
S1132DD0D5FD001BA842FAD338BDC04608B5044946
S1132DE001F016FF02F046F8FFF7ECFF08BDC046FD
S1132DF00024744908B5FA239B005843FFF7E2FF07
S1132E0008BDC0460223044A11780B43137053785B
S1132E105BB2002BFBDB704700180040402300B579
S1132E20124A83B0916905200B439361002301A9E1
S1132E300B7000F0DDFA052000F09CFA01230C4A27
S1132E4011780B43137053785BB2002BFBDB094BF7
S1132E500022191C403104C38B42FCD11022064BC2
S1132E601A60FFF7CFFF03B000BDC0460004004066
S1132E70001800409C03002000E100E00023012230
S1132E80036043608372023302724272C3727047FA
S1132E90F0B500230C1C83B001A94B70CB702379CF
S1132EA0051C0B70237A20788B70002600F096F9AD
S1132EB01F2D00D8124E0722A37A2A409200E07AEE
S1132EC0002B01D0082318430F279740EB089B00E1
S1132ED0F31899699040B9430A1C02439A61637AD2
S1132EE0002B06D10122AA4073699343736103B096
S1132EF0F0BD0122AA40151C73691D437561F6E7F4
S1132F000018004010B5490840230024814202D231
S1132F10181C10BD1C1C631C091A9BB28842F9D9E9
S1132F204023FF2CF4D814800023F1E7F0B5564673
S1132F304D4644465F46F0B4041C251C87B010A8D7
S1132F400678402075438D4206D907B03CBC9046B4
S1132F509946A246AB46F0BD04920D1C221C002BE0
S1132F603FD1301C002101F029FE002383463F217C
S1132F7001209C469A462E1C0027002200238046EE
S1132F800C1C24E04146A9400D1C4146A140101CE4
S1132F908946191C801859410B1C021C5946009281
S1132FA00193294203D040461043021C019B9F42D7
S1132FB00BD801D1964208D8614648460143504691
S1132FC02843921BBB418C468246013C10D32021EE
S1132FD049426518D6D520210D1B4146E9400D1CF8
S1132FE0D3E70024012B07D0049B00201C80ACE70E
S1132FF063465C42240CF7E74B0F1C1CCB0098463D
S1133000301C0023002101F0D9FD00239C4620330D
S11330109B466346A1460090019103936B461B7B3C
S113302000200593002300219C463F2227E0012431
S11330309C40231C0127464697403E40041C0D1C1F
S1133040B2464E4624184D4133405646201C291C96
S1133050334304D00121231C0B43181C291C019B5E
S11330608B420AD802D1009B834206D8009B019C64
S1133070C01AA14163463B439C46013A09D320232D
S11330805B42D318D3D55B4601249B1ADC40231C36
S1133090D0E76146039A8B1A0749DB088B4206D9AD
S11330A0131C01330393082BB8D140204DE7059A34
S11330B054031C43A4B297E7FF1F000030B50E4C25
S11330C083B02378051C002B06D0002904D1637833
S11330D083420FD01D200BE001A913200D7000F0D6
S11330E087F9132000F046F901230020657023704E
S11330F003B030BD0020FBE71403002070B586B098
S11331006946094B6A4670CB70C170CB70C100230D
S113311099005158814205D00133062BF8D1002083
S113312006B070BDD8B2FBE794CB0000D37870B57D
S1133130002B31D11478802C47D0802324065B02E5
S11331401C43537802251E1CAE4307D19378002BF1
S113315037D180239B021C4341605378013B012BF0
S113316035D9A0250B04ED051B0C2B43D025234397
S113317083622D060B0C2B4323438362D378002BED
S113318009D1630303D59378012B23D0416153788C
S1133190013B012B13D970BDA0240B04E4051B0CC7
S11331A02343D0244160240683620B0C23438362AF
S11331B0D378002BEFD15378013B012BEBD88160FE
S11331C0E9E7C023DB021C43C6E70024B9E7024B4E
S11331D01C40C6E78161DAE7FFFFFBFF08B50A1C64
S11331E0031CC1090020002904D1064958098C4652
S11331F0C00160441F210B401E399940FFF796FF20
S113320008BDC046004400410823064A91690B43A7
S1133210936101230121044A137013781942FCD1EC
S11332207047C04600040040000C004070B50D78A3
S11332304B782D02041C0543002B02D08023DB02B3
S11332401D434B7A002B02D080231B031D434E6881
S1133250012E0FD9731E334029D1022E05D002222C
S1133260013352009642FBD81B0218438023041CEE
S11332705B031D430B7A002B02D080239B031D4369
S11332800E4A53780D4E5BB2002BFADB00F0DCFBE8
S1133290B4607378094A5BB2002BFADB802351686F
S11332A05B020B401D43556000F0ECFB70BD8023B6
S11332B034029B0204431D43DCE7C046000C00407B
S11332C010B5041C0B4A53785BB2002BFBDB00F0F7
S11332D0BBFB094B07491C704B78064A5BB2002BB9
S11332E0FADB8021536849020B43536000F0CAFBA8
S11332F010BDC046000C0040040C0040F8B5071C8B
S1133300194A53785BB2002BFBDB00F09DFB174B93
S1133310154A1F705378144C5BB2002BFADB6068BB
S1133320C004C00E00F070FF061C104B1F706568CF
S11333300F4BED02ED0F1F7063785BB2002BFBDBCC
S1133340094B9968090A8CB200F09CFB002D03D04C
S1133350611CCE40301CF8BD012CFBD9301C211C53
S113336001F0AAFA061CF5E7000C0040040C00402A
S1133370080C004010B5041C00F066FB8021054BCE
S1133380054A1C705388C9010B43538000F07AFB33
S113339010BDC046020C0040000C004010B5041CD7
S11333A000F052FB80200E4B0E4A1C7054880E4BCA
S11333B0518824050B40538051880C4B240F0B403B
S11333C05380C001538807490342FBD14888064B08
S11333D02202034013434B8000F054FB10BDC0464F
S11333E0020C0040000C0040FFF0FFFFFFBFFFFF96
S11333F010B50C7824020443FFF7D0FF014BA4B2AC
S11334005C8010BD000C004010B5041C00F01CFBD7
S1133410054B1C70054B5C8800F034FB2405240F1D
S1133420201CFFF76BFF10BD020C0040000C004095
S113343010B5041C431C09D0E217D20EA3181F2494
S113344001201C40A41A64B2A04010BD02480349E4
S11334501922FFF737FCEFE7ACCB0000C0CB00002C
S113346070B5051C82B00C1C4B1C28D0C8B20029B6
S11334702CDB184B46099C46F60166442C70E21777
S1133480D20EA3181F241C40A41A0122131C64B2D8
S1133490A3406B60002301A92B72AB726A720B709C
S11334A08B704A7000F0A0FE331C1433EB600433BD
S11334B02B61103608336B61AE6102B070BD0648F3
S11334C006491F22FFF7FEFB2C70F6E72C7000263E
S11334D0D5E7C04600440041ACCB0000C0CB00009F
S11334E030B5041C007883B043B20D1C013313D0F3
S11334F0A37A01A90B70237A65725A1E93418B70CB
S1133500012D03D0002D01D0022D00D14D70C0B289
S113351000F06AFE03B030BD034804493622FFF7C9
S1133520D1FB2078E4E7C04690C10000C0CB000086
S113353030B5041C007883B043B20D1C013313D0A2
S1133540637A01A94B70237AA5725A1E93418B703A
S1133550012D03D0002D01D0022D00D10D70C0B279
S113356000F042FE03B030BD034804494C22FFF78B
S1133570A9FB2078E4E7C04690C10000C0CB00005E
S1133580F0B5454657464E46E0B4884682B0051C21
S1133590431C62D0C417E20E1F24012783181C4069
S11335A0A41A64B2A740C6B2BA467509F3093ED15B
S11335B0374BED019C466544002D62D0281C1F2327
S11335C03340C21840321278012194466746802263
S11335D0394236D101A90A7002222C1940342378C9
S11335E01A4210D050462B68034034D14B702378D4
S11335F05B070AD52B6942460023CB70012A09D107
S113360043468B700AE001234B7000234246CB7083
S1133610012AF5D04246022AF2D08B70301CFFF703
S1133620DDFD02B01CBC90469946A246F0BD194B84
S11336309946194849462322FFF744FB00250020F8
S1133640BDE75B08C31830331A78D2B2314216D1C1
S11336500F231A40BEE74A70D7E70E4B0F4C99462A
S1133660191C201C5C22FFF72DFB201C49461E223E
S1133670FFF728FB0023FF269A462C1CD9E71209E2
S1133680A8E7054803492322FFF71CFB002096E71F
S11336900044004128CC000090CC0000ACCB0000DA
S11336A010B5041C012904D0201C0549FFF74EFB6A
S11336B010BD0449FFF74AFB431CF9D1F4E7C046A7
S11336C028C80000A4C7000038B50D1C431C1BD03B
S11336D00021FFF7E5FF431C16D00F240440281CEB
S11336E06B1C08D00021FFF7DBFF431C03D00F2322
S11336F01840A04206D0631C03D0431C02D0012012
S1133700404238BD201CFCE7281C6B1CF9D000216A
S11337100124FFF7C5FF6442431CE8D1F1E7C0462A
S1133720F0B50F1C85B0161C1D1C041C431C03D0D3
S11337300021FFF7B5FF041C0094381C7B1C02D049
S11337400021FFF7ADFF0190301C731C02D0002153
S1133750FFF7A6FF0290281C6B1C02D00021FFF784
S11337609FFF03900120002340420F22611C04D0DC
S1133770411C0BD0144084420FD10433102B0AD0C7
S11337806946CC58611CF8D0411CF3D1201C043389
S11337901040102BF4D105B0F0BD01204042FAE7EF
S11337A0F8B5431C04D00F2631400D1E052D02D957
S11337B001204042F8BD0A4F041C391CFFF7D2FA1D
S11337C03040A84207D0074F201C391CFFF7CAFA23
S11337D00640AE42ECD1201C391CFFF7DBFAE9E7C6
S11337E028C80000A4C7000070B5431C04D00F24EF
S11337F021400D1E052D02D90120404270BD09490A
S1133800061CFFF7AFFA231C0340AB4207D0301C61
S11338100549FFF7A7FA231C0340AB42ECD100098A
S11338202040EBE728C80000A4C7000070B586B0AC
S11338306A46084B684670CB70C270CB70C20F23C7
S11338401940052903D90120404206B070BD890002
S11338500858FAE798CC0000032208B5024B1B680D
S11338609A7300F0B9FC08BDDC03002030B50125D3
S1133870354B364C1D6023788FB0002B5CD0002371
S1133880002201AC22746361A36122772362636224
S113389000202370A370A380A27123816270A2729E
S11338A0E2722273A273627323856385A385FFF793
S11338B025FD274901F000F8002832D00023012813
S11338C007D040080133012822D00B2BF9D1E02383
S11338D0DB00A3800823A370073B637000231D4D06
S11338E0A3621D49013B221C281CE36200F012FE66
S11338F01A490222281C00F091FD7F212A68D37BFB
S11339008B43FCD1118802330B4313800FB030BDBD
S1133910082BDCD8062B13D8042B08D9A023DB00F2
S1133920D7E70F480F495722FFF7CCF90023E022CD
S11339301B02D2001340CCE7FEF73AF925709EE74C
S1133940C023DB00C5E7C04618030020A8010020FF
S113395040420F00DC0300200030004259380000D0
S1133960B0CC0000C4CC000008B5034B1B68002B8E
S113397001D1FFF77BFF08BD1803002008B5054BF4
S11339801B68002B01D1FFF771FF034800F014FFFF
S113399008BDC04618030020DC030020F8B5061C4F
S11339A0FFF7ECFF301A21D480278023114D3F0309
S11339B0EF5011491320FDF70BFF104C206800F065
S11339C089FD1F220E4B00211B5C201C13401E3A54
S11339D09A4010232A60627E134363761023226880
S11339E05373321C00F0FEFE2F60F8BD00F0F4FBB0
S11339F0FBE7C04600E100E0BD440000DC0300201A
S1133A0034CD00001021064B1A6811735A7E8A4384
S1133A1080215A768023034A0903D1507047C04657
S1133A20DC03002000E100E01022054B80211B682C
S1133A3009039A731A73C023024A5B00D15070477A
S1133A40DC03002000E100E00B4B1A68002A05D1DA
S1133A50EFF31081002905D008490A701A68013271
S1133A601A60704772B6BFF35F8F054A1170034A3C
S1133A7001311170F2E7C0461C030020200300202E
S1133A80C4000020084B1A68013A1A601B68002B16
S1133A9009D1064B1B78002B05D00122044B1A7068
S1133AA0BFF35F8F62B670471C0300202003002021
S1133AB0C4000020F8B5041E3ED02068FFF71EFBAA
S1133AC02379071C012B2AD0012500230520E318A4
S1133AD01856431C0FD0391CFFF786FE431C0AD02E
S1133AE0C0260005B6030640052065192856431C68
S1133AF007D1301CF8BD0520651928560026431C43
S1133B00F7D0391CFFF770FE431CF2D0002809D00F
S1133B10C023013800049B0218400643E9E700254E
S1133B200123D3E70720391C2056FFF75DFE032845
S1133B3008D000200643DCE704480549B122FFF71A
S1133B40C1F8BAE7C02080020643D2E79CC2000055
S1133B5038CD0000F0B544465F464D465646F0B4B5
S1133B6085B098460EAB1B78041C5BB20D1C9346C3
S1133B700093002800D1C8E04346013300D1B8E0E7
S1133B8000236A4E02AA53803378002B32D0594660
S1133B904246009B281CFFF7C3FD8146012049468D
S1133BA04042FFF743FE2060002C00D1A7E0604FA5
S1133BB0604E03E02268538BDB0B0AD0002CF9D152
S1133BC04422381C311CFFF77DF82268538BDB0B31
S1133BD0F4D1022113688B43136023681E68012308
S1133BE09A461E400BD005B03CBC90469946A2466E
S1133BF0AB46F0BDFDF7DCFF01233370C7E74B464E
S1133C00504602339840031C4B490A6A13430B6223
S1133C1002AB1E704B461433DBB21F1C181C02A9E6
S1133C200193FFF7E5FB381CFFF7A4FB00210020FC
S1133C30FFF744FA0C23226803AF11680B431360A7
S1133C405346237180233B705346BB705B46A3717C
S1133C504346E3716B461B786571237209239846CA
S1133C606DB27E70FE70A044A61D6B1C0BD0281C88
S1133C704946FFF795FDC0B23870FF2803D0E8B27B
S1133C80391CFFF7ABFA464506D0357801366DB2DC
S1133C906B1CECD14645F8D10198FFF7B5FB02AB9C
S1133CA0011C9A1C2548FFF72DF900289BD102AB73
S1133CB09B782268201C1373FFF7FCFE8021226886
S1133CC08902136818431060226853680B435360D9
S1133CD0002C25D0164E174D03E02268538BDB0BC6
S1133CE019D0002CF9D1301C291C4422FEF7EAFF1C
S1133CF0F3E713480F49F522FEF7E4FF40E70C48C9
S1133D000C495E22FEF7DEFF51E709480949F42217
S1133D10FEF7D8FF30E7116802330B43136062E704
S1133D20034804495222FEF7CDFFD3E7A80100203F
S1133D309CC2000038CD000000040040A0860100B1
S1133D40A0CD0000F8B54F464646041CC0B48846D2
S1133D50151C9946002800D18AE04F4F4F4E06E0CB
S1133D602268538BDB0BDB039BB2002B0DD0002CA2
S1133D70F6D14422381C311CFEF7A4FF2268538B71
S1133D80DB0BDB039BB2002BF1D1022011688143D2
S1133D9011604A46002A60D01C21206802688A43C8
S1133DA014390A43026022682371516840330B437B
S1133DB0536000239946271C661D0937002030569E
S1133DC0431C02D04946FFF7DBFB0136BE42F5D166
S1133DD02368201C1E68324B1E40FFF76BFE4246D0
S1133DE0236806431E6021680123082A00DC00239F
S1133DF007204A680340824313434B6001231A1C83
S1133E0020682A4006681107264A6D0832400A4392
S1133E10026021681D406B07234A0D6815401D434D
S1133E200D60002C32D01C4E1C4D03E02268538BD5
S1133E30DB0B0AD0002CF9D14422301C291CFEF7DC
S1133E4041FF2268538BDB0BF4D1116802330B431F
S1133E5013600CBC90469946F8BD1C2221680B687F
S1133E609343103A13430B60012323719946A2E74D
S1133E709622094F094E381C311CFF32FEF722FFEF
S1133E80381C311C5E22FEF71DFF66E70248034919
S1133E905222FEF717FFC6E79CC2000038CD00008F
S1133EA0FFFFCCFFFFFFFFEFFFFFFFDFF0B583B0A5
S1133EB000236A46041C0D1CD380002853D0374FBE
S1133EC0374E03E02268538BDB0B0AD0002CF9D168
S1133ED04422381C311CFEF7F5FE2268538BDB0BA1
S1133EE0F4D1022113688B4313602068FFF706F9AD
S1133EF01430C0B2FFF788FA6B46011C9A1D281CC7
S1133F00FFF700F800281DD16B4622689B791373D4
S1133F10002C36D0214E224D03E02268538BDB0B5C
S1133F200AD0002CF9D14422301C291CFEF7CAFE09
S1133F302268538BDB0BF4D1116802330B431360FB
S1133F4003B0F0BD002C22D0144E154D03E02268BE
S1133F50538BDB0BF0D0002CF9D1301C291C4422EC
S1133F60FEF7B0FEF3E7D0220C4F0D4E381C311C87
S1133F70FF32FEF7A7FE381C311C5E22FEF7A2FEBC
S1133F809DE7064806495222FEF79CFEC2E7034815
S1133F9003495222FEF796FED6E7C0469CC20000B3
S1133FA038CD0000F0B54746041C80B40E1C002830
S1133FB052D0637A052B45D03A4B3B4F98460125A6
S1133FC003E023681A7E15420AD1002CF9D173222A
S1133FD04046391CFEF776FE23681A7E1542F4D05B
S1133FE0002C43D01A7ED20703D5F605F60D9E6247
S1133FF023685B689B0325D52A4F2B4E042503E0D9
S113400023681A7E15420AD1002CF9D17C22381C6F
S1134010311CFEF757FE23681A7E1542F4D0002C9B
S113402032D00422197E00200A420CD0598B0A4255
S11340300CD107215A680A40012A13D0FF209B6A39
S1134040184000E0002004BC9046F0BD598B0A43A0
S113405092B25A832368ECE712481349134AFEF7D5
S113406031FEA6E7986AC005C00DECE70D4F0E4D72
S1134070381C291C8522FEF725FE381C291C7322B6
S1134080FEF720FE2368ADE7064E074D301C291CC1
S11340909622FEF717FE301C291C7C22FEF712FE26
S11340A02368BEE79CC2000038CD00001202000065
S11340B00A4B083303608368002B0AD0084B1A6844
S11340C0824201D106E01A1C53688342FBD1436843
S11340D05360704742681A60FBE7C046B0CD0000E9
S11340E0240300200D4B10B5083303608368041CBF
S11340F0002B0AD00A4B1A68904201D10AE01A1C1C
S113410053689C42FBD163685360201C00F0B8FBE9
S1134110201C10BD42681A60F7E7C046B0CD00000D
S113412024030020064B81600833036000230273DC
S11341304360002903D0034B1A681860426070473B
S1134140B0CD0000240300200E4B70B51C68061C83
S11341500D1C002C03D112E06468002C0FD0A06861
S11341600028F9D0311C2A1C02F04BFE0028F3D1A0
S1134170A06802F03FFEA842EED1201C00E000201F
S113418070BDC04624030020007B7047074B10B568
S11341900022041C08C0FFF7C5FF054B201C1A1C95
S11341A0343308322260636010BDC04668C2000028
S11341B0C0CD0000074B10B51A1C041C0832343360
S11341C0026043600430FFF773FF201CFDF74AFBD5
S11341D0201C10BDC0CD000008B5024800F02AFB29
S11341E008BDC04610CE0000802200B583B001ABEC
S11341F01A700A785A704A789A708A78191CDA7098
S1134200FEF7ECFF03B000BD10B508282CD81B4BFB
S113421080001B589F468020000210BD184B58692F
S1134220FBE7184B186A184B8005800FC340181C15
S1134230F3E70220124C23681840EED010221149F3
S1134240CB681A42FCD023685B070FD40F48E4E71D
S11342500B4B1869E1E750230A4A0020D35C5B0743
S1134260DBD5074BD868D8E70020D6E70020FFF756
S1134270CBF8A3681B041B0C5843CEE718CE0000F0
S1134280300300200008004000127A00006CDC02B9
S113429010B5082841D8224B80001B589F460020A7
S11342A010BD02231F4A002091690B439361F7E775
S11342B002231C4A0020918A0B439382F0E70223D5
S11342C0184A0020116A0B431362E9E70223102005
S11342D0154C2268134323602268144B1340114A7F
S11342E09384D3680F491842FBD0A3680020CB62A3
S11342F063688B6223689BB28B84D1E744220223D8
S11343000849885C03438B540020C9E70223054A0B
S11343100020118A0B431382C2E71720C0E7C0466E
S11343203CCE000000080040300300207FFF000066
S1134330F0B54746C2221E2180B4314BD2009A60A8
S1134340304A0024536884B08B435360012301AD89
S11343502B70E0B2291C0134FFF74AF8252CF8D160
S1134360294B274C1B68A169DB045B0E1A04274BFD
S113437004260B40134308224027A361A3690420A9
S113438033431343BB43783290461343E022D200B5
S113439013431F4A1340A361FFF77AFF4246236A7F
S11343A00620BB4313431B4A13402362FFF770FFED
S11343B00024FEF729FF2023291C02206B606C7067
S11343C02C726C722E70FEF731FF0220FEF778FF1C
S11343D0114B291C1C725C729C72DC72012300203C
S11343E06B6005332B706C702C726C72FEF71EFFC1
S11343F00020FEF765FF04B004BC9046F0BDC04643
S1134400000800400040004124608000FFFF80FF5E
S1134410FFEFFFFFFFFCFFFF00040040931C9B0025
S11344201950022A09D0032A0CD0012393401A1CE4
S1134430037E1A430276002070471023027E134342
S11344400376F8E72023027E13430376F3E7C0469E
S113445070B50126154B8000C5582B682C7E9B7BBC
S11344601C406B7E1C4026421AD10226264211D1E2
S11344701026264208D12026264204D06B69281C27
S113448098472B689E7370BD2B69281C98472B682E
S11344909E73F0E7EB68281C98472B689E73E7E748
S11344A0AB68281C98472B689E73DEE7F80300204E
S11344B008B50020FFF7CCFF08BDC04608B50120B1
S11344C0FFF7C6FF08BDC04608B50220FFF7C0FFCE
S11344D008BDC0460E4B011C181C70B584B001AA5F
S11344E070C870C2019A8A4208D05A688A4208D0B9
S11344F09B6800208B4207D004B070BD0020C0B27E
S1134500FAE70120C0B2F7E70230C0B2F4E7C046D0
S113451060CE0000F0B557464E464546A34C914642
S1134520221CE0B486B003AB051C0E1C9A4683CA59
S113453083C3039B9E4200D10CE163689E4200D179
S11345400BE100239846A3689E4200D108E1211C98
S113455003220C3101A801F0FAF8211C06221031C3
S1134560504601F0F4F80023AB60EB602B616B6103
S11345702B766B7643468E4A9B009D504B462E60AD
S11345809B78082B0BD02B71338801220520DB0785
S11345900AD506B01CBC90469946A246F0BD4246D8
S11345A01720D207F5D5EEE7F37B1730DB06F0D4FE
S11345B0022133880B40ECD14946097C002900D004
S11345C0D1E04B461B7F002B00D0D8E0414650463B
S11345D0784A4900136A415A0B4313624B469B784D
S11345E0082B00D1DAE04B466A461B786946137003
S11345F06B46424604339C5C201CFEF7F9FE201CEB
S1134600FEF7B8FE4B464A4698881B8903439079C7
S11346109278104318434B465B78002B02D08023DA
S11346201B0118437F222968CB7B9343FCD14B4663
S11346303080587B431E98414B469B7B8000002B67
S113464001D0012318437F222968CB7B9343FCD1FB
S1134650FF333371002805D07F222968CB7B934335
S1134660FCD170714B46987ADB7A002B01D0102371
S113467018434B461B7B002B01D0202318437F2279
S11346802968CB7B9343FCD17F21B0712A68D37B0B
S11346908B43FCD12B797F21042B07D07F21082B5E
S11346A040D07F21002B25D0172072E7D37B8B438A
S11346B0FCD14A462833D35C7F2233742968CB7BF0
S11346C09343FCD14A462933D35C7F22337529684E
S11346D0CB7B9343FCD14A462A33D35C7F22337687
S11346E02968CB7B9343FCD14A462B33D35C00200F
S11346F073764EE7D37B8B43FCD14B467F221B8DD5
S113470033822968CB7B9343FCD14B467F225B8D5C
S113471033832968CB7B9343FCD14B469B8D00208C
S1134720738336E7D37B8B43FCD14B467F229B6A52
S113473033612968CB7B9343FCD14B467F22DB6AF0
S1134740B3612968CB7B9343FCD14B461B6B0020A0
S1134750F3611EE700239846F9E601239846F6E63E
S113476002239846F3E602A9CB704B461B7E8A705F
S11347700B704B46187D4A70FEF730FD21E701238C
S1134780002202A98B704B704B46CA704A461B6AC2
S1134790526AD8B20A70FEF721FD17E7414601318B
S11347A04900136A415A0B4313621CE760CE0000B0
S11347B0F8030020000400407F210268D37B8B4370
S11347C0FCD10379042B0AD0082B06D00020002B3F
S11347D000D07047108A80B2FBE71069F9E7107CBB
S11347E0C0B2F6E730B57F250468E37BAB43FCD168
S11347F00379042B16D0082B0CD01720002B00D0E3
S113480030BD17200129FBD80C3192B249000A535C
S11348100020F5E717200129F2D8063189000A5152
S11348200020EDE717200129EAD8D2B261180A76F0
S11348300020E5E738B50368051CDB6898476B681A
S11348405B680DE01C682B685B689847241A002C91
S11348500CDC6A6851688B6853601268002A0CD1BA
S1134860002BEFD12B689B68984738BD6A682B688A
S113487052681B6910689847F7E748689047DEE775
S113488008B500F04FFF08BD10B5041E02D1013475
S113489000E08047201C00F03BFF002805D100F019
S11348A005F80028F5D100F023FB10BD014B186872
S11348B07047C04648030020002243088B4274D34B
S11348C003098B425FD3030A8B4244D3030B8B420D
S11348D028D3030C8B420DD3FF22090212BA030C16
S11348E08B4202D31212090265D0030B8B4219D3F7
S11348F000E0090AC30B8B4201D3CB03C01A524117
S1134900830B8B4201D38B03C01A5241430B8B425E
S113491001D34B03C01A5241030B8B4201D30B0347
S1134920C01A5241C30A8B4201D3CB02C01A52416E
S1134930830A8B4201D38B02C01A5241430A8B4231
S113494001D34B02C01A5241030A8B4201D30B021A
S1134950C01A5241CDD2C3098B4201D3CB01C01A34
S1134960524183098B4201D38B01C01A524143093E
S11349708B4201D34B01C01A524103098B4201D32C
S11349800B01C01A5241C3088B4201D3CB00C01A99
S1134990524183088B4201D38B00C01A5241430811
S11349A08B4201D34B00C01A5241411A00D2014636
S11349B0524110467047FFE701B5002000F0FCF8B3
S11349C002BDC0460029F7D003B5FFF775FF0EBC42
S11349D04243891A1847C04603460B437FD400223A
S11349E043088B4274D303098B425FD3030A8B427F
S11349F044D3030B8B4228D3030C8B420DD3FF22E9
S1134A00090212BA030C8B4202D31212090265D0B6
S1134A10030B8B4219D300E0090AC30B8B4201D369
S1134A20CB03C01A5241830B8B4201D38B03C01AB0
S1134A305241430B8B4201D34B03C01A5241030B27
S1134A408B4201D30B03C01A5241C30A8B4201D3D8
S1134A50CB02C01A5241830A8B4201D38B02C01A83
S1134A605241430A8B4201D34B02C01A5241030AFA
S1134A708B4201D30B02C01A5241CDD2C3098B42DF
S1134A8001D3CB01C01A524183098B4201D38B015C
S1134A90C01A524143098B4201D34B01C01A5241FF
S1134AA003098B4201D30B01C01A5241C3088B4244
S1134AB001D3CB00C01A524183088B4201D38B002F
S1134AC0C01A524143088B4201D34B00C01A5241D1
S1134AD0411A00D201465241104670475DE0CA0FA8
S1134AE000D04942031000D34042534000229C4668
S1134AF003098B422DD3030A8B4212D3FC22890172
S1134B0012BA030A8B420CD3890192118B4208D347
S1134B10890192118B4204D389013AD0921100E0A9
S1134B208909C3098B4201D3CB01C01A52418309BD
S1134B308B4201D38B01C01A524143098B4201D3EA
S1134B404B01C01A524103098B4201D30B01C01A15
S1134B505241C3088B4201D3CB00C01A524183088F
S1134B608B4201D38B00C01A5241D9D243088B42E5
S1134B7001D34B00C01A5241411A00D20146634688
S1134B8052415B10104601D34042002B00D54942EC
S1134B90704763465B1000D3404201B5002000F02B
S1134BA00BF802BD0029F8D003B5FFF715FF0EBCC2
S1134BB04243891A1847C0467047C046F0B54F466D
S1134BC0464605042D0C2C1CC0B41704160C3F0CCF
S1134BD09946030C7C4375435F4373437D19260C4C
S1134BE0AD199C46AF4203D980235B029846C44466
S1134BF04B465143434324042E0C240C2D04664499
S1134C002C1959188919201C0CBC90469946F0BDE2
S1134C10F0B55F4656464D464446F0B4450246005C
S1134C20C40F83B00F1C6D0A360EA34645D0FF2E69
S1134C3025D080231B041D4300239A46ED007F3EAC
S1134C4001937B025B0A98467800FB0F000E99469D
S1134C5040D0FF2838D0802342461B041343DB0096
S1134C60984600237F384A46019F30186240411C11
S1134C701F430F2F69D87D4EBF00F659B746002D4C
S1134C8045D108230193063B9A46DAE793465346F7
S1134C90022B2FD15B46012400251C40FF236D020B
S1134CA0DB056D0AE4071D432543281C03B03CBC07
S1134CB090469946A246AB46F0BD002D2CD1042364
S1134CC00193033B9A46BCE743465A4253410322AD
S1134CD0D31AC8E742460123002AC4D0404600F054
S1134CE0E9F84246431F9A4076235B42181A9046DD
S1134CF00023B8E7032B00D1ADE0012B00D08CE0FA
S1134D005B4654461C40E4B200230025C7E70C234D
S1134D100193093B9A4694E7281C00F0CBF87626C9
S1134D20431F9D4000237642361A01939A4688E732
S1134D3080250024ED03FF23B1E74546CB469A4680
S1134D40A5E7454693469A46A1E743462C041B0C27
S1134D509C46230C444626041C1C360C2F0C74431E
S1134D60351C66467D4373437743EB18260C9E1926
S1134D70B54203D980235B029C4667442404330470
S1134D80240C1B199D016C1EA5419B0E360C2B4354
S1134D90BD19AD011D432B0104D5012368081D4035
S1134DA00543081C031C7F33002B2CDD690704D04A
S1134DB00F212940042900D00435290103D52C4BA7
S1134DC01D40031C8033FE2B17DD0124FF231440F8
S1134DD0002564E78020C003054209D0434603420E
S1134DE006D1454605436D026D0A4C46FF2356E73E
S1134DF005436D026D0AFF2351E70124AD016D0ADD
S1134E00DBB214404BE77E235B421B1A1B2B07DDEE
S1134E10012400231440002541E7081C5A46C1E739
S1134E209E30291C8540D940681E85410D436B077F
S1134E3004D00F232B40042B00D004356B0104D580
S1134E40012401231440002529E70124AD016D0A42
S1134E501440002323E78023DB031D4301245B4626
S1134E606D0223401C1C6D0AFF2318E778CE000056
S1134E70FFFFFFF74202510A4200C30F120E002047
S1134E807E2A0DDD9D2A0CDC802000040143952A36
S1134E900ADC9620821AD1400A1C58424240D0189B
S1134EA07047034A9818FBE7963A91400A1CF4E7C6
S1134EB0FFFFFF7F1C2101231B04984201D3000C38
S1134EC010391B0A984201D3000A08391B09984279
S1134ED001D30009043902A2105C40187047C0468F
S1134EE004030202010101010000000000000000AF
S1134EF008B5062001F0BCFE0120FCF707FE000007
S1134F00014B18687047C04628010020084B10B5B3
S1134F10041C002B02D0002100E000BF054B1868E0
S1134F20836A002B00D09847201CFCF7EFFDC04695
S1134F30000000001CCF000070B5051C0C1E01D140
S1134F40002049E0002804D08369002B01D100F03F
S1134F5099F9224B9C4201D16C6808E0204B9C4299
S1134F6001D1AC6803E01F4B9C4200D1EC680C22D9
S1134F70A35E002BE4D0281C211C00F03FF8236B17
S1134F80061C002B06D0281C216A9847002801DA49
S1134F9001267642A3891B0603D5281C216900F04B
S1134FA0E7FB616B002908D0231C4433994202D0EB
S1134FB0281C00F0DDFB00236363A16C002904D0EE
S1134FC0281C00F0D5FB0023A36400F0CBF90023D8
S1134FD0A38100F0C8F9301C70BDC046B8CE0000F3
S1134FE0D8CE0000F8CE000008B5034B011C1868A9
S1134FF0FFF7A2FF08BDC04628010020F7B58A8943
S1135000051C0C1C13075ED44B68002B02DC0B6CD4
S1135010002B1ADDE76A002F17D000232E682B60BF
S113502080235B011A4001D0626D15E0281C216ABF
S11350300123B847021C431C0ED12B68002B0BD054
S11350401D2B01D0162B02D12E6000205EE04021E2
S1135050A3890B43A38159E0A3895B0706D5636841
S1135060D21A636B002B01D0236CD21A0023281CA4
S1135070216AE76AB847A389421C06D12A68002A34
S113508003D01D2A01D0162A19D100226260226998
S11350902260DB0405D5431C02D12B68002B00D110
S11350A06065616B2E600029CFD0231C4433994284
S11350B002D0281C00F05CFB0020606326E0402244
S11350C01343A38122E00F69002FBED00B680F6049
S11350D0DB1B01930023920700D14B69A360019B62
S11350E0002BB2DD281C216A3A1C019BA66AB0473A
S11350F0002806DC40220120A38940421343A381F7
S113510004E0019B3F181B1A0193E8E7FEBD000071
S113511038B50B69051C0C1C002B01D100201CE0C8
S1135120002804D08369002B01D100F0ABF80B4BAD
S11351309C4201D16C6808E0094B9C4201D1AC68E7
S113514003E0084B9C4200D1EC680C22A35E002BC8
S1135150E4D0281C211CFFF751FF38BDB8CE000055
S1135160D8CE0000F8CE000008B5011E05D1054BCD
S11351700549186800F02CFA03E0044B1868FFF79F
S1135180C7FF08BD1CCF00001151000028010020FA
S113519038B5051C0C1C002804D08369002B01D1F0
S11351A000F070F80E4B9C4201D16C6808E00D4B86
S11351B09C4201D1AC6803E00B4B9C4200D1EC68EB
S11351C06368013B6360002B04DA281C211C01F096
S11351D0F5FB03E023685A1C2260187838BDC046EA
S11351E0B8CE0000D8CE0000F8CE000008B5034BBE
S11351F0011C1868FFF7CCFF08BDC0462801002039
S113520008B5024900F0E4F908BDC0461151000098
S1135210002310B5041C03604360836081814366EE
S1135220C281036143618361191C08225C3000F070
S113523097FA054B24626362044BA362044BE36256
S1135240044B236310BDC046456D0000716D000022
S1135250A96D0000D56D000070B568254B1E5D4337
S11352600E1C291C743100F0C9FA041E08D0002158
S11352702A1C016046600C30A060683200F070FAAD
S1135280201C70BD836913B5002B28D18364C364CB
S11352900365134B134A1B6882620193984201D140
S11352A001238361041C00F01FF86060201C00F0DF
S11352B01BF8A060201C00F017F80421E060002215
S11352C06068FFF7A5FFA06809210122FFF7A0FF8E
S11352D0E06812210222FFF79BFF0123A36113BDA3
S11352E01CCF000001520000F8B51D4B061C1D68C0
S11352F0AB69002B02D1281CFFF7C4FF4835AC680A
S11353006B68013B05D40C22A75E002F10D06834D3
S1135310F7E72B68002B06D1301C0421FFF79CFF14
S11353202860002801D02D68E9E70C23336016E0DB
S11353300123201C5B42E3810233A381676627605B
S1135340A760676027616761A7615C30391C082228
S113535000F006FA201C6763A763A764E764F8BD3E
S11353601CCF000070477047F7B50F1C111C01AA31
S1135370051C03F069FC061E01D1002427E0281C4B
S1135380FFF7B2FF041EF8D0DB23281C391C019A56
S11353905B0001F027FA002806DA0025FFF7E2FF98
S11353A0A581FFF7E0FFE8E70A4BE08163620A4B5F
S11353B0A681A362094B2462E362094B2363F305CC
S11353C005D5281C211C0022022300F049F8201CCA
S11353D0FEBDC046456D0000716D0000A96D000062
S11353E0D56D000008B5031C0A1C03490868191C84
S11353F0FFF7BAFF08BDC0462801002070B5051CA0
S11354000E1C141C002804D08369002B01D1FFF763
S113541039FF0A4B9C4201D16C6808E0084B9C425E
S113542001D1AC6803E0074B9C4200D1EC68281C16
S1135430311C221C01F0EAF970BDC046B8CE000050
S1135440D8CE0000F8CE000008B5031C0A1C03499E
S11354500868191CFFF7D2FF08BDC04628010020C8
S113546008B500F001F808BDF7B5051C0C1C019245
S11354701E1C002804D08369002B01D1FFF702FF12
S1135480414B9C4201D16C6808E0404B9C4201D1E5
S1135490AC6803E03E4B9C4200D1EC688422A389B3
S11354A052001340934203D1281C211CFFF730FE05
S11354B0E36A0093002B01D11D3331E0012E05D0A6
S11354C0022E31D01623002E2AD12DE0281C211CB7
S11354D0FFF71EFE8023A2895B011A4001D0606D94
S11354E006E0331C281C216A009EB047431C18D0D8
S11354F0A3895A0707D56368C01A636B002B0AD0C7
S1135500236CC01A07E01B0705D52368002B02D0C3
S113551022699B1AC018019B00261B18019303E003
S11355202B6001277F422DE02369002B03D1281C27
S1135530211C00F095F8281C211CFFF7E9FD071E2B
S1135540EFD1331C281C216A019A009EB047431CEA
S1135550E7D0616B002908D0231C4433994202D060
S1135560281C00F005F9002363630021201C236933
S1135570A2892360074B61601340A3815C30082239
S113558000F0EEF8381CFEBDB8CE0000D8CE000006
S1135590F8CE0000DFF7FFFFF7B54830041C002603
S11355A00191002C12D0A5686768013F0CD4AB8927
S11355B0012B07D90E22AB5E013303D0281C019BBB
S11355C0984706436835F0E72468EAE7301CFEBDD7
S11355D0F7B5041C071C002601914834002C16D092
S11355E06368A5680093009B013B00930DD4AB89CD
S11355F0012B08D90E22AB5E013304D0381C291CC0
S1135600019B984706436835EDE72468E6E7301CBC
S1135610FEBD00000E4B70B500251E1C0D4CE41A97
S1135620A410A54204D0AB00F35898470135F8E71D
S113563007F026FE084B00251E1C084CE41AA41093
S1135640A54204D0AB00F35898470135F8E770BD84
S11356508CD200008CD200008CD2000094D20000C6
S1135660F0B58B8991B09B0706D50B1C47330B60B3
S11356700B6101234B6145E00C1C0E23C95E061C23
S1135680002904DA8023A5891D4010D10CE001AA69
S113569003F012FB0028F5DBF023029D1B021D40E2
S11356A0194BED186B425D418027FF0001E0002596
S11356B04027301C391C00F0A1F800280CD1A38924
S11356C09A051FD402221343A381231C473323606A
S11356D023610123636115E080220C4BB362A3892B
S11356E020601343A38120616761002D0AD00E233B
S11356F0E15E301C03F00AFE002803D00122A389D6
S11357001343A38111B0F0BD00E0FFFF015200007C
S113571008B5034B011C186800F070F808BDC046BA
S11357202801002008B5034B011C186800F020F87C
S113573008BDC04628010020C9B28218904204D096
S113574003788B4202D00130F8E700207047002331
S113575010B5934203D0CC5CC4540133F9E710BDB7
S1135760031C8218934202D019700133FAE7704780
S113577030B500293ED004390B68002B00DAC91873
S11357801D4A1368141C002B02D14B60116031E0D8
S113579099420DD208680A189A4203D11368C318B3
S11357A00B6053684B60216024E08A4203D8131CC9
S11357B05A68002AF9D11D685C198C420BD109681A
S11357C0691858181960904214D110685268091861
S11357D019605A600EE08C4202D90C23036009E080
S11357E008680C18944203D11468526800190860C0
S11357F04A60596030BDC04650030020032370B591
S1135800CC1C9C430834051C0C2C01D20C2405E050
S1135810002C03DA0C2300202B6042E08C42F9D3E5
S1135820204A1368101C191C002913D00A68121B83
S11358300DD40B2A02D90A608B181FE08B4202D1C7
S11358405A6802601BE04A685A600B1C17E00B1C84
S11358504968E9E7144E3368002B03D1281C01F092
S113586005F93060281C211C01F000F9031C421CBE
S1135870D0D00322C61C964386420AD11C60181C51
S113588007210B301A1D8843821A0AD051429950BD
S113589007E0311A281C01F0E9F8431CBAD0331C84
S11358A0ECE770BD500300204C030020F0B58BB032
S11358B0141C1D1E129906DA802424062B191D1CA3
S11358C0141C2D2300E000230B702023149E0322BC
S11358D09E43462E07D0331C453B59424B411099F9
S11358E0013ACB181093109B00920193139B221C36
S11358F0029308AB039309AB04932B1C02F0A4FBA3
S1135900071C472E02D1119BDB072CD5109BFB18DB
S11359100793462E14D13B78302B0CD1201C291C24
S11359200022002304F0DCFC002804D10123109A97
S11359309B1A139A1360139B079A1B68D318079337
S1135940201C291C0022002304F0CAFC002801D0DA
S1135950079B0993099B079A934204D25A1C099204
S113596030221A70F6E7381C099B159ADB1B13606A
S11359700BB0F0BDF7B52B23071C0C1C0270861C62
S1135980002901DA2D234C427B70092C1CDD6B4667
S1135990DD1D201C0A21FFF705F9013D3031297076
S11359A0201C0A21FFF718F8041E092CF1DC013D24
S11359B030342C706B460733301CAB4209D92B783A
S11359C0013533700136F5E73023E4183370B01C29
S11359D07470C01BFEBD0000F0B593B00C1C08929F
S11359E00993189E051C03F0A3FC0368181C0B9371
S11359F001F000FA0023216810930C90277E33688D
S1135A000722C90501D59B1800E0073393431A1CEC
S1135A10083232601A685B68A264E364A06CE16CCB
S1135A2000F0FCFF012818D1A06CE16C00220023D7
S1135A3004F05CFC002803D0231C2D2243331A708D
S1135A40B64B0A93472F01D9B54B0A930323226817
S1135A50236101339A43226012E0A06CE16C00F0F0
S1135A60DDFF266800280DD1AE4B0A93472F01D9DC
S1135A70AD4B0A930323311C236101339943216005
S1135A80002680E080216068C900431C01D1062300
S1135A9009E0A26CE36C672F01D0472F04D10028E2
S1135AA000D0C0E101236360636831430093232382
S1135AB021600191002106AA9B1802930FAB039366
S1135AC010AB05930497A26CE36C0691281CFFF7B6
S1135AD0EDFE20233A1C0A909A43472A07D10F9BD4
S1135AE0DA1C02DB626893422DDD023FFFB20F999C
S1135AF0652F12D8201C01393A1C50300F91FFF742
S1135B0039FF109A061C83182361012A02DC2268DB
S1135B10D2072ED5013323612BE0662F14D163689D
S1135B20002908DD2161002B02D12268D2071DD58E
S1135B300133CB1811E0002B03D10122216811425B
S1135B4013D09A1C11E067270F9B1098834206DB41
S1135B5022682361D20709D50133236106E00122BB
S1135B60002B01DC0221CA1A8218226100260F9B35
S1135B70A365232306AA9B181B78002B03D0231CA0
S1135B802D2243331A70099B281C0093211C089B67
S1135B9011AA00F05FF9431C02D10120404256E1F2
S1135BA02268530504D4281C08990A9A236916E12B
S1135BB0652F00D8D4E0A06CE16C0022002304F02F
S1135BC08FFB00282BD00123281C0899574A099ED3
S1135BD0B047431CE1D00F9B109A934207DB236824
S1135BE0DB0704D423689B0700D51AE113E1099E5F
S1135BF0281C08990B9A0C9BB0470026431CCCD058
S1135C00109B013B9E42EDDA221C0123281C0899BB
S1135C101A32099FB847431CBFD00136F0E70F9BE7
S1135C20002B2BDC0123281C0899404A099EB0470D
S1135C30431CB2D00F9B002B05D1109B002B02D12B
S1135C402368DB07CED5099E281C08990B9A0C9B68
S1135C50B0470026431CA0D00F9B281C5B42089928
S1135C609E4208DA221C01231A32099FB847431CBA
S1135C7093D00136F0E70A9A109BB0E0109BA66D12
S1135C809E4200DD1E1C002E01DC002314E0331CA8
S1135C90281C08990A9A099FB847431CF5D17CE748
S1135CA0221C0123281C08991A32099FB847431C57
S1135CB000D172E70D9B01330D93F343A26DDB1703
S1135CC00D993340D31A9942EADB0A9B9E180F9B25
S1135CD0109A93420EDB2368DB070BD4109B0A9ABD
S1135CE0D7180F9ABF1B9B1A9F4200DD1F1C002F61
